:1000000029C00000F4C200001BC3000043C300006D
:100010003CC000003AC000005CC4000008C40000FE
:100020002FC40000DBC30000B0C3000085C3000084
:100030005AC30000AFC4000028C0000082C4000002
:1000400024C00000D0C4000020C000001EC000007A
:100050001CC0000011241FBECFE5D8E0DEBFCDBF1D
:1000600010E0A0E6B0E0EAEAFAE002C005900D92E6
:10007000A638B107D9F720E0A6E8B0E001C01D928C
:10008000A03BB207E1F701D10EC5BACFCF93C82F7D
:1000900060E081E008D26C2F661F6627661F86E04D
:1000A00002D2C6FB662760F985E0FDD1C5FB662755
:1000B00060F984E0F8D1C4FB662760F983E0F3D1EE
:1000C00061E082E0F0D18FEC97E00197F1F700C09A
:1000D000000060E082E0E7D18FEC97E00197F1F754
:1000E00000C00000C3FB662760F986E0DCD1C2FBDC
:1000F000662760F985E0D7D1C1FB662760F984E007
:10010000D2D16C2F617083E0CED161E082E0CBD19F
:100110008FEC97E00197F1F700C0000060E082E00B
:10012000C2D18FEC97E00197F1F700C00000CF91AA
:100130000895CF93C82F61E081E0B5D16C2F661F81
:100140006627661F86E0AFD1C6FB662760F985E0AB
:10015000AAD1C5FB662760F984E0A5D1C4FB662758
:1001600060F983E0A0D161E082E09DD18FEC97E05F
:100170000197F1F700C0000060E082E094D18FECBD
:1001800097E00197F1F700C00000C3FB662760F914
:1001900086E089D1C2FB662760F985E084D1C1FB86
:1001A000662760F984E07FD16C2F617083E07BD19A
:1001B00061E082E078D18FEC97E00197F1F700C021
:1001C000000060E082E06FD18FEC97E00197F1F7DB
:1001D00000C00000CF9108952FE788E391E02150FF
:1001E00080409040E1F700C0000082E04FDF88E2ED
:1001F0004DDF8CE04BDF81E049DF8FEC97E001972A
:10020000F1F700C0000086E041CF93CF811102C01A
:1002100080E803C0813019F480EC860F37CF089551
:10022000CF93DF93FC012081222311F0EC0104C065
:1002300080E3DF91CF917DCF8991882359F079DFD9
:10024000FFEF20E782E0F15020408040E1F700C05E
:100250000000F2CFDF91CF910895CF93DF931F92EB
:10026000CDB7DEB765D3FED389838981823049F467
:1002700080918600909187000196909387008093EB
:1002800086000F90DF91CF910895CF93DF931F9257
:10029000CDB7DEB71CD0A0DF45D38DE291E04CD3C3
:1002A00049D3789480E890E0BBDF60E081E0AEDF86
:1002B00010E08FE177D18111FBCF112311F011E014
:1002C000F8CFCE010196DED389819FDFF8CFEF9280
:1002D000FF921F93CF93DF93C0E6D0E048EF5FEF2C
:1002E00060EF7FEFA8EEBFEFE0E0F0E081E090E0AC
:1002F0002991E830B0F5213019F198F0223009F059
:10030000C2C01AB37C010E2E02C0EE0CFF1C0A9470
:10031000E2F797013E2D309531233ABB3BB3232BB7
:100320001EC01AB37C010E2E02C0EE0CFF1C0A94F4
:10033000E2F79701312F322B3ABB3BB320950EC029
:100340001AB37C010E2E02C0EE0CFF1C0A94E2F7D9
:1003500097012095312F32233ABB3BB323232BBB8C
:1003600092C0483080F52130F9F088F0223009F051
:100370008AC017B39C01042E01C0220F0A94EAF729
:10038000322F3095312337BB38B3232B1AC017B324
:100390009C01042E01C0220F0A94EAF7312F322B60
:1003A00037BB38B320950CC017B39C01042E01C095
:1003B000220F0A94EAF72095312F322337BB38B346
:1003C000232328BB60C0683080F52130F9F088F025
:1003D000223009F058C014B39C01062E01C0220F30
:1003E0000A94EAF7322F3095312334BB35B3232BEF
:1003F0001AC014B39C01062E01C0220F0A94EAF71A
:10040000312F322B34BB35B320950CC014B39C0173
:10041000062E01C0220F0A94EAF72095312F3223CD
:1004200034BB35B3232325BB2EC02130F1F080F03F
:10043000223049F511B39C010A2E01C0220F0A9403
:10044000EAF7322F3095312331BB32B3232B1AC058
:1004500011B39C010A2E01C0220F0A94EAF7312F32
:10046000322B31BB32B320950CC011B39C010A2E44
:1004700001C0220F0A94EAF72095312F322331BBB5
:1004800032B3232322BB319611966F5F7F4F4F5FAC
:100490005F4FE032F10509F02BCFDF91CF911F9133
:1004A000FF90EF900895982F977086958695869582
:1004B0006130C1F5813091F028F08230D9F083307D
:1004C00029F108954BB321E030E0B90102C0660F75
:1004D000771F9A95E2F7CB01842B38C048B321E00F
:1004E00030E0B90102C0660F771F9A95E2F7CB01A1
:1004F000842B3AC045B321E030E0B90102C0660F59
:10050000771F9A95E2F7CB01842B3CC042B321E0E0
:1005100030E0B90102C0660F771F9A95E2F7CB0170
:10052000842B3EC08130A1F028F08230F9F0833076
:1005300059F108954BB321E030E0B90102C0660FD4
:10054000771F9A95E2F7CB01809584238BBB0895A2
:1005500048B321E030E0B90102C0660F771F9A95D9
:10056000E2F7CB018095842388BB089545B321E051
:1005700030E0B90102C0660F771F9A95E2F7CB0110
:100580008095842385BB089542B321E030E0B90112
:1005900002C0660F771F9A95E2F7CB0180958423FE
:1005A00082BB0895282F2770869586958695813081
:1005B00049F030F0823041F0833079F480B305C0E7
:1005C00089B303C086B301C083B390E002C09595A0
:1005D00087952A95E2F78170089580E00895E19962
:1005E000FECF9FBB8EBB6DBBE29AE19A08951F922E
:1005F0000F920FB60F9211242F933F934F935F9357
:100600006F937F938F939F93AF93BF93EF93FF93DA
:10061000E0918E00F0918F00309709F00995FF91DD
:10062000EF91BF91AF919F918F917F916F915F916A
:100630004F913F912F910F900FBE0F901F901895E3
:1006400078941F920F920FB60F9211242F933F931D
:100650004F935F936F937F938F939F93AF93BF93CA
:10066000EF93FF93E0918C00F0918D00309709F0AB
:100670000995FF91EF91BF91AF919F918F917F91DC
:100680006F915F914F913F912F910F900FBE0F90FF
:100690001F9018951F920F920FB60F9211242F934F
:1006A0003F934F935F936F937F938F939F93AF93FA
:1006B000BF93EF93FF93E0918A00F0918B00309706
:1006C00009F00995FF91EF91BF91AF919F918F91A3
:1006D0007F916F915F914F913F912F910F900FBE3E
:1006E0000F901F9018951F920F920FB60F92112422
:1006F0002F933F934F935F936F937F938F939F932A
:10070000AF93BF93EF93FF93E0919000F09191002E
:10071000309709F00995FF91EF91BF91AF919F91AB
:100720008F917F916F915F914F913F912F910F909A
:100730000FBE0F901F9018951F920F920FB60F9239
:1007400011242F933F934F935F936F937F938F93D6
:100750009F93AF93BF93EF93FF93E0919C00F09131
:100760009D00309709F00995FF91EF91BF91AF91EE
:100770009F918F917F916F915F914F913F912F91B9
:100780000F900FBE0F901F9018951F920F920FB6EB
:100790000F9211242F933F934F935F936F937F9307
:1007A0008F939F93AF93BF93EF93FF93E0919A0042
:1007B000F0919B00309709F00995FF91EF91BF915F
:1007C000AF919F918F917F916F915F914F913F91E9
:1007D0002F910F900FBE0F901F9018951F920F92A0
:1007E0000FB60F9211242F933F934F935F936F9304
:1007F0007F938F939F93AF93BF93EF93FF93E0917A
:100800009800F0919900309709F00995FF91EF91C8
:10081000BF91AF919F918F917F916F915F914F9118
:100820003F912F910F900FBE0F901F9018951F9220
:100830000F920FB60F9211242F933F934F935F9314
:100840006F937F938F939F93AF93BF93EF93FF9398
:10085000E0919600F0919700309709F00995FF918B
:10086000EF91BF91AF919F918F917F916F915F9128
:100870004F913F912F910F900FBE0F901F901895A1
:100880001F920F920FB60F9211242F933F934F9305
:100890005F936F937F938F939F93AF93BF93EF93E8
:1008A000FF93E0919400F0919500309709F009953D
:1008B000FF91EF91BF91AF919F918F917F916F9138
:1008C0005F914F913F912F910F900FBE0F901F900E
:1008D00018951F920F920FB60F9211242F933F93EA
:1008E0004F935F936F937F938F939F93AF93BF9338
:1008F000EF93FF93E0919200F0919300309709F00D
:100900000995FF91EF91BF91AF919F918F917F9149
:100910006F915F914F913F912F910F900FBE0F906C
:100920001F90189583E389B95998539A549A08955A
:100930008CB10895579A089590939F0080939E00DC
:1009400008951F920F920FB60F9211242F933F9389
:100950004F935F936F937F938F939F93AF93BF93C7
:10096000EF93FF93E091A000F091A100309709F080
:100970000995FF91EF91BF91AF919F918F917F91D9
:100980006F915F914F913F912F910F900FBE0F90FC
:100990001F9018951F920F920FB60F9211242F934C
:1009A0003F934F935F936F937F938F939F93AF93F7
:1009B000BF93EF93FF93E0919E00F0919F003097DB
:1009C00009F00995FF91EF91BF91AF919F918F91A0
:1009D0007F916F915F914F913F912F910F900FBE3B
:1009E0000F901F9018951F920F920FB60F9211241F
:1009F0002F933F934F935F936F937F938F939F9327
:100A0000AF93BF93EF93FF938091A200E091A30077
:100A1000F091A400E80FF11D9081933211F4E39856
:100A200010C08F5F8093A2006081809188009091B8
:100A300089009C012F5F3F4F3093890020938800ED
:100A4000CEDDFF91EF91BF91AF919F918F917F91FB
:100A50006F915F914F913F912F910F900FBE0F902B
:100A60001F9018959091A5009A3050F4E92FF0E06E
:100A7000EA55FF4F80839F5F9093A50082E0089521
:100A800080E00895E091A500EE2359F0E150E09355
:100A9000A500F0E0EA55FF4F2081FC01208382E0B1
:0A0AA000089581E00895F894FFCF57
:100AAA00010000000000000100000000000000003A
:100ABA000000000002020202020202020000020218
:060ACA00737461636B0010
:00000001FF
