:1000000029C00000C6C40000EDC4000015C50000F2
:100010003CC000003AC00000A1C600004DC6000070
:1000200074C6000020C600009EC5000073C5000015
:100030002CC50000E5C6000028C00000B8C60000BE
:1000400024C0000006C7000020C000001EC0000041
:100050001CC0000011241FBECFE5D8E0DEBFCDBF1D
:1000600010E0A0E6B0E0E2E8FFE002C005900D92EB
:10007000A63EB107D9F721E0A6EEB0E001C01D927F
:10008000A130B207E1F737D27AC7BACF0895CF933C
:10009000CAE1CC3199F08C2F57D481110FC02FE7D2
:1000A0008AE196E0215080409040E1F700C00000D6
:1000B000EC2FF0E0EA59FF4F808104C0CF5FCE31D2
:1000C00041F784E5CF910895CF93C82F60E081E098
:1000D000BCD36C2F661F6627661F86E0B6D3C6FBAF
:1000E000662760F985E0B1D3C5FB662760F984E037
:1000F000ACD3C4FB662760F983E0A7D361E082E05C
:10010000A4D38FEC97E00197F1F700C0000060E006
:1001100082E09BD38FEC97E00197F1F700C00000DD
:10012000C3FB662760F986E090D3C2FB662760F9BF
:1001300085E08BD3C1FB662760F984E086D36C2F02
:10014000617083E082D361E082E07FD38FEC97E03F
:100150000197F1F700C0000060E082E076D38FECF9
:1001600097E00197F1F700C00000CF910895CF9379
:10017000C82F61E081E069D36C2F661F6627661F78
:1001800086E063D3C6FB662760F985E05ED3C5FBD6
:10019000662760F984E059D3C4FB662760F983E0E1
:1001A00054D361E082E051D38FEC97E00197F1F7EF
:1001B00000C0000060E082E048D38FEC97E0019738
:1001C000F1F700C00000C3FB662760F986E03DD36D
:1001D000C2FB662760F985E038D3C1FB662760F96A
:1001E00084E033D36C2F617083E02FD361E082E031
:1001F0002CD38FEC97E00197F1F700C0000060E08E
:1002000082E023D38FEC97E00197F1F700C0000064
:10021000CF9108952FE788E391E0215080409040EE
:10022000E1F700C0000082E04FDF88E24DDF8CE0A4
:100230004BDF81E049DF8FEC97E00197F1F700C0D9
:10024000000086E041CF811102C080E803C0813008
:1002500019F480EC860F38CF0895CF93DF93FC011B
:100260002081222311F0EC0104C080E3DF91CF91C3
:100270007ECF8991882359F07ADFFFEF20E782E073
:10028000F15020408040E1F700C00000F2CFDF9144
:10029000CF91089581E018DF8FEC97E00197F1F797
:1002A00000C00000089582E0C3D48FE19EE49BBDAE
:1002B0008ABD83EF91E099BD88BD0895082E000C9A
:1002C000990BAA0BBB0B9C01AD01265A3F4F4F4F18
:1002D0005F4FA0EDB7E049D624EB30E040E050E0BE
:1002E00019D62D503E4F39BD28BD089561E080E1FB
:1002F000ACD260E081E1A9D260E082E1A6D260E008
:1003000083E1A3D28FE99FE00197F1F700C00000DD
:1003100060E080E19AD261E081E197D260E082E121
:1003200094D260E083E191D28FE99FE00197F1F7E9
:1003300000C0000060E080E188D260E081E185D209
:1003400061E082E182D260E083E17FD28FE99FE0C9
:100350000197F1F700C0000060E080E176D260E034
:1003600081E173D260E082E170D261E083E16DD21D
:100370008FE99FE00197F1F700C00000089560E069
:1003800080E163D260E081E160D260E082E15DD231
:1003900061E083E15AD28FE99FE00197F1F700C055
:1003A000000060E080E151D260E081E14ED261E086
:1003B00082E14BD260E083E148D28FE99FE0019770
:1003C000F1F700C0000060E080E13FD261E081E130
:1003D0003CD260E082E139D260E083E136D28FE93D
:1003E0009FE00197F1F700C0000061E080E12DD2AD
:1003F00060E081E12AD260E082E127D260E083E11F
:1004000024D28FE99FE00197F1F700C00000089522
:10041000CF92DF92EF92FF92CF93DF9318161906D7
:100420000CF5092E000CAA0BBB0BBC01CD0139E069
:10043000660F771F881F991F3A95D1F728E631E09C
:1004400040E050E045D569017A01C0E0D0E0CE013E
:10045000A0E0B0E08C159D05AE05BF0550F58FDF1F
:100460002196F5CF009729F166277727681B790B2E
:10047000CB01770FAA0BBB0BBC01CD0129E0660FA6
:10048000771F881F991F2A95D1F728E631E040E0B1
:1004900050E01ED569017A01C0E0D0E0CE01A0E0B5
:1004A000B0E08C159D05AE05BF0518F41FDF219641
:1004B000F5CFDF91CF91FF90EF90DF90CF9008952F
:1004C000EF92FF920F931F93CF93DF937C01C0E0D5
:1004D000D0E0CE15DF0541F000E012E050DF015022
:1004E0001109E1F72196F5CFDF91CF911F910F917F
:1004F000FF90EF900895CF93DF931F92CDB7DEB7B3
:10050000B8D088DEC3DD66E081E09ED062E084E0A2
:1005100053D362E081E0C3D283E0E1D2C4DE65E080
:1005200080E091DE84E890E098DE62E081E08BDE9E
:100530008BE890E092DE2FEF84E39CE02150804036
:100540009040E1F700C00000A5DE60E080E07BDEC7
:1005500089E990E082DE60E081E075DE87EA90E084
:100560007CDE84E58983F12C00E010E090DD898356
:100570008981843581F0F11040C08981813321F473
:10058000111102C011E0F2CF8981823331F40111DF
:1005900004C001E0EBCFF11030C01130B1F47ADECD
:1005A00060E080E050DE87EB90E057DE67E080E0BF
:1005B0004ADE8EEB90E051DE60E081E044DE83ECC9
:1005C00090E04BDEFF24F394D1CF013061F662DE80
:1005D00060E080E038DE89EC90E03FDE67E080E0BC
:1005E00032DE80ED90E039DE60E081E02CDE86EDE9
:1005F00090E033DEFF24F394B8CF113079F4898191
:10060000823339F0843339F0813309F0AFCF86EA91
:1006100003C080E001C08AE551DEA8CF013009F0B7
:10062000A3CF8981823341F0843351F0813309F0C3
:100630009CCF83ED9FEF02C08DE290E0E9DE95CF85
:1006400081E090E03DDF91CF813041F028F08230B1
:1006500039F43E9A3F9A04C03E9801C03E9A3F98B2
:1006600086B1887F86B986B16770682B66B9379A7C
:100670000895EF92FF921F93CF93DF93C0E6D0E0EF
:1006800048EF5FEF60EF7FEFA8EEBFEFE0E0F0E054
:1006900081E090E02991E830B0F5213019F198F02F
:1006A000223009F0C2C01AB37C010E2E02C0EE0C3B
:1006B000FF1C0A94E2F797013E2D309531233ABB97
:1006C0003BB3232B1EC01AB37C010E2E02C0EE0CCE
:1006D000FF1C0A94E2F79701312F322B3ABB3BB350
:1006E00020950EC01AB37C010E2E02C0EE0CFF1C2A
:1006F0000A94E2F797012095312F32233ABB3BB39E
:1007000023232BBB92C0483080F52130F9F088F0CC
:10071000223009F08AC017B39C01042E01C0220FB9
:100720000A94EAF7322F3095312337BB38B3232BA5
:100730001AC017B39C01042E01C0220F0A94EAF7D5
:10074000312F322B37BB38B320950CC017B39C0127
:10075000042E01C0220F0A94EAF72095312F32238C
:1007600037BB38B3232328BB60C0683080F5213005
:10077000F9F088F0223009F058C014B39C01062E1D
:1007800001C0220F0A94EAF7322F3095312334BB8F
:1007900035B3232B1AC014B39C01062E01C0220FBF
:1007A0000A94EAF7312F322B34BB35B320950CC0B5
:1007B00014B39C01062E01C0220F0A94EAF720957B
:1007C000312F322334BB35B3232325BB2EC0213038
:1007D000F1F080F0223049F511B39C010A2E01C0DE
:1007E000220F0A94EAF7322F3095312331BB32B30E
:1007F000232B1AC011B39C010A2E01C0220F0A94A8
:10080000EAF7312F322B31BB32B320950CC011B334
:100810009C010A2E01C0220F0A94EAF72095312F7D
:10082000322331BB32B3232322BB319611966F5F43
:100830007F4F4F5F5F4FE032F10509F02BCFDF9123
:10084000CF911F91FF90EF900895982F9770869504
:10085000869586956130C1F5813091F028F082301F
:10086000D9F0833029F108954BB321E030E0B9018C
:1008700002C0660F771F9A95E2F7CB01842B38C030
:1008800048B321E030E0B90102C0660F771F9A95A6
:10089000E2F7CB01842B3AC045B321E030E0B90147
:1008A00002C0660F771F9A95E2F7CB01842B3CC0FC
:1008B00042B321E030E0B90102C0660F771F9A957C
:1008C000E2F7CB01842B3EC08130A1F028F08230CA
:1008D000F9F0833059F108954BB321E030E0B901CC
:1008E00002C0660F771F9A95E2F7CB0180958423AB
:1008F0008BBB089548B321E030E0B90102C0660F18
:10090000771F9A95E2F7CB018095842388BB0895E1
:1009100045B321E030E0B90102C0660F771F9A9518
:10092000E2F7CB018095842385BB089542B321E093
:1009300030E0B90102C0660F771F9A95E2F7CB014C
:100940008095842382BB0895282F277086958695ED
:100950008695813049F030F0823041F0833079F46F
:1009600080B305C089B303C086B301C083B390E0F0
:1009700002C0959587952A95E2F78170089580E0E9
:100980000895E199FECF9FBB8EBB6DBBE29AE19AC1
:1009900008951F920F920FB60F9211242F933F9339
:1009A0004F935F936F937F938F939F93AF93BF9377
:1009B000EF93FF93E091EC00F091ED00309709F098
:1009C0000995FF91EF91BF91AF919F918F917F9189
:1009D0006F915F914F913F912F910F900FBE0F90AC
:1009E0001F90189578941F920F920FB60F921124B2
:1009F0002F933F934F935F936F937F938F939F9327
:100A0000AF93BF93EF93FF93E091EA00F091EB0077
:100A1000309709F00995FF91EF91BF91AF919F91A8
:100A20008F917F916F915F914F913F912F910F9097
:100A30000FBE0F901F9018951F920F920FB60F9236
:100A400011242F933F934F935F936F937F938F93D3
:100A50009F93AF93BF93EF93FF93E091E800F091E2
:100A6000E900309709F00995FF91EF91BF91AF919F
:100A70009F918F917F916F915F914F913F912F91B6
:100A80000F900FBE0F901F9018951F920F920FB6E8
:100A90000F9211240F900FBE0F901F901895813068
:100AA00059F038F0823071F0833091F483B780646C
:100AB0000BC083B78F7B02C083B7806483BF83B7CB
:100AC000877F05C083B78F7B83BF83B7886083BF71
:100AD00083B7887F83BF83B7682B63BF0895813056
:100AE00049F028F0823061F0833069F0089583B7CF
:100AF0008F7E02C083B7806183BF83B78F7D08C0BC
:100B000083B78F7E02C083B7806183BF83B7806263
:100B100083BF08951F920F920FB60F9211242F9347
:100B20003F934F935F936F937F938F939F93AF9375
:100B3000BF93EF93FF93E091F800F091F9003097A5
:100B400009F00995FF91EF91BF91AF919F918F911E
:100B50007F916F915F914F913F912F910F900FBEB9
:100B60000F901F9018951F920F920FB60F9211249D
:100B70002F933F934F935F936F937F938F939F93A5
:100B8000AF93BF93EF93FF93E091F600F091F700DE
:100B9000309709F00995FF91EF91BF91AF919F9127
:100BA0008F917F916F915F914F913F912F910F9016
:100BB0000FBE0F901F9018958230D9F050F4882303
:100BC00079F0813071F58FB58E7F8FBD8FB58D7FB8
:100BD00021C08330D1F0843021F58FB5816017C0FA
:100BE0008FB58E7F8FBD8FB58D7F8FBD8EB5877F83
:100BF00008C08FB58E7F8FBD8FB58D7F8FBD8EB5B1
:100C000088608EBD8EB58F7E0BC08FB58E7F8FBDF9
:100C10008FB582608FBD8EB588608EBD8EB58061C8
:100C20008EBD8EB5887F8EBD8EB5682B6EBD089546
:100C3000813049F028F0823061F0833069F0089506
:100C40008FB58F7E02C08FB580618FBD8FB58F7DD0
:100C500008C08FB58F7E02C08FB580618FBD8FB504
:100C600080628FBD08951F920F920FB60F921124CC
:100C70002F933F934F935F936F937F938F939F93A4
:100C8000AF93BF93EF93FF93E091F400F091F500E1
:100C9000309709F00995FF91EF91BF91AF919F9126
:100CA0008F917F916F915F914F913F912F910F9015
:100CB0000FBE0F901F9018951F920F920FB60F92B4
:100CC00011242F933F934F935F936F937F938F9351
:100CD0009F93AF93BF93EF93FF93E091F200F09156
:100CE000F300309709F00995FF91EF91BF91AF9113
:100CF0009F918F917F916F915F914F913F912F9134
:100D00000F900FBE0F901F9018951F920F920FB665
:100D10000F9211242F933F934F935F936F937F9381
:100D20008F939F93AF93BF93EF93FF93E091F00066
:100D3000F091F100309709F00995FF91EF91BF9183
:100D4000AF919F918F917F916F915F914F913F9163
:100D50002F910F900FBE0F901F9018951F920F921A
:100D60000FB60F9211242F933F934F935F936F937E
:100D70007F938F939F93AF93BF93EF93FF93E091F4
:100D8000EE00F091EF00309709F00995FF91EF9197
:100D9000BF91AF919F918F917F916F915F914F9193
:100DA0003F912F910F900FBE0F901F9018951F929B
:100DB0000F920FB60F9211242F933F934F935F938F
:100DC0006F937F938F939F93AF93BF93EF93FF9313
:100DD000E091FC00F091FD00309709F00995FF913A
:100DE000EF91BF91AF919F918F917F916F915F91A3
:100DF0004F913F912F910F900FBE0F901F9018951C
:100E00001F920F920FB60F9211242F933F934F937F
:100E10005F936F937F938F939F93AF93BF93EF9362
:100E2000FF93E091FA00F091FB00309709F00995EB
:100E3000FF91EF91BF91AF919F918F917F916F91B2
:100E40005F914F913F912F910F900FBE0F901F9088
:100E500018951F920F920FB60F9211242F933F9364
:100E60004F935F936F937F938F939F93AF93BF93B2
:100E7000EF93FF938091FE00E091FF00F09100015D
:100E8000E80FF11D9081933211F4E39810C08F5F49
:100E90008093FE0060818091E6009091E7009C01C4
:100EA0002F5F3F4F3093E7002093E6006ADDFF910C
:100EB000EF91BF91AF919F918F917F916F915F91D2
:100EC0004F913F912F910F900FBE0F901F9018954B
:100ED000A1E21A2EAA1BBB1BFD010DC0AA1FBB1F3E
:100EE000EE1FFF1FA217B307E407F50720F0A21BB0
:100EF000B30BE40BF50B661F771F881F991F1A941D
:100F000069F760957095809590959B01AC01BD0146
:100F1000CF010895052E97FB16F400940FD057FDCE
:100F200005D0D6DF07FC02D046F408C050954095A6
:100F3000309521953F4F4F4F5F4F08959095809585
:100F4000709561957F4F8F4F9F4F0895A29FB0017D
:100F5000B39FC001A39F700D811D1124911DB29FED
:100F6000700D811D1124911D0895F0DFA59F900D36
:100F7000B49F900DA49F800D911D11240895F894A5
:020F8000FFCFA1
:100F82000100000000000001000000000202020255
:100F9200000000000202020200020202000202003D
:100FA200313233344D6F746F727300436F6E666902
:100FB2006775726174696F6E00312D536572766F59
:100FC200204D6F746F7200322D53746570706572AC
:100FD200204D6F746F7200313A202D393000323A51
:100FE200203000343A20393000313A202D34350097
:100FF200323A20343500343A2046756C6C20526FF8
:061002007461746500003A
:00000001FF
