:1000000029C00000B2C40000D9C4000001C500002E
:100010003CC000003AC0000033C60000DFC500004D
:1000200006C60000B2C5000030C000002EC00000AF
:1000300018C5000077C6000028C000004AC60000AE
:1000400024C00000C6C6000020C000001EC0000082
:100050001CC0000011241FBECFE5D8E0DEBFCDBF1D
:1000600010E0A0E6B0E0ECE7FEE002C005900D92E3
:10007000A63DB107D9F720E0A6EDB0E001C01D9282
:10008000A63FB207E1F72CD2F7C6BACFCF93C0E1B3
:1000900061E08C2FBFD3CF5FC431D1F7CF910895EA
:1000A000DF92EF92FF920F931F93CF93DF9390E82D
:1000B000E92E90E0F92EC0E1D4E560E08C2FAAD3C0
:1000C00000E010E084E1D82ED00E8D2D22D48111D5
:1000D0000EC0F701E00FF11FD0818FE19EE4019780
:1000E000F1F700C000008D2D14D48823E1F30F5FD9
:1000F0001F4F0430110531F761E08C2F8BD3CF5F98
:1001000094E0E90EF11CC431C1F68D2FDF91CF913F
:100110001F910F91FF90EF90DF900895CF93C82F1C
:1001200060E081E077D36C2F661F6627661F86E04C
:1001300071D3C6FB662760F985E06CD3C5FB6627E3
:1001400060F984E067D3C4FB662760F983E062D37B
:1001500061E082E05FD38FEC97E00197F1F700C098
:10016000000060E082E056D38FEC97E00197F1F752
:1001700000C00000C3FB662760F986E04BD3C2FBDA
:10018000662760F985E046D3C1FB662760F984E005
:1001900041D36C2F617083E03DD361E082E03AD3BC
:1001A0008FEC97E00197F1F700C0000060E082E07B
:1001B00031D38FEC97E00197F1F700C00000CF91A9
:1001C0000895CF93C82F61E081E024D36C2F661F80
:1001D0006627661F86E01ED3C6FB662760F985E0AA
:1001E00019D3C5FB662760F984E014D3C4FB6627E6
:1001F00060F983E00FD361E082E00CD38FEC97E0ED
:100200000197F1F700C0000060E082E003D38FECBB
:1002100097E00197F1F700C00000C3FB662760F983
:1002200086E0F8D2C2FB662760F985E0F3D2C1FB15
:10023000662760F984E0EED26C2F617083E0EAD229
:1002400061E082E0E7D28FEC97E00197F1F700C020
:10025000000060E082E0DED28FEC97E00197F1F7DA
:1002600000C00000CF9108952FE788E391E021506E
:1002700080409040E1F700C0000082E04FDF88E25C
:100280004DDF8CE04BDF81E049DF8FEC97E0019799
:10029000F1F700C0000086E041CF93CF811102C08A
:1002A00080E803C0813019F480EC860F37CF0895C1
:1002B000CF93DF93FC012081222311F0EC0104C0D5
:1002C00080E3DF91CF917DCF8991882359F079DF49
:1002D000FFEF20E782E0F15020408040E1F700C0CE
:1002E0000000F2CFDF91CF91089581E017DF8FEC0E
:1002F00097E00197F1F700C0000008958091D600C3
:100300009091D700892B69F486B597B59093DB005F
:100310008093DA0081E090E09093D7008093D6003C
:100320001CC48091D6009091D700019761F486B5E6
:1003300097B59093D9008093D80082E090E0909395
:10034000D7008093D6000895CF93C82F61E062D282
:100350008AE18A95F1F700C060E08C2F5BD262E001
:1003600080E089D31DBC1CBC8EE791E009D480E0FD
:10037000F4D3FED38091D6009091D7000297D0F3AA
:10038000FBD31092D7001092D6008091D8009091A4
:10039000D9002091DA003091DB00821B930B6AE3D5
:1003A00070E056D5CB01CF9108950F931F93CF9353
:1003B000DF938C01C1E0D0E0CE01D0D2F80181936F
:1003C0008F012196C530D105B9F7DF91CF911F91EB
:1003D0000F910895CF93C82F81E08093DD0085DFD2
:1003E00080E990E065DF60E081E058DFC11105C081
:1003F0007CDF86E990E0CF915BCF85EA90E058DF23
:10040000CF9173CF81111CC062E084E034D382E0CD
:1004100089D38FE19EE49BBD8ABD8BED95E099BDAC
:1004200088BD2FEF8DE399E4215080409040E1F7A3
:1004300000C000005ADF87EE93E099BD88BD0895A3
:10044000813051F482E053D38FE19EE499BD88BDA1
:1004500083EF91E09BBD8ABD0895811106C045DF01
:1004600089EB90E025DF80E0CDCF3FDF85EB90E0AA
:100470001FDF3BDF81EC90E01BDF2FEF80E792E096
:10048000215080409040E1F700C0000060E080E033
:1004900005DF88EC90E00CDF2FEF80E792E0215041
:1004A00080409040E1F700C0000060E080E0F6DEB0
:1004B0008FEC90E0FDDE2FEF80E792E0215080404E
:1004C0009040E1F700C0000010DF8091DC008F5FFA
:1004D0008093DC00833019F461E087E09BC10895CC
:1004E000CF93DF93CDB7DEB72A970FB6F894DEBF70
:1004F0000FBECDBFA3D0B8DEC9DD80E090E02ED224
:1005000091E08F3F09F490E09093F5001D821E82E8
:100510001F821886CE01059648DF19821A821B8237
:100520001C82789484E690E09A87898700E010E046
:1005300089859A85409770F08FE106DF9A878987D1
:100540002FEF86E791E0215080409040E1F700C016
:100550000000EECFA5DDF82E8091DD00811103C0F3
:100560008091F50037DF8091F500811135C080ED75
:100570008F0D8A30C8F41430D8F6EE24E394E10EDF
:10058000E1E0F0E0EC0FFD1FE10FF11DF082602FC4
:1005900081E084DE8F2D81DE2FEF80E792E0215015
:1005A00080409040E1F735C02DE3F212C1CF809139
:1005B000DE009091DF009C012F5F3F4F3093DF0002
:1005C0002093DE0061E0C2D181E08093F500CE018E
:1005D0000196E2D38ADEABCF813009F0A9CF80ED5E
:1005E0008F0D8A3000F5EE24E394E10EE1E0F0E0B7
:1005F000EC0FFD1FE10FF11DF082602F81E04EDE58
:100600008F2D4BDE8FEF90E722E08150904020400D
:10061000E1F700C00000602F81E040DE8AE23DDEAD
:100620000F5F1E2D85CF8DE3F81282CFBE016F5F65
:100630007F4FCE0105969FD310DF78CFEF92FF92C8
:100640001F93CF93DF93C0E6D0E048EF5FEF60EFFA
:100650007FEFA8EEBFEFE0E0F0E081E090E02991CD
:10066000E830B0F5213019F198F0223009F0C2C01D
:100670001AB37C010E2E02C0EE0CFF1C0A94E2F7A6
:1006800097013E2D309531233ABB3BB3232B1EC03F
:100690001AB37C010E2E02C0EE0CFF1C0A94E2F786
:1006A0009701312F322B3ABB3BB320950EC01AB3C2
:1006B0007C010E2E02C0EE0CFF1C0A94E2F797019B
:1006C0002095312F32233ABB3BB323232BBB92C05F
:1006D000483080F52130F9F088F0223009F08AC0E6
:1006E00017B39C01042E01C0220F0A94EAF7322F9F
:1006F0003095312337BB38B3232B1AC017B39C0175
:10070000042E01C0220F0A94EAF7312F322B37BB97
:1007100038B320950CC017B39C01042E01C0220FE2
:100720000A94EAF72095312F322337BB38B32323BD
:1007300028BB60C0683080F52130F9F088F02230A5
:1007400009F058C014B39C01062E01C0220F0A9470
:10075000EAF7322F3095312334BB35B3232B1AC03F
:1007600014B39C01062E01C0220F0A94EAF7312F20
:10077000322B34BB35B320950CC014B39C01062E2C
:1007800001C0220F0A94EAF72095312F322334BB9F
:1007900035B3232325BB2EC02130F1F080F0223069
:1007A00049F511B39C010A2E01C0220F0A94EAF701
:1007B000322F3095312331BB32B3232B1AC011B302
:1007C0009C010A2E01C0220F0A94EAF7312F322B26
:1007D00031BB32B320950CC011B39C010A2E01C06D
:1007E000220F0A94EAF72095312F322331BB32B31E
:1007F000232322BB319611966F5F7F4F4F5F5F4F70
:10080000E032F10509F02BCFDF91CF911F91FF90DE
:10081000EF900895982F977086958695869561300C
:10082000C1F5813091F028F08230D9F0833029F180
:1008300008954BB321E030E0B90102C0660F771F85
:100840009A95E2F7CB01842B38C048B321E030E021
:10085000B90102C0660F771F9A95E2F7CB01842B8E
:100860003AC045B321E030E0B90102C0660F771FFE
:100870009A95E2F7CB01842B3CC042B321E030E0F3
:10088000B90102C0660F771F9A95E2F7CB01842B5E
:100890003EC08130A1F028F08230F9F0833059F168
:1008A00008954BB321E030E0B90102C0660F771F15
:1008B0009A95E2F7CB01809584238BBB089548B3CA
:1008C00021E030E0B90102C0660F771F9A95E2F788
:1008D000CB018095842388BB089545B321E030E0A7
:1008E000B90102C0660F771F9A95E2F7CB01809598
:1008F000842385BB089542B321E030E0B90102C0F2
:10090000660F771F9A95E2F7CB018095842382BB0F
:100910000895282F2770869586958695813049F011
:1009200030F0823041F0833079F480B305C089B370
:1009300003C086B301C083B390E002C0959587954C
:100940002A95E2F78170089580E00895E199FECF3D
:100950009FBB8EBB6DBBE29AE19A0895E199FECFF1
:100960009FBB8EBBE09A8DB308951F920F920FB676
:100970000F9211242F933F934F935F936F937F9325
:100980008F939F93AF93BF93EF93FF93E091E40016
:10099000F091E500309709F00995FF91EF91BF9133
:1009A000AF919F918F917F916F915F914F913F9107
:1009B0002F910F900FBE0F901F90189578941F9253
:1009C0000F920FB60F9211242F933F934F935F9383
:1009D0006F937F938F939F93AF93BF93EF93FF9307
:1009E000E091E200F091E300309709F00995FF9162
:1009F000EF91BF91AF919F918F917F916F915F9197
:100A00004F913F912F910F900FBE0F901F9018950F
:100A10001F920F920FB60F9211242F933F934F9373
:100A20005F936F937F938F939F93AF93BF93EF9356
:100A3000FF93E091E000F091E100309709F0099513
:100A4000FF91EF91BF91AF919F918F917F916F91A6
:100A50005F914F913F912F910F900FBE0F901F907C
:100A600018951F920F920FB60F9211240F900FBE80
:100A70000F901F9018958230D9F050F4882379F0A8
:100A8000813071F58FB58E7F8FBD8FB58D7F21C081
:100A90008330D1F0843021F58FB5816017C08FB5D8
:100AA0008E7F8FBD8FB58D7F8FBD8EB5877F08C040
:100AB0008FB58E7F8FBD8FB58D7F8FBD8EB58860D2
:100AC0008EBD8EB58F7E0BC08FB58E7F8FBD8FB5DF
:100AD00082608FBD8EB588608EBD8EB580618EBD03
:100AE0008EB5887F8EBD8EB5682B6EBD0895813022
:100AF00049F028F0823061F0833069F008958FB5B5
:100B00008F7B02C08FB580648FBD8FB58F7708C093
:100B10008FB58F7B02C08FB580648FBD8FB5806825
:100B20008FBD0895813049F028F0823061F0833024
:100B300069F008958FB58F7E02C08FB580618FBD3B
:100B40008FB58F7D08C08FB58F7E02C08FB5806155
:100B50008FBD8FB580628FBD0895811103C08EB5A2
:100B6000806404C0813019F48EB58F7B8EBD0895EA
:100B700089B7806289BF089589B78F7D89BF08953D
:100B80009093E7008093E60008951F920F920FB6AE
:100B90000F9211242F933F934F935F936F937F9303
:100BA0008F939F93AF93BF93EF93FF93E091EC00EC
:100BB000F091ED00309709F00995FF91EF91BF9109
:100BC000AF919F918F917F916F915F914F913F91E5
:100BD0002F910F900FBE0F901F9018951F920F929C
:100BE0000FB60F9211242F933F934F935F936F9300
:100BF0007F938F939F93AF93BF93EF93FF93E09176
:100C0000EA00F091EB00309709F00995FF91EF9120
:100C1000BF91AF919F918F917F916F915F914F9114
:100C20003F912F910F900FBE0F901F9018951F921C
:100C30000F920FB60F9211242F933F934F935F9310
:100C40006F937F938F939F93AF93BF93EF93FF9394
:100C5000E091E800F091E900309709F00995FF91E3
:100C6000EF91BF91AF919F918F917F916F915F9124
:100C70004F913F912F910F900FBE0F901F9018959D
:100C80001F920F920FB60F9211242F933F934F9301
:100C90005F936F937F938F939F93AF93BF93EF93E4
:100CA000FF93E091E600F091E700309709F0099595
:100CB000FF91EF91BF91AF919F918F917F916F9134
:100CC0005F914F913F912F910F900FBE0F901F900A
:100CD00018951F920F920FB60F9211242F933F93E6
:100CE0004F935F936F937F938F939F93AF93BF9334
:100CF000EF93FF93E091F000F091F100309709F04D
:100D00000995FF91EF91BF91AF919F918F917F9145
:100D10006F915F914F913F912F910F900FBE0F9068
:100D20001F9018951F920F920FB60F9211242F93B8
:100D30003F934F935F936F937F938F939F93AF9363
:100D4000BF93EF93FF93E091EE00F091EF003097A7
:100D500009F00995FF91EF91BF91AF919F918F910C
:100D60007F916F915F914F913F912F910F900FBEA7
:100D70000F901F901895FB019C012C5F3F4FDC01E9
:100D80005D91CD014191541305C0A217B307B9F786
:100D900080E0089581E008950F931F93CF938C0115
:100DA000C0E0F801EC0FF11D6081662371F08091C5
:100DB000DE009091DF009C012F5F3F4F3093DF00FA
:100DC0002093DE00C3DDCF5FECCFCF911F910F9159
:100DD00008951F920F920FB60F9211242F933F93F5
:100DE0004F935F936F937F938F939F93AF93BF9333
:100DF000EF93FF938091F200E091F300F091F40003
:100E0000E80FF11D9081933211F4E39810C08F5FC9
:100E10008093F20060818091DE009091DF009C0160
:100E20002F5F3F4F3093DF002093DE008FDDFF9177
:100E3000EF91BF91AF919F918F917F916F915F9152
:100E40004F913F912F910F900FBE0F901F901895CB
:100E5000AA1BBB1B51E107C0AA1FBB1FA617B707E0
:100E600010F0A61BB70B881F991F5A95A9F78095FC
:0C0E70009095BC01CD010895F894FFCFCF
:100E7C000000000000000000000000000000000066
:100E8C000000000002020202010002020000020047
:100E9C0037383961343536623132336343303D642F
:100EAC0048656C6C6F00736574206120706173739E
:100EBC00776F726400656E746572207061737377FE
:100ECC006F726420004E4F5420436F7272656374CE
:100EDC000077616974203300776169742032007780
:060EEC0061697420310071
:00000001FF
