S01000004F6E6C696E6531332E737265634B
S113000039C00000D8C40000FFC4000027C50000A8
S11300104CC000004AC00000CBC6000077C60000F8
S11300209EC600004AC60000B0C5000085C5000099
S11300303EC5000020C7000038C00000F3C6000021
S113004034C0000041C7000030C000002EC00000D2
S11300502CC000009100920093009400950096003B
S1130060970099001B031E032103240327032A037B
S11300703003360311241FBECFE5D8E0DEBFCDBF69
S113008010E0A0E6B0E0EAEFFFE002C005900D92B8
S1130090A23EB107D9F721E0A2EEB0E001C01D9263
S11300A0A630B207E1F7EBD2A6C7AACF62E380E09D
S11300B04DD262E380E04AC2089580E027D281E015
S11300C025C280E003D281E001C280E01FD281E03A
S11300D0DDC181E01BD280E0D9C180E0D7D181E0CD
S11300E0D5C1863929F08A3F19F0823339F4DECF3D
S11300F062E380E02BD262E380E028C208952CD032
S1130100813019F485E38093E200E091E2008E2FC0
S113011090E0FC01F197E830F10568F4E65DFF4FEB
S113012064C7CBCFCECFD1CFD4CFD7CFBFCF86E983
S113013001C08AEFD6CF08958DE03FD29093E400BA
S11301408093E3002FEF86E791E0215080409040B8
S1130150E1F700C0000008958091E3009091E4006D
S1130160892B41F02091E3003091E40081E02F30AD
S1130170310508F080E00895CF93C82F60E081E056
S113018093D36C2F661F6627661F86E08DD3C6FB4C
S1130190662760F985E088D3C5FB662760F984E0AB
S11301A083D3C4FB662760F983E07ED361E082E0F9
S11301B07BD38FEC97E00197F1F700C0000060E07B
S11301C082E072D38FEC97E00197F1F700C0000052
S11301D0C3FB662760F986E067D3C2FB662760F934
S11301E085E062D3C1FB662760F984E05DD36C2FA0
S11301F0617083E059D361E082E056D38FEC97E0DD
S11302000197F1F700C0000060E082E04DD38FEC6D
S113021097E00197F1F700C00000CF910895CF93C4
S1130220C82F61E081E040D36C2F661F6627661FEC
S113023086E03AD3C6FB662760F985E035D3C5FB73
S1130240662760F984E030D3C4FB662760F983E055
S11302502BD361E082E028D38FEC97E00197F1F78C
S113026000C0000060E082E01FD38FEC97E00197AC
S1130270F1F700C00000C3FB662760F986E014D3E1
S1130280C2FB662760F985E00FD3C1FB662760F9DE
S113029084E00AD36C2F617083E006D361E082E0CE
S11302A003D38FEC97E00197F1F700C0000060E002
S11302B082E0FAD28FEC97E00197F1F700C00000DA
S11302C0CF9108952FE788E391E02150804090403A
S11302D0E1F700C0000082E04FDF88E24DDF8CE0F0
S11302E04BDF81E049DF8FEC97E00197F1F700C025
S11302F0000086E041CF811102C080E803C0813054
S113030019F480EC860F38CF0895CF93DF93FC0166
S11303102081222311F0EC0104C080E3DF91CF910E
S11303207ECF8991882359F07ADFFFEF20E782E0BE
S1130330F15020408040E1F700C00000F2CFDF918F
S1130340CF9108954F925F926F927F92AF92BF9236
S1130350CF92DF92EF92FF920F931F93CF93DF938D
S1130360CDB7DEB764970FB6F894DEBF0FBECDBF2E
S11303706B017C016115710581059105B1F480E380
S113038064960FB6F894DEBF0FBECDBFDF91CF9158
S11303901F910F91FF90EF90DF90CF90BF90AF909F
S11303A07F906F905F904F903ACF97FF0AC08DE295
S11303B036DFF094E094D094C094C11CD11CE11CAD
S11303C0F11C10E09AE0492E512C612C712C01E0B3
S11303D0010FAA24A394B12CAC0EBD1EA10EB11C16
S11303E017FDBA94C701B601A3019201E2D5605D7D
S11303F0F501608369017A01C114D104E104F104B7
S113040011F0102FE4CFE1E0F0E0EC0FFD1FE00F5E
S1130410F11D07FDFA95108217FD0CC0E1E0F0E034
S1130420EC0FFD1FE10FF11D17FDFA958081F7DE3A
S11304301150F2CF64960FB6F894DEBF0FBECDBF55
S1130440DF91CF911F910F91FF90EF90DF90CF90AC
S1130450BF90AF907F906F905F904F90089581E030
S11304608BDE8FEC97E00197F1F700C00000089550
S113047062E083E026D382E044D362E083E0AED33B
S113048080E091E097BD86BD82E0E4C3813061F0F5
S113049028F0823079F0833099F0089560E080E1AB
S11304A003D260E081E111C060E082E1FDD160E04F
S11304B083E10BC060E084E1F7D160E085E105C031
S11304C060E086E1F1D160E087E1EEC1813061F066
S11304D028F0823079F0833099F0089560E080E16B
S11304E0E3D161E081E111C060E082E1DDD161E04E
S11304F083E10BC060E084E1D7D161E085E105C010
S113050060E086E1D1D161E087E1CEC1813061F064
S113051028F0823079F0833099F0089561E080E129
S1130520C3D160E081E111C061E082E1BDD160E04E
S113053083E10BC061E084E1B7D160E085E105C0EF
S113054061E086E1B1D160E087E1AEC16B3508F0CE
S11305506AE5813031F028F0823029F0833019F0D7
S113056008956CBF089570E07BBD6ABD08958091C5
S1130570E5009091E600892B69F486B597B59093D0
S1130580EA008093E90081E090E09093E600809394
S1130590E5007BC38091E5009091E600019761F44A
S11305A086B597B59093E8008093E70082E090E0E9
S11305B09093E6008093E5000895CF93C82F61E0FF
S11305C073D18AE18A95F1F700C060E08C2F6CD179
S11305D01DBC1CBC87EB92E06BD380E056D360D388
S11305E08091E5009091E6000297D0F35DD31092DC
S11305F0E6001092E5008091E7009091E8002091D8
S1130600E9003091EA00821B930B6AE370E09BD40B
S1130610CB01CF910895CF93C82F21DF63E080E011
S11306206ADE8C2F90E0FC01F197E830F10528F5A3
S1130630EE5CFF4FDAC480E890E01DC08CE890E0E7
S11306401AC089E990E017C083EA90E014C08CEAEC
S113065090E011C060E080E04EDE85EB90E00BC0DE
S113066060E080E048DE84EC90E005C060E080E07B
S113067042DE83ED90E0CF9148CECF91089528D00B
S113068021DEF6DE19DDBDD362E080E0A7D262E0B0
S113069083E017D282E035D28DE78CBF78944CDDAD
S11306A060E080E028DE58DD682F70E080E090E0B4
S11306B049DE82EE90E0ABD3C82F21DDC13021F4B6
S11306C08091E200A8DFEBCF47DD813041F7F8CF1E
S11306D0EF92FF921F93CF93DF93C0E6D0E048EFF1
S11306E05FEF60EF7FEFA8EEBFEFE0E0F0E081E0C6
S11306F090E02991E830B0F5213019F198F02230DA
S113070009F0C2C01AB37C010E2E02C0EE0CFF1C0D
S11307100A94E2F797013E2D309531233ABB3BB35F
S1130720232B1EC01AB37C010E2E02C0EE0CFF1C3C
S11307300A94E2F79701312F322B3ABB3BB3209551
S11307400EC01AB37C010E2E02C0EE0CFF1C0A94DC
S1130750E2F797012095312F32233ABB3BB3232391
S11307602BBB92C0483080F52130F9F088F022305C
S113077009F08AC017B39C01042E01C0220F0A9409
S1130780EAF7322F3095312337BB38B3232B1AC005
S113079017B39C01042E01C0220F0A94EAF7312FEB
S11307A0322B37BB38B320950CC017B39C01042EF1
S11307B001C0220F0A94EAF72095312F322337BB68
S11307C038B3232328BB60C0683080F52130F9F0AA
S11307D088F0223009F058C014B39C01062E01C0E1
S11307E0220F0A94EAF7322F3095312334BB35B304
S11307F0232B1AC014B39C01062E01C0220F0A94A5
S1130800EAF7312F322B34BB35B320950CC014B327
S11308109C01062E01C0220F0A94EAF72095312F7D
S1130820322334BB35B3232325BB2EC02130F1F052
S113083080F0223049F511B39C010A2E01C0220F29
S11308400A94EAF7322F3095312331BB32B3232B8C
S11308501AC011B39C010A2E01C0220F0A94EAF7B0
S1130860312F322B31BB32B320950CC011B39C0114
S11308700A2E01C0220F0A94EAF72095312F322361
S113088031BB32B3232322BB319611966F5F7F4F66
S11308904F5F5F4FE032F10509F02BCFDF91CF912D
S11308A01F91FF90EF900895982F977086958695E5
S11308B086956130C1F5813091F028F08230D9F00D
S11308C0833029F108954BB321E030E0B90102C02F
S11308D0660F771F9A95E2F7CB01842B38C048B393
S11308E021E030E0B90102C0660F771F9A95E2F764
S11308F0CB01842B3AC045B321E030E0B90102C0FA
S1130900660F771F9A95E2F7CB01842B3CC042B364
S113091021E030E0B90102C0660F771F9A95E2F733
S1130920CB01842B3EC08130A1F028F08230F9F055
S1130930833059F108954BB321E030E0B90102C08E
S1130940660F771F9A95E2F7CB01809584238BBBC2
S1130950089548B321E030E0B90102C0660F771F63
S11309609A95E2F7CB018095842388BB089545B31B
S113097021E030E0B90102C0660F771F9A95E2F7D3
S1130980CB018095842385BB089542B321E030E0F8
S1130990B90102C0660F771F9A95E2F7CB018095E3
S11309A0842382BB0895E199FECF9FBB8EBB6DBBB0
S11309B0E29AE19A08951F920F920FB60F921124B2
S11309C02F933F934F935F936F937F938F939F9353
S11309D0AF93BF93EF93FF93E091F100F091F20096
S11309E0309709F00995FF91EF91BF91AF919F91D5
S11309F08F917F916F915F914F913F912F910F90C4
S1130A000FBE0F901F90189578941F920F920FB6F7
S1130A100F9211242F933F934F935F936F937F9380
S1130A208F939F93AF93BF93EF93FF93E091EF0066
S1130A30F091F000309709F00995FF91EF91BF9183
S1130A40AF919F918F917F916F915F914F913F9162
S1130A502F910F900FBE0F901F9018951F920F9219
S1130A600FB60F9211242F933F934F935F936F937D
S1130A707F938F939F93AF93BF93EF93FF93E091F3
S1130A80ED00F091EE00309709F00995FF91EF9198
S1130A90BF91AF919F918F917F916F915F914F9192
S1130AA03F912F910F900FBE0F901F9018951F929A
S1130AB00F920FB60F9211240F900FBE0F901F903C
S1130AC01895813059F038F0823071F0833091F408
S1130AD083B780640BC083B78F7B02C083B7806405
S1130AE083BF83B7877F05C083B78F7B83BF83B7FB
S1130AF0886083BF83B7887F83BF83B7682B63BF56
S1130B000895813049F028F0823061F0833069F033
S1130B10089583B78F7E02C083B7806183BF83B794
S1130B208F7D08C083B78F7E02C083B7806183BF87
S1130B3083B7806283BF08951F920F920FB60F92FE
S1130B4011242F933F934F935F936F937F938F93CE
S1130B509F93AF93BF93EF93FF93E091FD00F091C8
S1130B60FE00309709F00995FF91EF91BF91AF9185
S1130B709F918F917F916F915F914F913F912F91B1
S1130B800F900FBE0F901F9018951F920F920FB6E3
S1130B900F9211242F933F934F935F936F937F93FF
S1130BA08F939F93AF93BF93EF93FF93E091FB00D9
S1130BB0F091FC00309709F00995FF91EF91BF91F6
S1130BC0AF919F918F917F916F915F914F913F91E1
S1130BD02F910F900FBE0F901F9018958230D9F06F
S1130BE050F4882379F0813071F58FB58E7F8FBDF5
S1130BF08FB58D7F21C08330D1F0843021F58FB53E
S1130C00816017C08FB58E7F8FBD8FB58D7F8FBDEF
S1130C108EB5877F08C08FB58E7F8FBD8FB58D7FD2
S1130C208FBD8EB588608EBD8EB58F7E0BC08FB59F
S1130C308E7F8FBD8FB582608FBD8EB588608EBD6F
S1130C408EB580618EBD8EB5887F8EBD8EB5682BC6
S1130C506EBD0895813049F028F0823061F0833010
S1130C6069F008958FB58F7B02C08FB580648FBD06
S1130C708FB58F7708C08FB58F7B02C08FB5806426
S1130C808FBD8FB580688FBD0895811103C08EB567
S1130C90806404C0813019F48EB58F7B8EBD0895B5
S1130CA089B7806289BF089589B78F7D89BF089508
S1130CB09093F4008093F30008951F920F920FB65F
S1130CC00F9211242F933F934F935F936F937F93CE
S1130CD08F939F93AF93BF93EF93FF93E091F900AA
S1130CE0F091FA00309709F00995FF91EF91BF91C7
S1130CF0AF919F918F917F916F915F914F913F91B0
S1130D002F910F900FBE0F901F9018951F920F9266
S1130D100FB60F9211242F933F934F935F936F93CA
S1130D207F938F939F93AF93BF93EF93FF93E09140
S1130D30F700F091F800309709F00995FF91EF91D1
S1130D40BF91AF919F918F917F916F915F914F91DF
S1130D503F912F910F900FBE0F901F9018951F92E7
S1130D600F920FB60F9211242F933F934F935F93DB
S1130D706F937F938F939F93AF93BF93EF93FF935F
S1130D80E091F500F091F600309709F00995FF9194
S1130D90EF91BF91AF919F918F917F916F915F91EF
S1130DA04F913F912F910F900FBE0F901F90189568
S1130DB01F920F920FB60F9211242F933F934F93CC
S1130DC05F936F937F938F939F93AF93BF93EF93AF
S1130DD0FF93E091F300F091F400309709F0099546
S1130DE0FF91EF91BF91AF919F918F917F916F91FF
S1130DF05F914F913F912F910F900FBE0F901F90D5
S1130E00189583E389B95998539A549A0895FC0123
S1130E109BB1892F881F8827881F19F08CB1808384
S1130E2081E008951F920F920FB60F9211242F9311
S1130E303F934F935F936F937F938F939F93AF935E
S1130E40BF93EF93FF93E0910101F091020130977A
S1130E5009F00995FF91EF91BF91AF919F918F9107
S1130E607F916F915F914F913F912F910F900FBEA2
S1130E700F901F9018951F920F920FB60F92112486
S1130E802F933F934F935F936F937F938F939F938E
S1130E90AF93BF93EF93FF93E091FF00F0910001B4
S1130EA0309709F00995FF91EF91BF91AF919F9110
S1130EB08F917F916F915F914F913F912F910F90FF
S1130EC00FBE0F901F9018951F920F920FB60F929E
S1130ED011242F933F934F935F936F937F938F933B
S1130EE09F93AF93BF93EF93FF9380910301E0919E
S1130EF00401F0910501E80FF11D9081933211F482
S1130F00E39810C08F5F8093030160818091EB00B0
S1130F109091EC009C012F5F3F4F3093EC002093A5
S1130F20EB0041DDFF91EF91BF91AF919F918F91C4
S1130F307F916F915F914F913F912F910F900FBED1
S1130F400F901F901895AA1BBB1B51E107C0AA1F45
S1130F50BB1FA617B70710F0A61BB70B881F991F56
S1130F605A95A9F780959095BC01CD010895A1E209
S1130F701A2EAA1BBB1BFD010DC0AA1FBB1FEE1F0F
S1130F80FF1FA217B307E407F50720F0A21BB30B5A
S1130F90E40BF50B661F771F881F991F1A9469F7D6
S1130FA060957095809590959B01AC01BD01CF0132
S1130FB00895052E97FB16F400940FD057FD05D025
S1130FC0D6DF07FC02D046F408C050954095309512
S1130FD021953F4F4F4F5F4F0895909580957095A1
S1130FE061957F4F8F4F9F4F0895EE0FFF1F059020
S10D0FF0F491E02D0994F894FFCF6A
S1130FFA01000000000000010000000001000000E0
S113100A00000000020202020100020200000100C4
S113101A6D6F7665466F7277617264006D6F76657F
S113102A4261636B77617264006D6F7665526967BA
S113103A6874006D6F76654C65667400434152208E
S113104A53544F50005370656564204D6F64652096
S113105A3A2031005370656564204D6F6465203A07
S113106A2032005370656564204D6F6465203A2010
S105107A33003D
S9030000FC
