:100000000C942A000C9447000C9447000C94470071
:100010000C9447000C9447000C9447000C94470044
:100020000C9447000C9447000C9447000C94470034
:100030000C9447000C9447000C9447000C94470024
:100040000C9447000C9447000C9447000C94470014
:100050000C94470011241FBECFE5D8E0DEBFCDBF12
:1000600010E0A0E6B0E0E2EDFDE002C005900D92E8
:10007000A43AB107D9F720E0A4EAB0E001C01D928C
:10008000A43AB207E1F70E9462020C94E7060C94CE
:100090000000CF93CCE061E08C2F0E943A04CF5F48
:1000A000C031C9F7CF910895DF92EF92FF920F937D
:1000B0001F93CF93DF9390E8E92E90E0F92ECCE0E8
:1000C000D4E560E08C2F0E943A0400E010E08AE161
:1000D000D82ED00E8D2D0E94B904811112C0F701C7
:1000E000E00FF11FD0812FEB84ED91E02150804093
:1000F0009040E1F700C000008D2D0E94B9048823D4
:10010000D9F30F5F1F4F0430110509F761E08C2F01
:100110000E943A04CF5F24E0E20EF11CC03189F660
:100120008D2FDF91CF911F910F91FF90EF90DF9076
:100130000895CF93C82F60E081E00E943A046C2FAD
:10014000661F6627661F86E00E943A04C6FB662784
:1001500060F985E00E943A04C5FB662760F984E0F7
:100160000E943A04C4FB662760F983E00E943A04C7
:1001700061E082E00E943A048FEC97E00197F1F78A
:1001800000C0000060E082E00E943A048FEC97E03B
:100190000197F1F700C00000C3FB662760F986E015
:1001A0000E943A04C2FB662760F985E00E943A0487
:1001B000C1FB662760F984E00E943A046C2F6170ED
:1001C00083E00E943A0461E082E00E943A048FECEE
:1001D00097E00197F1F700C0000060E082E00E9424
:1001E0003A048FEC97E00197F1F700C00000CF913F
:1001F0000895CF93C82F61E081E00E943A046C2FEC
:10020000661F6627661F86E00E943A04C6FB6627C3
:1002100060F985E00E943A04C5FB662760F984E036
:100220000E943A04C4FB662760F983E00E943A0406
:1002300061E082E00E943A048FEC97E00197F1F7C9
:1002400000C0000060E082E00E943A048FEC97E07A
:100250000197F1F700C00000C3FB662760F986E054
:100260000E943A04C2FB662760F985E00E943A04C6
:10027000C1FB662760F984E00E943A046C2F61702C
:1002800083E00E943A0461E082E00E943A048FEC2D
:1002900097E00197F1F700C0000060E082E00E9463
:1002A0003A048FEC97E00197F1F700C00000CF917E
:1002B00008952FE788E391E0215080409040E1F7D6
:1002C00000C0000082E00E94990088E20E9499002C
:1002D0008CE00E94990081E00E9499008FEC97E0E9
:1002E0000197F1F700C0000086E00C9499000C948F
:1002F000F900811102C080E803C0813021F480EC54
:10030000860F0C9499000895CF93DF93FC01208110
:10031000222311F0EC0105C080E3DF91CF910C9412
:10032000F9008991882361F00E94F900FFEF20E72E
:1003300082E0F15020408040E1F700C00000F1CFA2
:10034000DF91CF9108954F925F926F927F92AF921B
:10035000BF92CF92DF92EF92FF920F931F93CF93B2
:10036000DF93CDB7DEB764970FB6F894DEBF0FBE4C
:10037000CDBF6B017C016115710581059105B9F453
:1003800080E364960FB6F894DEBF0FBECDBFDF9159
:10039000CF911F910F91FF90EF90DF90CF90BF9082
:1003A000AF907F906F905F904F900C94F90097FF03
:1003B0000BC08DE20E94F900F094E094D094C094B8
:1003C000C11CD11CE11CF11C10E09AE0492E512CFB
:1003D000612C712C01E0010FAA24A394B12CAC0E66
:1003E000BD1EA10EB11C17FDBA94C701B601A30131
:1003F00092010E94A606605DF501608369017A01A1
:10040000C114D104E104F10411F0102FE3CFE1E0B5
:10041000F0E0EC0FFD1FE00FF11D07FDFA951082D3
:1004200017FD0DC0E1E0F0E0EC0FFD1FE10FF11D45
:1004300017FDFA9580810E94F9001150F1CF649662
:100440000FB6F894DEBF0FBECDBFDF91CF911F91E5
:100450000F91FF90EF90DF90CF90BF90AF907F9083
:100460006F905F904F90089581E00E9499008FEC0B
:1004700097E00197F1F700C000000895FC0141E00A
:1004800050E020E030E08AE09191992389F09D329C
:1004900061F0829FB001839F700D1124292F30E0FD
:1004A00020533109260F371FEFCF40E050E0ECCF4B
:1004B0004130510529F088279927821B930B089515
:1004C000C9010895CF93DF93CDB7DEB7AA970FB6D2
:1004D000F894DEBF0FBECDBF0E944E030E944E03B4
:1004E0000E9459010E944900E12CF12CC12CD12C11
:1004F00000E010E083E489A71AA6A12CB12C812C7E
:10050000912C3E0185E1680E711C0E945400382E2A
:1005100084E53816D1F38DE3381619F0832D0E9447
:10052000770180ED830D8A3050F58AA581110EC0C8
:1005300024018FEF481A580AF301E80DF91D3082A3
:10054000C3010E943E028C014201DFCF8AA58130A7
:1005500021F039A681E08AA7D8CF25018FEF481A6C
:10056000580AE1E0F0E0EC0FFD1FEA0DFB1D3082C0
:10057000CE0101960E943E026C015201C6CF83E477
:1005800038120EC00E9434021D8A1982C12CD12C4F
:1005900000E010E01AA6A12CB12C812C912CB5CF33
:1005A0008DE33812D6CF0E94340280E990E00E9499
:1005B000840160E081E00E94790189A58B3291F08D
:1005C00058F48A3209F05CC00C9D70010D9DF00C4E
:1005D0001C9DF00C11240DC089A58D3239F08F328D
:1005E00071F04EC07801EC0CFD1C03C07801EC18D2
:1005F000FD08B7010F2C000C880B990B3FC0C114EC
:10060000D10429F484E990E00E94840139C0C80132
:10061000B6010E9492067B015C01072E000C880B3C
:10062000990B0E94A301AB2859F1B801110F880B57
:10063000990B0E9479051B012C01B6010D2C000CB1
:10064000880B990B0E9479059B01AC01C201B10195
:100650000E94D60420E030E040E251E40E9405060A
:100660000E944805162F8EE20E947701812F6AE0D2
:100670000E947206692F70E080E090E00E94A30162
:10068000FE0131961192E615F705E1F763E080E08F
:100690000E9479018701A12CB12C37CFEF92FF92F4
:1006A0001F93CF93DF93C0E6D0E048EF5FEF60EF9A
:1006B0007FEFA8EEBFEFE0E0F0E081E090E029916D
:1006C000E830B0F5213019F198F0223009F0C2C0BD
:1006D0001AB37C010E2E02C0EE0CFF1C0A94E2F746
:1006E00097013E2D309531233ABB3BB3232B1EC0DF
:1006F0001AB37C010E2E02C0EE0CFF1C0A94E2F726
:100700009701312F322B3ABB3BB320950EC01AB361
:100710007C010E2E02C0EE0CFF1C0A94E2F797013A
:100720002095312F32233ABB3BB323232BBB92C0FE
:10073000483080F52130F9F088F0223009F08AC085
:1007400017B39C01042E01C0220F0A94EAF7322F3E
:100750003095312337BB38B3232B1AC017B39C0114
:10076000042E01C0220F0A94EAF7312F322B37BB37
:1007700038B320950CC017B39C01042E01C0220F82
:100780000A94EAF72095312F322337BB38B323235D
:1007900028BB60C0683080F52130F9F088F0223045
:1007A00009F058C014B39C01062E01C0220F0A9410
:1007B000EAF7322F3095312334BB35B3232B1AC0DF
:1007C00014B39C01062E01C0220F0A94EAF7312FC0
:1007D000322B34BB35B320950CC014B39C01062ECC
:1007E00001C0220F0A94EAF72095312F322334BB3F
:1007F00035B3232325BB2EC02130F1F080F0223009
:1008000049F511B39C010A2E01C0220F0A94EAF7A0
:10081000322F3095312331BB32B3232B1AC011B3A1
:100820009C010A2E01C0220F0A94EAF7312F322BC5
:1008300031BB32B320950CC011B39C010A2E01C00C
:10084000220F0A94EAF72095312F322331BB32B3BD
:10085000232322BB319611966F5F7F4F4F5F5F4F0F
:10086000E032F10509F02BCFDF91CF911F91FF907E
:10087000EF900895982F97708695869586956130AC
:10088000C1F5813091F028F08230D9F0833029F120
:1008900008954BB321E030E0B90102C0660F771F25
:1008A0009A95E2F7CB01842B38C048B321E030E0C1
:1008B000B90102C0660F771F9A95E2F7CB01842B2E
:1008C0003AC045B321E030E0B90102C0660F771F9E
:1008D0009A95E2F7CB01842B3CC042B321E030E093
:1008E000B90102C0660F771F9A95E2F7CB01842BFE
:1008F0003EC08130A1F028F08230F9F0833059F108
:1009000008954BB321E030E0B90102C0660F771FB4
:100910009A95E2F7CB01809584238BBB089548B369
:1009200021E030E0B90102C0660F771F9A95E2F727
:10093000CB018095842388BB089545B321E030E046
:10094000B90102C0660F771F9A95E2F7CB01809537
:10095000842385BB089542B321E030E0B90102C091
:10096000660F771F9A95E2F7CB018095842382BBAF
:100970000895282F2770869586958695813049F0B1
:1009800030F0823041F0833079F480B305C089B310
:1009900003C086B301C083B390E002C095958795EC
:1009A0002A95E2F78170089580E008950E94EA0494
:1009B0000C94CB050E94C40558F00E94BD0540F080
:1009C00029F45F3F29F00C94B40551110C94FF05F4
:1009D0000C94BA050E94DC0568F39923B1F3552302
:1009E00091F3951B550BBB27AA2762177307840742
:1009F00038F09F5F5F4F220F331F441FAA1FA9F3D8
:100A000035D00E2E3AF0E0E832D091505040E695C5
:100A1000001CCAF72BD0FE2F29D0660F771F881F26
:100A2000BB1F261737074807AB07B0E809F0BB0B19
:100A3000802DBF01FF2793585F4F3AF09E3F51052D
:100A400078F00C94B4050C94FF055F3FE4F3983EF6
:100A5000D4F3869577956795B795F7959F5FC9F716
:100A6000880F911D9695879597F90895E1E0660F97
:100A7000771F881FBB1F621773078407BA0720F010
:100A8000621B730B840BBA0BEE1F88F7E095089579
:100A90000E94E40588F09F5798F0B92F9927B75125
:100AA000B0F0E1F0660F771F881F991F1AF0BA9512
:100AB000C9F714C0B13091F00E94FE05B1E008956D
:100AC0000C94FE05672F782F8827B85F39F0B93F5F
:100AD000CCF3869577956795B395D9F73EF49095C5
:100AE0008095709561957F4F8F4F9F4F0895E89443
:100AF00009C097FB3EF490958095709561957F4F66
:100B00008F4F9F4F9923A9F0F92F96E9BB27939513
:100B1000F695879577956795B795F111F8CFFAF423
:100B2000BB0F11F460FF1BC06F5F7F4F8F4F9F4F54
:100B300016C0882311F096E911C0772321F09EE8B2
:100B4000872F762F05C0662371F096E8862F70E018
:100B500060E02AF09A95660F771F881FDAF7880FF2
:100B60009695879597F9089597F99F6780E870E0C3
:100B700060E008959FEF80EC089500240A94161613
:100B8000170618060906089500240A94121613067B
:100B9000140605060895092E0394000C11F4882309
:100BA00052F0BB0F40F4BF2B11F460FF04C06F5F25
:100BB0007F4F8F4F9F4F089557FD9058440F551FFB
:100BC00059F05F3F71F04795880F97FB991F61F0CF
:100BD0009F3F79F087950895121613061406551F46
:100BE000F2CF4695F1DF08C0161617061806991FB2
:100BF000F1CF86957105610508940895E894BB27A7
:100C000066277727CB0197F908950E9418060C9460
:100C1000CB050E94BD0538F00E94C40520F0952345
:100C200011F00C94B4050C94BA0511240C94FF0532
:100C30000E94DC0570F3959FC1F3950F50E0551F9E
:100C4000629FF001729FBB27F00DB11D639FAA2721
:100C5000F00DB11DAA1F649F6627B00DA11D661F70
:100C6000829F2227B00DA11D621F739FB00DA11D91
:100C7000621F839FA00D611D221F749F3327A00D4B
:100C8000611D231F849F600D211D822F762F6A2FE7
:100C900011249F5750409AF0F1F088234AF0EE0F4C
:100CA000FF1FBB1F661F771F881F91505040A9F779
:100CB0009E3F510580F00C94B4050C94FF055F3FF6
:100CC000E4F3983ED4F3869577956795B795F795B5
:100CD000E7959F5FC1F7FE2B880F911D969587952D
:100CE00097F90895991B79E004C0991F961708F0A9
:100CF000961B881F7A95C9F780950895AA1BBB1B80
:100D000051E107C0AA1FBB1FA617B70710F0A61B0B
:100D1000B70B881F991F5A95A9F780959095BC012C
:100D2000CD01089597FB072E16F4009407D077FDA8
:100D300009D00E947E0607FC05D03EF4909581956F
:100D40009F4F0895709561957F4F0895052E97FBED
:100D50001EF400940E94BD0657FD07D00E94C506F0
:100D600007FC03D04EF40C94BD0650954095309589
:100D700021953F4F4F4F5F4F089590958095709507
:100D800061957F4F8F4F9F4F0895A1E21A2EAA1BA6
:100D9000BB1BFD010DC0AA1FBB1FEE1FFF1FA2172B
:100DA000B307E407F50720F0A21BB30BE40BF50B28
:100DB000661F771F881F991F1A9469F760957095B1
:100DC000809590959B01AC01BD01CF010895F894E9
:020DD000FFCF53
:100DD2000000000000000000000000000000000011
:100DE20000000000000000000202020202020202F1
:100DF2003132333435363738392F2A2D43303D2BB3
:100E0200616E730043616E27742064697669736949
:040E12006F6E0000FF
:00000001FF
