S01000004F6E6C696E6531332E737265634B
S113000029C00000F3C400001AC5000042C5000066
S11300103CC000003AC000003CC60000E8C5000037
S11300200FC60000BBC5000090C5000065C50000F8
S113003059C5000080C6000028C0000053C6000057
S113004024C00000B2C6000020C000001EC0000092
S11300501CC0000011241FBECFE5D8E0DEBFCDBF19
S113006010E0A0E6B0E0E2EFFEE002C005900D92E1
S1130070A03CB107D9F720E0A0ECB0E001C01D928C
S1130080AB3DB207E1F7C9D132C7BACFCF93C0E1D4
S113009061E08C2F00D4CF5FC431D1F7CF910895A4
S11300A0DF92EF92FF920F931F93CF93DF9390E829
S11300B0E92E90E0F92EC0E1D4E560E08C2FEBD37B
S11300C000E010E084E1D82ED00E8D2D63D4811190
S11300D00EC0F701E00FF11FD0818FE19EE401977C
S11300E0F1F700C000008D2D55D48823E1F30F5F94
S11300F01F4F0430110531F761E08C2FCCD3CF5F53
S113010094E0E90EF11CC431C1F68D2FDF91CF913B
S11301101F910F91FF90EF90DF900895CF93C82F18
S113012060E081E0B8D36C2F661F6627661F86E007
S1130130B2D3C6FB662760F985E0ADD3C5FB66275D
S113014060F984E0A8D3C4FB662760F983E0A3D3F5
S113015061E082E0A0D38FEC97E00197F1F700C053
S1130160000060E082E097D38FEC97E00197F1F70D
S113017000C00000C3FB662760F986E08CD3C2FB95
S1130180662760F985E087D3C1FB662760F984E0C0
S113019082D36C2F617083E07ED361E082E07BD3F5
S11301A08FEC97E00197F1F700C0000060E082E077
S11301B072D38FEC97E00197F1F700C00000CF9164
S11301C00895CF93C82F61E081E065D36C2F661F3B
S11301D06627661F86E05FD3C6FB662760F985E065
S11301E05AD3C5FB662760F984E055D3C4FB662760
S11301F060F983E050D361E082E04DD38FEC97E067
S11302000197F1F700C0000060E082E044D38FEC76
S113021097E00197F1F700C00000C3FB662760F97F
S113022086E039D3C2FB662760F985E034D3C1FB8D
S1130230662760F984E02FD36C2F617083E02BD3A1
S113024061E082E028D38FEC97E00197F1F700C0DA
S1130250000060E082E01FD38FEC97E00197F1F794
S113026000C00000CF9108952FE788E391E021506A
S113027080409040E1F700C0000082E04FDF88E258
S11302804DDF8CE04BDF81E049DF8FEC97E0019795
S1130290F1F700C0000086E041CF93CF811102C086
S11302A080E803C0813019F480EC860F37CF0895BD
S11302B0CF93DF93FC012081222311F0EC0104C0D1
S11302C080E3DF91CF917DCF8991882359F079DF45
S11302D0FFEF20E782E0F15020408040E1F700C0CA
S11302E00000F2CFDF91CF9108954F925F926F9209
S11302F07F92AF92BF92CF92DF92EF92FF920F93D1
S11303001F93CF93DF93CDB7DEB764970FB6F894FE
S1130310DEBF0FBECDBF6B017C0161157105810588
S11303209105B1F480E364960FB6F894DEBF0FBE76
S1130330CDBFDF91CF911F910F91FF90EF90DF9090
S1130340CF90BF90AF907F906F905F904F9039CFD8
S113035097FF0AC08DE235DFF094E094D094C09406
S1130360C11CD11CE11CF11C10E09AE0492E512C57
S1130370612C712C01E0010FAA24A394B12CAC0EC2
S1130380BD1EA10EB11C17FDBA94C701B601A3018D
S1130390920182D5605DF501608369017A01C1141F
S11303A0D104E104F10411F0102FE4CFE1E0F0E016
S11303B0EC0FFD1FE00FF11D07FDFA95108217FDEC
S11303C00CC0E1E0F0E0EC0FFD1FE10FF11D17FDA3
S11303D0FA958081F6DE1150F2CF64960FB6F89448
S11303E0DEBF0FBECDBFDF91CF911F910F91FF9064
S11303F0EF90DF90CF90BF90AF907F906F905F9021
S11304004F90089581E08ADE8FEC97E00197F1F731
S113041000C00000089587E046C1CF93DF93CDB7B5
S1130420DEB728970FB6F894DEBF0FBECDBF47D115
S11304301BDF2CDE66E081E015D11D821E821F8247
S1130440188619821A821B821C827E0125E0E20E24
S1130450F11C00E010E04E2C3F2CC801C0D2F70183
S113046081937F010F5F1F4F04301105B1F7E12C19
S113047010E000E0F12C512C8AE0882E912C10DE43
S1130480D82EF4E58F1751F011110CC0BBDF63E0D7
S113049080E004DF80E990E00BDF04C0113009F054
S11304A046C043C0FDE3DF16F1F011E01E0DE1E0AC
S11304B0F0E0EC0FFD1FEE0DF11DD082612F81E005
S11304C0EDDE8D2DEADE2FEF80E792E021508040B3
S11304D09040E1F700C00000612F81E0DFDE8AE296
S11304E0DCDEE12E22C0BE016F5F7F4F842D932D91
S11304F04BD481110EC086DF8DE990E0D9DE60E037
S11305008EE1C9D160E08FE1C6D17CDFE12C00E04F
S11305100EC078DF89E990E0CBDE74DF63E080E031
S1130520BDDE80E990E0C4DEE12C11E0A8CF80E0DC
S1130530AED05C0170DF6C0121E0F2120FC001113A
S11305400DC06CE081E0AADE85EA90E0B1DEB50181
S113055080E090E0CADE88EA90E0AADE60E081E014
S11305609DDE8DEA90E0A4DEC601B4015FD43C01B7
S113057080E090E0BADE8EE290DEB30180E090E0AD
S1130580B4DEE4EFCE16E1E0DE06C8F4511012C08A
S1130590011131C067E080E081DE80EB90E088DE0D
S11305A061E088E078D160E089E075D160E08AE0BC
S11305B072D12FC0FDECCF16F1E0DF0608F1011176
S11305C028C067E080E06ADE85EB90E071DE60E0E1
S11305D088E061D161E089E05ED160E08AE05BD1CE
S11305E029EEA21623E0B20608F510E0FF24F394E6
S11305F05524539444CF8DECC81681E0D80648F4B2
S11306008CECC81681E0D80620F410E0F12C512CB3
S113061036CF91E0F91611F010E031CFE9EEAE16C5
S1130620E3E0BE06C8F30111F7CF02C0552453948A
S113063067E080E033DE8AEB90E03ADE60E08EE152
S11306402AD161E08FE127D160E088E024D160E025
S113065089E021D161E08AE01ED110E001E0FF24AD
S1130660F3940DCF813041F028F0823039F43E9A72
S11306703F9A04C03E9801C03E9A3F9886B1887F55
S113068086B986B16770682B66B9379A089597B1B1
S1130690907E97B997B1892B87B9369A3699FECF50
S11306A084B195B10895F3DF9C01A8E8B3E110D4B7
S11306B02FEF33E040E050E0CDD3C9010895EF922D
S11306C0FF921F93CF93DF93C0E6D0E048EF5FEF34
S11306D060EF7FEFA8EEBFEFE0E0F0E081E090E0B4
S11306E02991E830B0F5213019F198F0223009F061
S11306F0C2C01AB37C010E2E02C0EE0CFF1C0A9479
S1130700E2F797013E2D309531233ABB3BB3232BBF
S11307101EC01AB37C010E2E02C0EE0CFF1C0A94FC
S1130720E2F79701312F322B3ABB3BB320950EC031
S11307301AB37C010E2E02C0EE0CFF1C0A94E2F7E1
S113074097012095312F32233ABB3BB323232BBB94
S113075092C0483080F52130F9F088F0223009F059
S11307608AC017B39C01042E01C0220F0A94EAF731
S1130770322F3095312337BB38B3232B1AC017B32C
S11307809C01042E01C0220F0A94EAF7312F322B68
S113079037BB38B320950CC017B39C01042E01C09D
S11307A0220F0A94EAF72095312F322337BB38B34E
S11307B0232328BB60C0683080F52130F9F088F02D
S11307C0223009F058C014B39C01062E01C0220F38
S11307D00A94EAF7322F3095312334BB35B3232BF7
S11307E01AC014B39C01062E01C0220F0A94EAF722
S11307F0312F322B34BB35B320950CC014B39C017C
S1130800062E01C0220F0A94EAF72095312F3223D5
S113081034BB35B3232325BB2EC02130F1F080F047
S1130820223049F511B39C010A2E01C0220F0A940B
S1130830EAF7322F3095312331BB32B3232B1AC060
S113084011B39C010A2E01C0220F0A94EAF7312F3A
S1130850322B31BB32B320950CC011B39C010A2E4C
S113086001C0220F0A94EAF72095312F322331BBBD
S113087032B3232322BB319611966F5F7F4F4F5FB4
S11308805F4FE032F10509F02BCFDF91CF911F913B
S1130890FF90EF900895982F97708695869586958A
S11308A06130C1F5813091F028F08230D9F0833085
S11308B029F108954BB321E030E0B90102C0660F7D
S11308C0771F9A95E2F7CB01842B38C048B321E017
S11308D030E0B90102C0660F771F9A95E2F7CB01A9
S11308E0842B3AC045B321E030E0B90102C0660F61
S11308F0771F9A95E2F7CB01842B3CC042B321E0E9
S113090030E0B90102C0660F771F9A95E2F7CB0178
S1130910842B3EC08130A1F028F08230F9F083307E
S113092059F108954BB321E030E0B90102C0660FDC
S1130930771F9A95E2F7CB01809584238BBB0895AA
S113094048B321E030E0B90102C0660F771F9A95E1
S1130950E2F7CB018095842388BB089545B321E059
S113096030E0B90102C0660F771F9A95E2F7CB0118
S11309708095842385BB089542B321E030E0B9011A
S113098002C0660F771F9A95E2F7CB018095842306
S113099082BB0895282F2770869586958695813089
S11309A049F030F0823041F0833079F480B305C0EF
S11309B089B303C086B301C083B390E002C09595A8
S11309C087952A95E2F78170089580E00895E1996A
S11309D0FECF9FBB8EBB6DBBE29AE19A0895E1996D
S11309E0FECF9FBB8EBBE09A8DB308951F920F92EA
S11309F00FB60F9211242F933F934F935F936F93EE
S1130A007F938F939F93AF93BF93EF93FF93E09163
S1130A10C600F091C700309709F00995FF91EF9156
S1130A20BF91AF919F918F917F916F915F914F9102
S1130A303F912F910F900FBE0F901F9018957894AF
S1130A401F920F920FB60F9211242F933F934F933F
S1130A505F936F937F938F939F93AF93BF93EF9322
S1130A60FF93E091C400F091C500309709F0099517
S1130A70FF91EF91BF91AF919F918F917F916F9172
S1130A805F914F913F912F910F900FBE0F901F9048
S1130A9018951F920F920FB60F9211242F933F9324
S1130AA04F935F936F937F938F939F93AF93BF9372
S1130AB0EF93FF93E091C200F091C300309709F0E7
S1130AC00995FF91EF91BF91AF919F918F917F9184
S1130AD06F915F914F913F912F910F900FBE0F90A7
S1130AE01F9018951F920F920FB60F9211240F901A
S1130AF00FBE0F901F9018951F920F920FB60F9272
S1130B0011242F933F934F935F936F937F938F930E
S1130B109F93AF93BF93EF93FF93E091D200F09133
S1130B20D300309709F00995FF91EF91BF91AF91F0
S1130B309F918F917F916F915F914F913F912F91F1
S1130B400F900FBE0F901F9018951F920F920FB623
S1130B500F9211242F933F934F935F936F937F933F
S1130B608F939F93AF93BF93EF93FF93E091D00044
S1130B70F091D100309709F00995FF91EF91BF9161
S1130B80AF919F918F917F916F915F914F913F9121
S1130B902F910F900FBE0F901F9018951F920F92D8
S1130BA00FB60F9211242F933F934F935F936F933C
S1130BB07F938F939F93AF93BF93EF93FF93E091B2
S1130BC0CE00F091CF00309709F00995FF91EF9195
S1130BD0BF91AF919F918F917F916F915F914F9151
S1130BE03F912F910F900FBE0F901F9018951F9259
S1130BF00F920FB60F9211242F933F934F935F934D
S1130C006F937F938F939F93AF93BF93EF93FF93D0
S1130C10E091CC00F091CD00309709F00995FF9157
S1130C20EF91BF91AF919F918F917F916F915F9160
S1130C304F913F912F910F900FBE0F901F901895D9
S1130C401F920F920FB60F9211242F933F934F933D
S1130C505F936F937F938F939F93AF93BF93EF9320
S1130C60FF93E091CA00F091CB00309709F0099509
S1130C70FF91EF91BF91AF919F918F917F916F9170
S1130C805F914F913F912F910F900FBE0F901F9046
S1130C9018951F920F920FB60F9211242F933F9322
S1130CA04F935F936F937F938F939F93AF93BF9370
S1130CB0EF93FF93E091C800F091C900309709F0D9
S1130CC00995FF91EF91BF91AF919F918F917F9182
S1130CD06F915F914F913F912F910F900FBE0F90A5
S1130CE01F9018951F920F920FB60F9211242F93F5
S1130CF03F934F935F936F937F938F939F93AF93A0
S1130D00BF93EF93FF93E091D600F091D700309713
S1130D1009F00995FF91EF91BF91AF919F918F9148
S1130D207F916F915F914F913F912F910F900FBEE3
S1130D300F901F9018951F920F920FB60F921124C7
S1130D402F933F934F935F936F937F938F939F93CF
S1130D50AF93BF93EF93FF93E091D400F091D5004C
S1130D60309709F00995FF91EF91BF91AF919F9151
S1130D708F917F916F915F914F913F912F910F9040
S1130D800FBE0F901F901895FB019C012C5F3F4FE5
S1130D90DC015D91CD014191541305C0A217B30745
S1130DA0B9F780E0089581E008951F920F920FB67D
S1130DB00F9211242F933F934F935F936F937F93DD
S1130DC08F939F93AF93BF93EF93FF93E091D900D9
S1130DD0F091DA003097C9F08091D800E80FF11D46
S1130DE09081933211F4E39810C08F5F8093D80000
S1130DF060818091C0009091C1009C012F5F3F4FA2
S1130E003093C1002093C000E2DDFF91EF91BF91C8
S1130E10AF919F918F917F916F915F914F913F918E
S1130E202F910F900FBE0F901F901895AA1BBB1BFC
S1130E3051E107C0AA1FBB1FA617B70710F0A61BD6
S1130E40B70B881F991F5A95A9F780959095BC01F7
S1130E50CD010895A1E21A2EAA1BBB1BFD010DC0F2
S1130E60AA1FBB1FEE1FFF1FA217B307E407F50756
S1130E7020F0A21BB30BE40BF50B661F771F881F32
S1130E80991F1A9469F760957095809590959B01C8
S1130E90AC01BD01CF010895052E97FB16F4009413
S1130EA00FD057FD05D0D6DF07FC02D046F408C0AA
S1130EB050954095309521953F4F4F4F5F4F089582
S1130EC090958095709561957F4F8F4F9F4F0895B2
S1130ED0A29FB001B39FC001A39F700D811D112477
S1130EE0911DB29F700D811D1124911D0895F894D8
S1050EF0FFCF2E
S1130EF201000000000000010000000001000000E9
S1130F0200000000020202020100020200000000CE
S1130F1237383961343536623132336343303D64B4
S1130F2250617373776F7264004E4F5420436F7233
S1130F327265637400533A002020202000543A0062
S1130F4246696E6500486561740046697265000011
S9030000FC
