S01000004F6E6C696E6531332E737265634B
S113000029C00000C5C20000ECC2000014C30000F7
S11300103CC000003AC00000BCC3000068C300003C
S11300208FC300003BC3000030C000002EC000009E
S11300302BC3000006C4000028C00000D9C3000080
S113004024C0000027C4000020C000001EC000001F
S11300501CC0000011241FBECFE5D8E0DEBFCDBF19
S113006010E0A0E6B0E0E6E1F9E002C005900D92F0
S1130070AA3AB107D9F720E0AAEAB0E001C01D927C
S1130080A13CB207E1F7F1D044C4BACFCF93C82F53
S113009060E081E0EFD16C2F661F6627661F86E063
S11300A0E9D1C6FB662760F985E0E4D1C5FB662784
S11300B060F984E0DFD1C4FB662760F983E0DAD11C
S11300C061E082E0D7D18FEC97E00197F1F700C0AF
S11300D0000060E082E0CED18FEC97E00197F1F769
S11300E000C00000C3FB662760F986E0C3D1C2FBF1
S11300F0662760F985E0BED1C1FB662760F984E01C
S1130100B9D16C2F617083E0B5D161E082E0B2D1E6
S11301108FEC97E00197F1F700C0000060E082E007
S1130120A9D18FEC97E00197F1F700C00000CF91BF
S11301300895CF93C82F61E081E09CD16C2F661F96
S11301406627661F86E096D1C6FB662760F985E0C0
S113015091D1C5FB662760F984E08CD1C4FB662786
S113016060F983E087D161E082E084D18FEC97E08D
S11301700197F1F700C0000060E082E07BD18FECD2
S113018097E00197F1F700C00000C3FB662760F910
S113019086E070D1C2FB662760F985E06BD1C1FBB4
S11301A0662760F984E066D16C2F617083E062D1C8
S11301B061E082E05FD18FEC97E00197F1F700C036
S11301C0000060E082E056D18FEC97E00197F1F7F0
S11301D000C00000CF9108952FE788E391E02150FB
S11301E080409040E1F700C0000082E04FDF88E2E9
S11301F04DDF8CE04BDF81E049DF8FEC97E0019726
S1130200F1F700C0000086E041CF811102C080E810
S113021003C0813019F480EC860F38CF0895CF9352
S1130220DF93FC012081222311F0EC0104C080E360
S1130230DF91CF917ECF8991882359F07ADFFFEF48
S113024020E782E0F15020408040E1F700C0000048
S1130250F2CFDF91CF91089581E018DF8FEC97E022
S11302600197F1F700C00000089518D0B5DFBAD2A5
S113027080E890E0D4DF60E081E0C7DF80E090E0D8
S113028080D1811104C086E890E0C9DF04C085E90B
S113029090E0C5DFE1DF80E090E00895EF92FF9207
S11302A01F93CF93DF93C0E6D0E048EF5FEF60EF9A
S11302B07FEFA8EEBFEFE0E0F0E081E090E029916D
S11302C0E830B0F5213019F198F0223009F0C2C0BD
S11302D01AB37C010E2E02C0EE0CFF1C0A94E2F746
S11302E097013E2D309531233ABB3BB3232B1EC0DF
S11302F01AB37C010E2E02C0EE0CFF1C0A94E2F726
S11303009701312F322B3ABB3BB320950EC01AB361
S11303107C010E2E02C0EE0CFF1C0A94E2F797013A
S11303202095312F32233ABB3BB323232BBB92C0FE
S1130330483080F52130F9F088F0223009F08AC085
S113034017B39C01042E01C0220F0A94EAF7322F3E
S11303503095312337BB38B3232B1AC017B39C0114
S1130360042E01C0220F0A94EAF7312F322B37BB37
S113037038B320950CC017B39C01042E01C0220F82
S11303800A94EAF72095312F322337BB38B323235D
S113039028BB60C0683080F52130F9F088F0223045
S11303A009F058C014B39C01062E01C0220F0A9410
S11303B0EAF7322F3095312334BB35B3232B1AC0DF
S11303C014B39C01062E01C0220F0A94EAF7312FC0
S11303D0322B34BB35B320950CC014B39C01062ECC
S11303E001C0220F0A94EAF72095312F322334BB3F
S11303F035B3232325BB2EC02130F1F080F0223009
S113040049F511B39C010A2E01C0220F0A94EAF7A0
S1130410322F3095312331BB32B3232B1AC011B3A1
S11304209C010A2E01C0220F0A94EAF7312F322BC5
S113043031BB32B320950CC011B39C010A2E01C00C
S1130440220F0A94EAF72095312F322331BB32B3BD
S1130450232322BB319611966F5F7F4F4F5F5F4F0F
S1130460E032F10509F02BCFDF91CF911F91FF907E
S1130470EF900895982F97708695869586956130AC
S1130480C1F5813091F028F08230D9F0833029F120
S113049008954BB321E030E0B90102C0660F771F25
S11304A09A95E2F7CB01842B38C048B321E030E0C1
S11304B0B90102C0660F771F9A95E2F7CB01842B2E
S11304C03AC045B321E030E0B90102C0660F771F9E
S11304D09A95E2F7CB01842B3CC042B321E030E093
S11304E0B90102C0660F771F9A95E2F7CB01842BFE
S11304F03EC08130A1F028F08230F9F0833059F108
S113050008954BB321E030E0B90102C0660F771FB4
S11305109A95E2F7CB01809584238BBB089548B369
S113052021E030E0B90102C0660F771F9A95E2F727
S1130530CB018095842388BB089545B321E030E046
S1130540B90102C0660F771F9A95E2F7CB01809537
S1130550842385BB089542B321E030E0B90102C091
S1130560660F771F9A95E2F7CB018095842382BBAF
S11305700895E199FECF9FBB8EBB6DBBE29AE19AD1
S11305800895E199FECF9FBB8EBBE09A8DB3089589
S11305901F920F920FB60F9211242F933F934F93F4
S11305A05F936F937F938F939F93AF93BF93EF93D7
S11305B0FF93E091B000F091B100309709F00995F4
S11305C0FF91EF91BF91AF919F918F917F916F9127
S11305D05F914F913F912F910F900FBE0F901F90FD
S11305E0189578941F920F920FB60F9211242F939F
S11305F03F934F935F936F937F938F939F93AF93A7
S1130600BF93EF93FF93E091AE00F091AF0030976A
S113061009F00995FF91EF91BF91AF919F918F914F
S11306207F916F915F914F913F912F910F900FBEEA
S11306300F901F9018951F920F920FB60F921124CE
S11306402F933F934F935F936F937F938F939F93D6
S1130650AF93BF93EF93FF93E091AC00F091AD00A3
S1130660309709F00995FF91EF91BF91AF919F9158
S11306708F917F916F915F914F913F912F910F9047
S11306800FBE0F901F9018951F920F920FB60F92E6
S113069011240F900FBE0F901F9018951F920F9268
S11306A00FB60F9211242F933F934F935F936F9341
S11306B07F938F939F93AF93BF93EF93FF93E091B7
S11306C0B800F091B900309709F00995FF91EF91C6
S11306D0BF91AF919F918F917F916F915F914F9156
S11306E03F912F910F900FBE0F901F9018951F925E
S11306F00F920FB60F9211242F933F934F935F9352
S11307006F937F938F939F93AF93BF93EF93FF93D5
S1130710E091B600F091B700309709F00995FF9188
S1130720EF91BF91AF919F918F917F916F915F9165
S11307304F913F912F910F900FBE0F901F901895DE
S11307401F920F920FB60F9211242F933F934F9342
S11307505F936F937F938F939F93AF93BF93EF9325
S1130760FF93E091B400F091B500309709F009953A
S1130770FF91EF91BF91AF919F918F917F916F9175
S11307805F914F913F912F910F900FBE0F901F904B
S113079018951F920F920FB60F9211242F933F9327
S11307A04F935F936F937F938F939F93AF93BF9375
S11307B0EF93FF93E091B200F091B300309709F00A
S11307C00995FF91EF91BF91AF919F918F917F9187
S11307D06F915F914F913F912F910F900FBE0F90AA
S11307E01F90189583E389B95998539A549A089598
S11307F01F920F920FB60F9211242F933F934F9392
S11308005F936F937F938F939F93AF93BF93EF9374
S1130810FF93E091BC00F091BD00309709F0099579
S1130820FF91EF91BF91AF919F918F917F916F91C4
S11308305F914F913F912F910F900FBE0F901F909A
S113084018951F920F920FB60F9211242F933F9376
S11308504F935F936F937F938F939F93AF93BF93C4
S1130860EF93FF93E091BA00F091BB00309709F049
S11308700995FF91EF91BF91AF919F918F917F91D6
S11308806F915F914F913F912F910F900FBE0F90F9
S11308901F9018951F920F920FB60F9211242F9349
S11308A03F934F935F936F937F938F939F93AF93F4
S11308B0BF93EF93FF938091BE00E091BF00F0914E
S11308C0C000E80FF11D9081933211F4E39810C039
S11308D08F5F8093BE0060818091AA009091AB00ED
S11308E09C012F5F3F4F3093AB002093AA0041DE61
S11308F0FF91EF91BF91AF919F918F917F916F91F4
S11309005F914F913F912F910F900FBE0F901F90C9
S10909101895F894FFCFD6
S113091600000000000000000000000000000000CD
S113092600000000000000000100020200000202B4
S113093648656C6C6F007365742061207061737315
S1130946776F726400656E746572207468652070D2
S10D0956617373776F726420000070
S9030000FC
