:1000000029C00000F5C300001CC4000044C4000067
:100010003CC000003AC0000031C50000DDC4000053
:1000200004C50000B0C4000030C000002EC00000B5
:100030005BC4000095C5000028C0000068C5000032
:1000400024C0000022C0000020C000001EC000002C
:100050001CC0000011241FBECFE5D8E0DEBFCDBF1D
:1000600010E0A0E6B0E0E4EBFDE002C005900D92E8
:10007000A838B107D9F726E0A8E8B0E001C01D9282
:10008000A538B207E1F7CAD193C6BACFCF93DF93B1
:10009000C0918800D0E025D5C557DF4F8883809177
:1000A000890090918A00019690938A00809389003C
:1000B000809188008F5F8093880080918900909163
:1000C0008A008930974090F080E090E0FC01E5578D
:1000D000FF4F2081FC01ED58FB4F20830196843FA8
:1000E00021E0920799F7DF91CF9101C5DF91CF9180
:1000F000089586E490E006D5F8D480918900909127
:100100008A008830974070F460E081E0D3D060913D
:10011000890070918A0080E090E0F3D081E890E05F
:10012000D3D0EBCF10928A0010928900089586E414
:1001300090E0E8D4DAC4CF93C82F60E081E0A2D287
:100140006C2F661F6627661F86E09CD2C6FB66275B
:1001500060F985E097D2C5FB662760F984E092D20A
:10016000C4FB662760F983E08DD261E082E08AD229
:100170008FEC97E00197F1F700C0000060E082E0AB
:1001800081D28FEC97E00197F1F700C00000C3FB2C
:10019000662760F986E076D2C2FB662760F985E0C3
:1001A00071D2C1FB662760F984E06CD26C2F61705C
:1001B00083E068D261E082E065D28FEC97E001973E
:1001C000F1F700C0000060E082E05CD28FEC97E0C5
:1001D0000197F1F700C00000CF910895CF93C82F89
:1001E00061E081E04FD26C2F661F6627661F86E0B4
:1001F00049D2C6FB662760F985E044D2C5FB662775
:1002000060F984E03FD2C4FB662760F983E03AD20C
:1002100061E082E037D28FEC97E00197F1F700C000
:10022000000060E082E02ED28FEC97E00197F1F7BA
:1002300000C00000C3FB662760F986E023D2C2FB42
:10024000662760F985E01ED2C1FB662760F984E06D
:1002500019D26C2F617083E015D261E082E012D276
:100260008FEC97E00197F1F700C0000060E082E0BA
:1002700009D28FEC97E00197F1F700C00000CF9111
:1002800008952FE788E391E0215080409040E1F706
:1002900000C0000082E04FDF88E24DDF8CE04BDFE2
:1002A00081E049DF8FEC97E00197F1F700C0000093
:1002B00086E041CF811102C080E803C0813019F48B
:1002C00080EC860F38CF0895CF93DF93FC01208117
:1002D000222311F0EC0104C080E3DF91CF917ECFA7
:1002E0008991882359F07ADFFFEF20E782E0F1500F
:1002F00020408040E1F700C00000F2CFDF91CF91B5
:1003000008954F925F926F927F92AF92BF92CF9279
:10031000DF92EF92FF920F931F93CF93DF93CDB7AE
:10032000DEB764970FB6F894DEBF0FBECDBF6B018A
:100330007C016115710581059105B1F480E3649636
:100340000FB6F894DEBF0FBECDBFDF91CF911F91E6
:100350000F91FF90EF90DF90CF90BF90AF907F9084
:100360006F905F904F903ACF97FF0AC08DE236DFD3
:10037000F094E094D094C094C11CD11CE11CF11CF9
:1003800010E09AE0492E512C612C712C01E0010FF4
:10039000AA24A394B12CAC0EBD1EA10EB11C17FD56
:1003A000BA94C701B601A3019201E6D4605DF501DC
:1003B000608369017A01C114D104E104F10411F0F0
:1003C000102FE4CFE1E0F0E0EC0FFD1FE00FF11D96
:1003D00007FDFA95108217FD0CC0E1E0F0E0EC0F8C
:1003E000FD1FE10FF11D17FDFA958081F7DE115019
:1003F000F2CF64960FB6F894DEBF0FBECDBFDF918B
:10040000CF911F910F91FF90EF90DF90CF90BF9011
:10041000AF907F906F905F904F900895CF93DF9350
:10042000CDB7DEB7C456D1090FB6F894DEBF0FBE04
:10043000CDBF3CD026DF4BD378945BDE82E37E01D8
:1004400023E3E20EF11CF701282F11922A95E9F718
:10045000FE0131966F0111928A95E9F767E970E024
:1004600085E090E015D410E0B601C701A4D3C60121
:1004700052D4FFEF20E732E0F15020403040E1F766
:1004800000C00000C70147D46AE081E013DF01E04B
:10049000010F612F70E080E090E033DF0A3009F453
:1004A00000E082E890E010DF102FDECFEF92FF92A5
:1004B0001F93CF93DF93C1E6D0E048EF5FEF60EF8B
:1004C0007FEFA8EEBFEFE0E0F0E081E090E029915F
:1004D000E830B0F5213019F198F0223009F0C2C0AF
:1004E0001AB37C010E2E02C0EE0CFF1C0A94E2F738
:1004F00097013E2D309531233ABB3BB3232B1EC0D1
:100500001AB37C010E2E02C0EE0CFF1C0A94E2F717
:100510009701312F322B3ABB3BB320950EC01AB353
:100520007C010E2E02C0EE0CFF1C0A94E2F797012C
:100530002095312F32233ABB3BB323232BBB92C0F0
:10054000483080F52130F9F088F0223009F08AC077
:1005500017B39C01042E01C0220F0A94EAF7322F30
:100560003095312337BB38B3232B1AC017B39C0106
:10057000042E01C0220F0A94EAF7312F322B37BB29
:1005800038B320950CC017B39C01042E01C0220F74
:100590000A94EAF72095312F322337BB38B323234F
:1005A00028BB60C0683080F52130F9F088F0223037
:1005B00009F058C014B39C01062E01C0220F0A9402
:1005C000EAF7322F3095312334BB35B3232B1AC0D1
:1005D00014B39C01062E01C0220F0A94EAF7312FB2
:1005E000322B34BB35B320950CC014B39C01062EBE
:1005F00001C0220F0A94EAF72095312F322334BB31
:1006000035B3232325BB2EC02130F1F080F02230FA
:1006100049F511B39C010A2E01C0220F0A94EAF792
:10062000322F3095312331BB32B3232B1AC011B393
:100630009C010A2E01C0220F0A94EAF7312F322BB7
:1006400031BB32B320950CC011B39C010A2E01C0FE
:10065000220F0A94EAF72095312F322331BB32B3AF
:10066000232322BB319611966F5F7F4F4F5F5F4F01
:10067000E032F10509F02BCFDF91CF911F91FF9070
:10068000EF900895982F977086958695869561309E
:10069000C1F5813091F028F08230D9F0833029F112
:1006A00008954BB321E030E0B90102C0660F771F17
:1006B0009A95E2F7CB01842B38C048B321E030E0B3
:1006C000B90102C0660F771F9A95E2F7CB01842B20
:1006D0003AC045B321E030E0B90102C0660F771F90
:1006E0009A95E2F7CB01842B3CC042B321E030E085
:1006F000B90102C0660F771F9A95E2F7CB01842BF0
:100700003EC08130A1F028F08230F9F0833059F1F9
:1007100008954BB321E030E0B90102C0660F771FA6
:100720009A95E2F7CB01809584238BBB089548B35B
:1007300021E030E0B90102C0660F771F9A95E2F719
:10074000CB018095842388BB089545B321E030E038
:10075000B90102C0660F771F9A95E2F7CB01809529
:10076000842385BB089542B321E030E0B90102C083
:10077000660F771F9A95E2F7CB018095842382BBA1
:100780000895282F2770883050F43BB381E090E023
:1007900001C0880F2A95EAF783278BBB089598EF4D
:1007A000980F983050F438B381E090E001C0880F82
:1007B0002A95EAF7832788BB089590EF980F983021
:1007C00050F435B381E090E001C0880F2A95EAF734
:1007D000832785BB08958851883048F432B381E07F
:1007E00090E001C0880F2A95EAF7832782BB08951D
:1007F0001F920F920FB60F9211242F933F934F9396
:100800005F936F937F938F939F93AF93BF93EF9378
:10081000FF93E0916B06F0916C06309709F0099513
:10082000FF91EF91BF91AF919F918F917F916F91C8
:100830005F914F913F912F910F900FBE0F901F909E
:10084000189578941F920F920FB60F9211242F9340
:100850003F934F935F936F937F938F939F93AF9348
:10086000BF93EF93FF93E0916906F0916A0630978A
:1008700009F00995FF91EF91BF91AF919F918F91F1
:100880007F916F915F914F913F912F910F900FBE8C
:100890000F901F9018951F920F920FB60F92112470
:1008A0002F933F934F935F936F937F938F939F9378
:1008B000AF93BF93EF93FF93E0916706F0916806C3
:1008C000309709F00995FF91EF91BF91AF919F91FA
:1008D0008F917F916F915F914F913F912F910F90E9
:1008E0000FBE0F901F9018951F920F920FB60F9288
:1008F00011240F900FBE0F901F9018958230D9F0E1
:1009000050F4882379F0813071F58FB58E7F8FBDDB
:100910008FB58D7F21C08330D1F0843021F58FB524
:10092000816017C08FB58E7F8FBD8FB58D7F8FBDD6
:100930008EB5877F08C08FB58E7F8FBD8FB58D7FB9
:100940008FBD8EB588608EBD8EB58F7E0BC08FB586
:100950008E7F8FBD8FB582608FBD8EB588608EBD56
:100960008EB580618EBD8EB5887F8EBD8EB5682BAD
:100970006EBD089589B7806189BF0895909372060E
:100980008093710608951F920F920FB60F92112453
:100990002F933F934F935F936F937F938F939F9387
:1009A000AF93BF93EF93FF93E0917306F0917406BA
:1009B000309709F00995FF91EF91BF91AF919F9109
:1009C0008F917F916F915F914F913F912F910F90F8
:1009D0000FBE0F901F9018951F920F920FB60F9297
:1009E00011242F933F934F935F936F937F938F9334
:1009F0009F93AF93BF93EF93FF93E0917106F091B4
:100A00007206309709F00995FF91EF91BF91AF9170
:100A10009F918F917F916F915F914F913F912F9116
:100A20000F900FBE0F901F9018951F920F920FB648
:100A30000F9211242F933F934F935F936F937F9364
:100A40008F939F93AF93BF93EF93FF93E0916F06C4
:100A5000F0917006309709F00995FF91EF91BF91E1
:100A6000AF919F918F917F916F915F914F913F9146
:100A70002F910F900FBE0F901F9018951F920F92FD
:100A80000FB60F9211242F933F934F935F936F9361
:100A90007F938F939F93AF93BF93EF93FF93E091D7
:100AA0006D06F0916E06309709F00995FF91EF9170
:100AB000BF91AF919F918F917F916F915F914F9176
:100AC0003F912F910F900FBE0F901F90189583E3C9
:100AD00089B95998539A549A08955D9BFECF8CB961
:100AE00008958CB108958CB90895579A0895579830
:100AF0000895569A0895569808959093780680938D
:100B000077060895909376068093750608951F9250
:100B10000F920FB60F9211242F933F934F935F9331
:100B20006F937F938F939F93AF93BF93EF93FF93B5
:100B3000E0917706F0917806309709F00995FF91DA
:100B4000EF91BF91AF919F918F917F916F915F9145
:100B50004F913F912F910F900FBE0F901F901895BE
:100B60001F920F920FB60F9211242F933F934F9322
:100B70005F936F937F938F939F93AF93BF93EF9305
:100B8000FF9380E1FEDDE0917506F09176063097E7
:100B900009F00995FF91EF91BF91AF919F918F91CE
:100BA0007F916F915F914F913F912F910F900FBE69
:100BB0000F901F901895CF93E3E7F4E020E030E02A
:100BC0004191473489F44081403571F44181423587
:100BD00059F442814D3441F44381433429F4F901FD
:100BE0007396215E3F4F0AC02F5F3F4F2F3E41E07B
:100BF000340731F720E030E0E0E0F0E0ED58FB4F63
:100C0000DC01AC01475F5F4FC191CD93A417B507DD
:100C1000D9F7FC011186F901ED58FB4FDB01CB013F
:100C2000099621912D938A179B07D9F7FB0111860D
:100C3000CF9108958091790690917A06A0917B06D4
:100C4000B0917C060196A11DB11D80937906909309
:100C50007A06A0937B06B0937C0640917F06509164
:100C60008006609181067091820684179507A60719
:100C7000B70769F41092790610927A0610927B06F3
:100C800010927C06E0917D06F0917E06099408950D
:100C90000F931F93CF93DF938C01EB0162E082E00F
:100CA0002DDE87EE93E09BBD8ABD28EE33E0029FE8
:100CB000C001039F900D129F900D1124A0E0B0E0A1
:100CC00080937F0690938006A0938106B09382065E
:100CD000D0937E06C0937D068AE196E04FDEDF91D9
:100CE000CF911F910F9146CE80916000E0918306D5
:100CF000F0918406E80FF11D8081811104C081E02C
:100D000080936000F8CE8081EEDE809160008F5F7E
:100D1000809360000895CF93DF93EC018881DDDE3E
:100D2000D0938406C093830684E796E0E6DEDF91E5
:100D3000CF91DFCEA1E21A2EAA1BBB1BFD010DC075
:100D4000AA1FBB1FEE1FFF1FA217B307E407F5077B
:100D500020F0A21BB30BE40BF50B661F771F881F57
:100D6000991F1A9469F760957095809590959B01ED
:100D7000AC01BD01CF010895052E97FB16F4009438
:100D80000FD057FD05D0D6DF07FC02D046F408C0CF
:100D900050954095309521953F4F4F4F5F4F0895A7
:100DA00090958095709561957F4F8F4F9F4F0895D7
:040DB000F894FFCFE5
:100DB400010100000000000001000000000000002C
:100DC4000000000000020202020100020200000210
:080DD400002020202020000077
:00000001FF
