:100000000C942A000C9447000C9447000C94470071
:100010000C9447000C9447000C9447000C944C1926
:100020000C9447000C9447000C9447000C94470034
:100030000C9447000C94CF120C9447000C94A61219
:100040000C9447000C9447000C9447000C94470014
:100050000C94470011241FBECFE5D8E0DEBFCDBF12
:1000600011E0A0E6B0E0E0E2F5E402C005900D92F8
:10007000A838B107D9F716E0A8E8B1E001C01D9291
:10008000A731B107E1F70E94AA210C948E220C94AB
:100090000000A2E7B0E0EFE4F0E00C943822982EE4
:1000A000892E712E88E0FE013196DF01682E1D92A7
:1000B0006A94E9F729833A834B835C836D837E835B
:1000C0009F829887FE013996DF011D928A95E9F794
:1000D000A986BA86CB86DC86ED86FE860F87188BCE
:1000E0008D819E81AF81B885B7FD07C0E1961CAEBA
:1000F0001DAE1EAE1FAEE19764C0219581E01216C1
:1001000008F080E0319591E0131608F090E0B32FED
:10011000B81B81E03B1708F080E0982B419531E057
:10012000141608F030E0A42FA91B81E04A1708F04C
:1001300080E0382B519591E0151608F090E0F52FEE
:10014000F31B81E05F1708F080E0982B619531E0A8
:10015000161608F030E0E62FE91B81E06E1708F074
:1001600080E0382B719541E0171608F040E0572FDA
:10017000531B81E0751708F080E0482B892D81958D
:1001800091E0181608F090E0682E641A462D31E0D0
:10019000861508F030E0932B882D8195891B2983E3
:1001A000BA83AB83FC83ED835E834F8388872FEF15
:1001B0003FEF4FEF5FEFE1962CAF3DAF4EAF5FAF3C
:1001C000E1978D859E85AF85B889B7FF6AC0E196B6
:1001D0004CAD5DAD6EAD7FADE197409550956095AE
:1001E0007095E1964CAF5DAF6EAF7FAFE197A19494
:1001F00081E01A1408F080E0B19491E01B1408F03B
:1002000090E06B2D681B81E0B61608F080E0982B1B
:10021000C19421E01C1408F020E05C2D591B81E002
:10022000C51608F080E0282BD19491E01D1408F049
:1002300090E04D2D421B81E0D41608F080E0982B11
:10024000E19421E01E1408F020E03E2D391B81E0EE
:10025000E31608F080E0282BF19491E01F1408F0D9
:1002600090E07F2D721B272F81E0F71608F080E0C9
:10027000982B019511E0101608F010E0802F891BD3
:10028000982F81E0091708F080E0182B872D8195C1
:10029000811BA9866A875B874C873D872E879F874E
:1002A000888B99812A813B814C815D816E817F8120
:1002B000A885B9851A850B85FC84ED84DE84CF84FE
:1002C000B88888E0E1E18E2E912C8C0E9D1EF40101
:1002D000682E11926A94E9F7998B2A8B3B8B4C8B91
:1002E0005D8B6E8B7F8BA88F9E01275E3F4FF90140
:1002F00011928A95E9F7B98F1A8F0B8FFC8EED8ECC
:10030000DE8ECF8EB8A2298C3A8C4B8C5C8CED8C17
:10031000FE8C0F8D18A169887A888B889C8821961D
:100320006CAE7DAE8EAE9FAE21976D887E888F8835
:10033000988CE114F1040105110509F0D9C3621488
:1003400073048404950408F057C100E0201600E00F
:10035000300601E0400600E0500688F41FEF211649
:1003600031044104510439F030F048E0E42EF12C1E
:10037000012D112D18C0EE24FF24870114C020E0A8
:10038000221620E0320620E0420621E0520630F03C
:1003900038E1E32EF12C012D112D05C020E1E22ED4
:1003A000F12C012D112DD201C1010E2C04C0B695E6
:1003B000A795979587950A94D2F78B599F4FDC01A3
:1003C0002C9180E290E0A0E0B0E08E199F09A00B94
:1003D000B10B7C018D01E21AF10801091109E11448
:1003E000F10401051105D1F10E2C04C0220C331CBF
:1003F000441C551C0A94D2F7A40193010E2C04C08E
:10040000220F331F441F551F0A94D2F780E290E059
:100410008E199F0921966CAC7DAC8EAC9FAC219758
:1004200004C096948794779467948A95D2F7622A49
:10043000732A842A952A2196ACACBDACCEACDFAC35
:10044000219704C0AA0CBB1CCC1CDD1CEA94D2F77B
:100450002196ACAEBDAECEAEDFAE21976201EE24EA
:10046000FF242996CCAEDDAEEEAEFFAE2997920109
:100470008101207030702D960CAF1DAF2EAF3FAFB5
:100480002D97C401B301A70196010E9416227B019A
:100490008C01C401B30129962CAD3DAD4EAD5FADCD
:1004A00029970E941622C901DA013C014D01C401BD
:1004B000B3012D962CAD3DAD4EAD5FAD2D970E9495
:1004C000F7219B01AC018701FF24EE242196ACACFF
:1004D000BDACCEACDFAC2197C601AA27BB27570124
:1004E0006801A82AB92ACA2ADB2AA216B306C406BA
:1004F000D506E0F408946108710881089108A20CFF
:10050000B31CC41CD51CA214B304C404D50470F0DD
:10051000A216B306C406D50648F40894610871080B
:1005200081089108A20CB31CC41CD51CA21AB30AE2
:10053000C40AD50AC601B50129962CAD3DAD4EAD14
:100540005FAD29970E9416227B018C01C601B5017F
:1005500029962CAD3DAD4EAD5FAD29970E94162278
:10056000C901DA015C016D01C601B5012D962CAD02
:100570003DAD4EAD5FAD2D970E94F7219B01AC01C3
:100580008701FF24EE2421968CAD9DADAEADBFADAD
:100590002197A070B070E82AF92A0A2B1B2BE216CB
:1005A000F30604071507C0F40894A108B108C108B0
:1005B000D108E20CF31C041D151DE214F30404051C
:1005C000150550F0E216F3060407150728F4089401
:1005D000A108B108C108D108D3019927882786014D
:1005E0007501E82AF92A0A2B1B2B2596ECAEFDAEE5
:1005F0000EAF1FAF2597EBC4211431044104510401
:1006000071F461E070E080E090E020E030E040E0F4
:1006100050E00E941622C901DA011C012D0100E000
:10062000201600E0300601E0400600E0500688F4A5
:100630001FEF211631044104510431F028F048E045
:1006400050E060E070E017C040E050E060E070E033
:1006500012C020E0221620E0320620E0420621E00F
:10066000520628F048E150E060E070E004C040E14C
:1006700050E060E070E0D201C101042E04C0B695E4
:10068000A795979587950A94D2F78B599F4FDC01D0
:100690002C91E0E2EE2EF12C012D112DD801C70195
:1006A000841B950BA60BB70B821B9109A109B109FD
:1006B0000097A105B10561F464015301A218B308C4
:1006C000C408D50831E0632E712C812C912C24C1F3
:1006D000E3968FAFE397082E04C0220C331C441C12
:1006E000551C0A94D2F7EE2DE81B640153010E2E1F
:1006F00004C0D694C794B794A7940A94D2F7A401DF
:100700009301E3960FACE39704C0220F331F441FFD
:10071000551F0A94D2F721966CAC7DAC8EAC9FAC81
:1007200021970E2E04C096948794779467940A9428
:10073000D2F784017301E22AF32A042B152BE9AEC8
:10074000FAAE0BAF1CAF32018824992492018101CB
:100750002070307061960CAF1DAF2EAF3FAF619728
:10076000C601B501A40193010E9416227B018C01F0
:10077000C601B501A40193010E941622C901DA0144
:1007800065968CAF9DAFAEAFBFAF6597BC01CD0195
:1007900061962CAD3DAD4EAD5FAD61970E94F721E6
:1007A0009B01AC018701FF24EE24A9ACBAACCBAC11
:1007B000DCACC601AA27BB275C016D01AE28BF28AF
:1007C000C02AD12AA216B306C406D50660F56596DE
:1007D0006CAD7DAD8EAD9FAD659761507040804032
:1007E000904065966CAF7DAF8EAF9FAF6597A20CC2
:1007F000B31CC41CD51CA214B304C404D50498F0C3
:10080000A216B306C406D50670F46150704080404D
:10081000904065966CAF7DAF8EAF9FAF6597A20C91
:10082000B31CC41CD51CA21AB30AC40AD50AC6013B
:10083000B501A40193010E9416227B018C01C6011F
:10084000B501A40193010E941622C901DA013C01FD
:100850004D01C401B30161962CAD3DAD4EAD5FAD10
:1008600061970E94F7219B01AC018701FF24EE24D0
:1008700089AD9AADABADBCADA070B0705701680149
:10088000A82AB92ACA2ADB2AA216B306C406D506A4
:10089000E0F408946108710881089108A20CB31C67
:1008A000C41CD51CA214B304C404D50470F0A21651
:1008B000B306C406D50648F4089461087108810897
:1008C0009108A20CB31CC41CD51C21968CAD9DAD07
:1008D000AEADBFAD2197E3960FACE39704C0880F90
:1008E000991FAA1FBB1F0A94D2F721968CAF9DAF08
:1008F000AEAFBFAF2197A21AB30AC40AD50A659654
:10090000ECACFDAC0EAD1FAD6597D70199278827DC
:10091000682A792A8A2A9B2A820122273327699604
:100920000CAF1DAF2EAF3FAF6997A2019101407090
:1009300050706D962CAF3DAF4EAF5FAF6D97C60157
:10094000B50169962CAD3DAD4EAD5FAD69970E9486
:1009500016227B018C01C601B50169962CAD3DAD17
:100960004EAD5FAD69970E941622C901DA01A196CA
:100970008CAF9DAFAEAFBFAFA197BC01CD016D965F
:100980002CAD3DAD4EAD5FAD6D970E94F7219B0143
:10099000AC018701FF24EE242196ACACBDACCEACFB
:1009A000DFAC2197C601AA27BB2757016801A82AF7
:1009B000B92ACA2ADB2AA216B306C406D50660F5F0
:1009C000A1966CAD7DAD8EAD9FADA197615070408D
:1009D00080409040A1966CAF7DAF8EAF9FAFA19746
:1009E000A20CB31CC41CD51CA214B304C404D504AB
:1009F00098F0A216B306C406D50670F46150704094
:100A000080409040A1966CAF7DAF8EAF9FAFA19715
:100A1000A20CB31CC41CD51CA21AB30AC40AD50A62
:100A2000C601B50169962CAD3DAD4EAD5FAD699780
:100A30000E9416227B018C01C601B50169962CAD7E
:100A40003DAD4EAD5FAD69970E941622C901DA0136
:100A50005C016D01C601B5016D962CAD3DAD4EAD8D
:100A60005FAD6D970E94F7219B01AC018701FF24C8
:100A7000EE2421968CAD9DADAEADBFAD2197A0709B
:100A8000B070E82AF92A0A2B1B2BE216F30604079A
:100A90001507C0F40894A108B108C108D108E20CF8
:100AA000F31C041D151DE214F3040405150550F094
:100AB000E216F3060407150728F40894A108B10804
:100AC000C108D108A196ECACFDAC0EAD1FADA1974D
:100AD000D7019927882796018501082B192B2A2BE6
:100AE0003B2B25960CAF1DAF2EAF3FAF259772C2A3
:100AF0006E147F048006910608F45FC220E0E216BF
:100B000020E0F20621E0020720E0120788F43FEF20
:100B1000E316F1040105110531F028F048E050E03A
:100B200060E070E017C040E050E060E070E012C0AC
:100B300040E0E41640E0F40640E0040741E014071A
:100B400028F048E150E060E070E004C040E150E08F
:100B500060E070E0D801C701042E04C0B695A795E7
:100B6000979587950A94D2F78B599F4FDC012C916A
:100B700030E2A32EB12CC12CD12CD601C501841B8F
:100B8000950BA60BB70B821B9109A109B109009720
:100B9000A105B10599F4E614F7040805190508F450
:100BA000FEC121966CAC7DAC8EAC9FAC21976214DB
:100BB00073048404950408F0F2C1FFC1E2968FAF7C
:100BC000E297082E04C0EE0CFF1C001F111F0A94B0
:100BD000D2F76A2D681BD201C101062E04C0B6955A
:100BE000A795979587950A94D2F75C016D01AE2879
:100BF000BF28C02AD12AADAABEAACFAAD8AE7201F8
:100C00006101E2960FACE29704C0CC0CDD1CEE1C37
:100C1000FF1C0A94D2F7C9AADAAAEBAAFCAA6401BB
:100C20005301062E04C0D694C794B794A7940A948F
:100C3000D2F7D401C301E2960FACE29704C0880F4B
:100C4000991FAA1FBB1F0A94D2F72196ECACFDACEA
:100C50000EAD1FAD219704C016950795F794E79444
:100C60006A95D2F737014801682A792A8A2A9B2A8D
:100C70006DA67EA68FA698AAEDA8FEA80FA918AD0E
:100C80003801882499249801870120703070A59636
:100C90000CAF1DAF2EAF3FAFA597C601B501A401A4
:100CA00093010E9416227B018C01C601B501A401AB
:100CB00093010E941622C901DA011C012D01C20113
:100CC000B101A5962CAD3DAD4EAD5FADA5970E948F
:100CD000F7219B01AC018701FF24EE24ADA4BEA443
:100CE000CFA4D8A8C601AA27BB2757016801A82A04
:100CF000B92ACA2ADB2AA216B306C406D50600F50D
:100D000008942108310841085108EDA8FEA80FA950
:100D100018ADAE0CBF1CC01ED11EAE14BF04C00661
:100D2000D10670F0A216B306C406D50648F408949E
:100D30002108310841085108AE0CBF1CC01ED11E4D
:100D4000A21AB30AC40AD50AC601B501A4019301C7
:100D50000E9416227B018C01C601B501A4019301FA
:100D60000E941622C901DA013C014D01C401B30100
:100D7000A5962CAD3DAD4EAD5FADA5970E94F72178
:100D80009B01AC018701FF24EE248DA59EA5AFA594
:100D9000B8A9A070B07057016801A82AB92ACA2A58
:100DA000DB2AA216B306C406D50600F5089461082E
:100DB0007108810891086DA97EA98FA998ADA60E2A
:100DC000B71EC81ED91EA616B706C806D90670F0EB
:100DD000A216B306C406D50648F408946108710843
:100DE00081089108A60EB71EC81ED91ED601C501DE
:100DF000821B930BA40BB50B89A79AA7ABA7BCA723
:100E0000D1019927882764015301A82AB92ACA2A3F
:100E1000DB2A2596ACAEBDAECEAEDFAE2597860101
:100E200075012FEF3FEF40E050E0E222F322042370
:100E30001523A60166277727AD964CAF5DAF6EAF41
:100E40007FAFAD97A9A8BAA8CBA8DCA86FEF7FEFBA
:100E500080E090E0A622B722C822D92289A99AA9C7
:100E6000ABA9BCA91D0144245524C801B701A601A2
:100E700095010E94F721A9966CAF7DAF8EAF9FAF11
:100E8000A997C801B701A20191010E94F7213B0176
:100E90004C01AD966CAD7DAD8EAD9FADAD97A6010D
:100EA00095010E94F7217B018C01AD966CAD7DAD63
:100EB0008EAD9FADAD97A20191010E94F7215B011C
:100EC0006C01A8019701260D371D481D591DA996D3
:100ED0006CAC7DAC8EAC9FACA997C401AA27BB2794
:100EE000280F391F4A1F5B1F2E153F05400751076A
:100EF00048F4E12CF12C61E0062F112DAE0CBF1C43
:100F0000C01ED11ECA01AA27BB27BC01CD016A0D94
:100F10007B1D8C1D9D1D69A47AA48BA49CA46616C0
:100F200077068806990650F16615770588059905B4
:100F300009F04DC0D90199278827A9962CAD3DAD60
:100F40004EAD5FADA99740705070820F931FA41FE4
:100F5000B51F21962CAD3DAD4EAD5FAD2197E2960C
:100F60000FACE29704C0220F331F441F551F0A9491
:100F7000D2F7281739074A075B0748F525960CADC5
:100F80001DAD2EAD3FAD25970150104020403040A3
:100F900025960CAF1DAF2EAF3FAF259718C0662426
:100FA0007724430121E030E040E050E025962CAF6B
:100FB0003DAF4EAF5FAF25970DC066247724430148
:100FC00025961CAE1DAE1EAE1FAE259703C066242F
:100FD00077244301FE01B19688E0DF011D928A95D6
:100FE000E9F72596ACACBDACCEACDFAC2597A9A299
:100FF000BAA2CBA2DCA26DA27EA28FA298A6229654
:101000002FAD22973AA14BA15CA1662D7EA1DFA056
:1010100098A5E196ECACFDAC0EAD1FADE197E114E7
:10102000F1040105110509F456C0219581E012165D
:1010300008F080E03195E1E0131608F0E0E0932E2F
:10104000981A81E0391508F080E0E82B4195F1E02D
:10105000141608F0F0E0A42EAE1A81E04A1508F04C
:1010600080E0F82B5195E1E0151608F0E0E0B52E90
:10107000BF1A81E05B1508F080E0E82B6195F1E094
:10108000161608F0F0E0A62FAE1B81E06A1708F0F4
:1010900080E0F82B7195E1E0171608F0E0E0C72E2C
:1010A000CF1A81E07C1508F080E0E82B8D2D81952A
:1010B000F1E0181608F0F0E0D82EDE1AE1E08D1508
:1010C00008F0E0E0FE2B892F8195392DA5016A2FCC
:1010D0007C2D982F9F1B8D2DCE58DF4FE2E10C9475
:1010E0005422A7E7B0E0E7E7F8E00C943822982E06
:1010F000892E712E88E0FE013196DF01682E1D9247
:101100006A94E9F729833A834B835C836D837E83FA
:101110009F829887FE013996DF011D928A95E9F733
:10112000A986BA86CB86DC86ED86FE860F87188B6D
:101130008D819E81AF81B885B7FD07C0E1961CAE59
:101140001DAE1EAE1FAEE19764C0219581E0121660
:1011500008F080E0319591E0131608F090E0B32F8D
:10116000B81B81E03B1708F080E0982B419531E0F7
:10117000141608F030E0A42FA91B81E04A1708F0EC
:1011800080E0382B519591E0151608F090E0F52F8E
:10119000F31B81E05F1708F080E0982B619531E048
:1011A000161608F030E0E62FE91B81E06E1708F014
:1011B00080E0382B719541E0171608F040E0572F7A
:1011C000531B81E0751708F080E0482B892D81952D
:1011D00091E0181608F090E0682E641A462D31E070
:1011E000861508F030E0932B882D8195891B298383
:1011F000BA83AB83FC83ED835E834F8388872FEFB5
:101200003FEF4FEF5FEFE1962CAF3DAF4EAF5FAFDB
:10121000E1978D859E85AF85B889B7FF5AC0A194A7
:1012200081E01A1408F080E0B19491E01B1408F0FA
:1012300090E06B2D681B81E0B61608F080E0982BDB
:10124000C19421E01C1408F020E05C2D591B81E0C2
:10125000C51608F080E0282BD19491E01D1408F009
:1012600090E04D2D421B81E0D41608F080E0982BD1
:10127000E19421E01E1408F020E03E2D391B81E0AE
:10128000E31608F080E0282BF19491E01F1408F099
:1012900090E07F2D721B272F81E0F71608F080E089
:1012A000982B019511E0101608F010E0802F891B93
:1012B000982F81E0091708F080E0182B872D819581
:1012C000811BA9866A875B874C873D872E879F870E
:1012D000888B99812A813B814C815D816E817F81E0
:1012E000A885B9851A850B85FC84ED84DE84CF84BE
:1012F000B88888E0E9E18E2E912C8C0E9D1EF401B9
:10130000682E11926A94E9F7998F2A8F3B8F4C8F40
:101310005D8F6E8F7F8FA8A39E012F5D3F4FF901D8
:1013200011928A95E9F7B9A31AA30BA3FCA2EDA227
:10133000DEA2CFA2B8A629A03AA04BA05CA0ADA087
:10134000BEA0CFA0D8A4498D5A8D6B8D7C8DE5961B
:101350004FAFE597E6965FAFE697E7966FAFE797F3
:10136000E8967FAFE897E8966CAC7DAC8EAC9FAC0E
:10137000E8972D966CAE7DAE8EAE9FAE2D978D8D7F
:101380009E8D2F8D38A13C01490161966CAE7DAEDA
:101390008EAE9FAE6197A114B104C104D10409F0CF
:1013A00028C3621473048404950408F00EC100E09D
:1013B000201600E0300601E0400600E0500688F408
:1013C0001FEF211631044104510439F030F088E058
:1013D000E82EF12C012D112D18C0EE24FF248701D9
:1013E00014C020E0221620E0320620E0420621E070
:1013F000520630F0B8E1EB2EF12C012D112D05C075
:10140000A0E1EA2EF12C012D112DD201C1010E2CEB
:1014100004C0B695A795979587950A94D2F78B59EE
:101420009F4FDC012C9180E290E0A0E0B0E08E19AB
:101430009F09A00BB10B5C016D01A21AB108C10894
:10144000D1086596ACAEBDAECEAEDFAE6597A11449
:10145000B104C104D10409F445C062966FAD62972E
:10146000062E04C0220C331C441C551C0A94D2F7CF
:10147000A4019301062E04C0220F331F441F551FE1
:101480000A94D2F780E290E08A199B09E896CCACE6
:10149000DDACEEACFFACE89704C0F694E794D794CB
:1014A000C7948A95D2F787017601E22AF32A042BA2
:1014B000152B6196ECAEFDAE0EAF1FAF6197E896AF
:1014C0000CAD1DAD2EAD3FADE89704C0000F111F50
:1014D000221F331F6A95D2F72D960CAF1DAF2EAF8A
:1014E0003FAF2D97320188249924A20191014070C9
:1014F000507069962CAF3DAF4EAF5FAF6997619664
:101500006CAD7DAD8EAD9FAD6197A40193010E943E
:1015100016227B018C0161966CAD7DAD8EAD9FADC9
:101520006197A40193010E941622CA01B90169962C
:101530002CAD3DAD4EAD5FAD69970E94F7219B018B
:10154000AC018701FF24EE242D96ACACBDACCEAC33
:10155000DFAC2D97C601AA27BB2757016801A82A2F
:10156000B92ACA2ADB2AA216B306C406D50690F405
:10157000A20CB31CC41CD51CA214B304C404D5040F
:1015800048F0A216B306C406D50620F4A20CB31C7C
:10159000C41CD51CA21AB30AC40AD50AC601B501D7
:1015A000A40193010E9416227B018C01C601B501A2
:1015B000A40193010E941622CA01B90169962CADBB
:1015C0003DAD4EAD5FAD6997C8C1211431044104F2
:1015D000510471F461E070E080E090E020E030E0E0
:1015E00040E050E00E941622C901DA011C012D01E1
:1015F00000E0201600E0300601E0400600E0500662
:1016000088F41FEF211631044104510439F030F001
:1016100068E0E62EF12C012D112D18C0EE24FF24D8
:10162000870114C020E0221620E0320620E04206A6
:1016300021E0520630F058E1E52EF12C012D112D5C
:1016400005C040E1E42EF12C012D112DD201C10184
:101650000E2C04C0B695A795979587950A94D2F756
:101660008B599F4FDC012C9130E2A32EB12CC12C61
:10167000D12CD601C5018E199F09A00BB10B7C019D
:101680008D01E21AF108010911096596ECAEFDAE73
:101690000EAF1FAF6597E114F1040105110539F490
:1016A00064015301A218B308C408D508ECC06296BF
:1016B000FFAC6297E496FFAEE4970F2C04C0220CB7
:1016C000331C441C551C0A94D2F78A2D8F196401CF
:1016D0005301082E04C0D694C794B794A7940A94D3
:1016E000D2F7A401930104C0220F331F441F551FDA
:1016F000FA94D2F7E8966CAC7DAC8EAC9FACE897D0
:1017000004C096948794779467948A95D2F784015D
:101710007301E22AF32A042B152B2996ECAEFDAEB9
:101720000EAF1FAF299732018824992492018101BD
:10173000207030706D960CAF1DAF2EAF3FAF6D9720
:10174000C601B501A40193010E9416227B018C0100
:10175000C601B501A40193010E941622CA01B90174
:101760006D962CAD3DAD4EAD5FAD6D970E94F721EE
:101770009B01AC018701FF24EE242996ACACBDACE3
:10178000CEACDFAC2997C601AA27BB275C016D014F
:10179000AE28BF28C02AD12AA216B306C406D50691
:1017A00090F4A20CB31CC41CD51CA214B304C40432
:1017B000D50448F0A216B306C406D50620F4A20C40
:1017C000B31CC41CD51CA21AB30AC40AD50AC6018C
:1017D000B501A40193010E9416227B018C01C60170
:1017E000B501A40193010E941622CA01B9016D96A8
:1017F0002CAD3DAD4EAD5FAD6D970E94F7219B01C5
:10180000AC018701FF24EE2429968CAD9DADAEADD1
:10181000BFAD2997A070B07057016801A82AB92AF6
:10182000CA2ADB2AA216B306C406D50690F4A20C77
:10183000B31CC41CD51CA214B304C404D50448F0C2
:10184000A216B306C406D50620F4A20CB31CC41C11
:10185000D51CE896ECACFDAC0EAD1FADE897E49658
:101860000FACE49704C0EE0CFF1C001F111F0A947C
:10187000D2F72D96ECAEFDAE0EAF1FAF2D97A21A8C
:10188000B30AC40AD50A320188249924920181013D
:1018900020703070A1960CAF1DAF2EAF3FAFA19757
:1018A000C601B501A40193010E9416227B018C019F
:1018B000C601B501A40193010E941622CA01B90113
:1018C000A1962CAD3DAD4EAD5FADA1970E94F72125
:1018D0009B01AC018701FF24EE242D96ACACBDAC7E
:1018E000CEACDFAC2D97C601AA27BB2757016801F4
:1018F000A82AB92ACA2ADB2AA216B306C406D50624
:1019000090F4A20CB31CC41CD51CA214B304C404D0
:10191000D50448F0A216B306C406D50620F4A20CDE
:10192000B31CC41CD51CA21AB30AC40AD50AC6012A
:10193000B501A40193010E9416227B018C01C6010E
:10194000B501A40193010E941622CA01B901A19612
:101950002CAD3DAD4EAD5FADA1970E94F7219B012F
:10196000AC018701FF24EE242D968CAD9DADAEAD6C
:10197000BFAD2D97A070B070E82AF92A0A2B1B2B57
:10198000E216F3060407150790F4E20CF31C041D9D
:10199000151DE214F3040405150548F0E216F306DC
:1019A0000407150720F4E20CF31C041D151DE21AB0
:1019B000F30A040B150BD801C70162960FAC6297AE
:1019C00004C0B695A795979587950A94D2F789A7ED
:1019D0009AA7ABA7BCA71DA61EA61FA618AA898BEF
:1019E0008AA58A8B8BA58B8B8CA58C8B8DA58D8BDB
:1019F0002FC36A147B048C049D0448F4498B5A8BD2
:101A00006B8B7C8B8D8B9E8B2F8B388F27C300E04D
:101A1000A01600E0B00601E0C00600E0D00688F4A1
:101A20001FEFA116B104C104D10439F030F028E051
:101A3000E22EF12C012D112D18C0EE24FF24870178
:101A400014C020E0A21620E0B20620E0C20621E089
:101A5000D20630F098E1E92EF12C012D112D05C0B0
:101A600080E1E82EF12C012D112DD601C5010E2C9F
:101A700004C0B695A795979587950A94D2F78B5988
:101A80009F4FDC012C9180E290E0A0E0B0E08E1945
:101A90009F09A00BB10B821B9109A109B109009705
:101AA000A105B10509F059C0A614B704C804D904AA
:101AB00070F0E896ECACFDAC0EAD1FADE897E2140B
:101AC000F3040405150518F4D801C7012FC0E896E2
:101AD0008CAD9DADAEADBFADE89782199309A40959
:101AE000B509A40193012A193B094C095D09AA24EF
:101AF000BB246501E8966CAC7DAC8EAC9FACE897DE
:101B0000681679068A069B0628F411E0A12EB12CEE
:101B1000C12CD12C79018A01EA18FB080C091D0996
:101B20006196ECAEFDAE0EAF1FAF619789A79AA785
:101B3000ABA7BCA761960CAD1DAD2EAD3FAD6197B7
:101B40000DA71EA72FA738AB898B8AA58A8B8BA5DB
:101B50008B8B8CA58C8B0D8B7BC2E3968FAFE39721
:101B6000A6019501082E04C0220F331F441F551FE4
:101B70000A94D2F710E2181BE2961FAFE297D20147
:101B8000C101012E04C0B695A795979587950A9433
:101B9000D2F75C016D01A22AB32AC42AD52A259660
:101BA000ACAEBDAECEAEDFAE259772016101E3965D
:101BB0000FACE39704C0CC0CDD1CEE1CFF1C0A9498
:101BC000D2F72196CCAEDDAEEEAEFFAE219764012A
:101BD0005301012E04C0D694C794B794A7940A94D5
:101BE000D2F7A4019301E3960FACE39704C0220F50
:101BF000331F441F551F0A94D2F7E8968CAD9DAD54
:101C0000AEADBFADE89704C0B695A79597958795FB
:101C10001A95D2F77C018D01E22AF32A042B152BA9
:101C2000E9AEFAAE0BAF1CAFE8960CAD1DAD2EAD14
:101C30003FADE897E3960FACE39704C0000F111F88
:101C4000221F331F0A94D2F70DAB1EAB2FAB38AF58
:101C500025962CAD3DAD4EAD5FAD25973A0188245C
:101C6000992440705070A5962CAF3DAF4EAF5FAF3A
:101C7000A597C601B501A40193010E9416227B011C
:101C80008C01C601B501A40193010E941622C9016D
:101C9000DA011C012D01C201B101A5962CAD3DADAB
:101CA0004EAD5FADA5970E94F7219B01AC01870166
:101CB000FF24EE24A9ACBAACCBACDCACC601AA279D
:101CC000BB2757016801A82AB92ACA2ADB2AA2160B
:101CD000B306C406D50610F508942108310841085A
:101CE00051082596ECACFDAC0EAD1FAD2597AE0CA2
:101CF000BF1CC01ED11EAE14BF04C006D10670F0BA
:101D0000A216B306C406D50648F408942108310883
:101D100041085108AE0CBF1CC01ED11EA21AB30A46
:101D2000C40AD50AC601B501A40193010E94162276
:101D30007B018C01C601B501A40193010E9416220A
:101D4000C901DA013C014D01C401B301A5962CADD6
:101D50003DAD4EAD5FADA5970E94F7219B01AC0153
:101D60008701FF24EE2489AD9AADABADBCADA07068
:101D7000B07057016801A82AB92ACA2ADB2AA2161C
:101D8000B306C406D50610F50894610871088108E9
:101D9000910825966CAD7DAD8EAD9FAD2597A60EB5
:101DA000B71EC81ED91EA616B706C806D90670F0FB
:101DB000A216B306C406D50648F408946108710853
:101DC00081089108A60EB71EC81ED91ED601C501EE
:101DD000821B930BA40BB50B89AB9AABABABBCAB23
:101DE000D1019927882784017301E82AF92A0A2B4F
:101DF0001B2B8FEFA82E8FEFB82EC12CD12CAE202D
:101E0000BF20C022D12278010027112721966CAC77
:101E10007DAC8EAC9FAC21972FEF3FEF40E050E0C0
:101E2000622273228422952221966CAD7DAD8EAD07
:101E30009FAD2197AC0166277727AD964CAF5DAF7C
:101E40006EAF7FAFAD97C601B501A40193010E94AB
:101E5000F721A9966CAF7DAF8EAF9FAFA997C60152
:101E6000B501AD962CAD3DAD4EAD5FADAD970E94C9
:101E7000F7211B012C01C801B701A40193010E94A5
:101E8000F7215B016C01C801B701AD962CAD3DADEA
:101E90004EAD5FADAD970E94F7217B018C01A6018D
:101EA0009501220D331D441D551DA9966CAC7DACCA
:101EB0008EAC9FACA997C401AA27BB27280F391F56
:101EC0004A1F5B1F2A153B054C055D0548F4812C14
:101ED000912CE1E0AE2EB12CE80CF91C0A1D1B1D63
:101EE000CA01AA27BB2757016801A80EB91ECA1E3E
:101EF000DB1EA90133272227A9968CAD9DADAEAD7F
:101F0000BFADA997A070B070280F391F4A1F5B1F83
:101F1000E9A8FAA80BA91CA9EA14FB040C051D05E5
:101F200070F0AE14BF04C006D10689F56DA97EA974
:101F30008FA998AD621773078407950740F5DA01FA
:101F4000C90121966CAC7DAC8EAC9FAC21978619F3
:101F50009709A809B9092596ECACFDAC0EAD1FADEB
:101F60002597AE18BF08C00AD10AEE24FF248701C6
:101F7000281739074A075B0728F421E0E22EF12CE5
:101F8000012D112DAE18BF08C00AD10A02C0DA0116
:101F9000C9016DA87EA88FA898AC681A790A8A0A28
:101FA0009B0A09A91AA92BA93CA90A191B092C09E2
:101FB0003D09580169012224332421012DA93EA99C
:101FC0004FA958AD261537054805590528F481E075
:101FD000282E312C412C512C86017501E218F30872
:101FE00004091509A8019701E2960FACE29704C015
:101FF000220F331F441F551F0A94D2F7D401C30187
:10200000E3960FACE39704C0B695A795979587958F
:102010000A94D2F7282B392B4A2B5B2B29A73AA7F6
:102020004BA75CA7E3960FACE39704C01695079502
:10203000F794E7940A94D2F7EDA6FEA60FA718AB83
:10204000298B8AA58A8B8BA58B8B8CA58C8BED8A93
:102050008EA58E8B8FA58F8B88A9888FE1964CAD2E
:102060005DAD6EAD7FADE19741155105610571051F
:1020700009F467C089892A893B894C895D89AE89C1
:10208000BF89188DF82FF19591E01F1608F090E0A8
:10209000822F819521E0181608F020E0E82FE91B37
:1020A00091E08E1708F090E0292B832F819531E085
:1020B000181608F030E0782F721B91E0871708F0AF
:1020C00090E0392B842F819521E0181608F020E04C
:1020D000682F631B91E0861708F090E0292B852F6D
:1020E000819531E0181608F030E0582F521B91E02E
:1020F000851708F090E0392B8A2F819521E018167A
:1021000008F020E0482F431B91E0841708F090E08E
:10211000292B8B2F819591E0181608F090E0382F2D
:10212000321B21E0831708F020E0922B812F81954C
:10213000891BF98BEA8B7B8B6C8B5D8B4E8B3F8B7A
:10214000888F29893A894B895C896D897E898F8935
:10215000988DC958DF4FE2E10C945422982F969540
:1021600096959695482F4770613009F482C061308A
:1021700020F0623009F0C2C036C0913099F0913041
:1021800030F09230D1F0933009F0B8C021C02AB3BA
:1021900081E090E002C0880F991F4A95E2F7282B52
:1021A0002ABB089527B381E090E002C0880F991FF1
:1021B0004A95E2F7282B27BB089524B381E090E0ED
:1021C00002C0880F991F4A95E2F7282B24BB089577
:1021D00021B381E090E002C0880F991F4A95E2F791
:1021E000282B21BB08959130B9F0913030F0923016
:1021F00011F1933009F082C02DC03AB381E090E034
:1022000001C0880F4A95EAF7282F209523232ABB7F
:102210002BB3822B8BBB089537B381E090E001C0D4
:10222000880F4A95EAF7282F2095232327BB28B348
:10223000822B88BB089534B381E090E001C0880F01
:102240004A95EAF7282F2095232324BB25B3822B18
:1022500085BB089531B381E090E001C0880F4A95B5
:10226000EAF7282F2095232321BB22B3822B82BBA0
:1022700008959130B9F0913030F0923011F19330EF
:1022800009F03CC02DC08AB321E030E002C0220F2B
:10229000331F4A95E2F7209582238ABB8BB328230C
:1022A0002BBB089587B321E030E002C0220F331F1B
:1022B0004A95E2F72095822387BB88B3282328BB61
:1022C000089584B321E030E002C0220F331F4A9505
:1022D000E2F72095822384BB85B3282325BB08958C
:1022E00081B321E030E002C0220F331F4A95E2F7AC
:1022F0002095822381BB82B3282322BB08951F939C
:10230000CF93DF9310E0C0E0D0E0E12FF0E0E95997
:10231000FE4F812F60810E94AE101F5F2196C03258
:10232000D10599F7DF91CF911F910895382F37701C
:10233000869586958695813009F1813030F082301E
:10234000B1F1833009F064C04BC0613059F42BB354
:1023500081E090E002C0880F991F3A95E2F7282BA0
:102360002BBB08952BB381E090E002C0880F991F2A
:102370003A95E2F7809582238BBB0895613059F43A
:1023800028B381E090E002C0880F991F3A95E2F7E8
:10239000282B28BB089528B381E090E002C0880F65
:1023A000991F3A95E2F78095822388BB08956130A2
:1023B00059F425B381E090E002C0880F991F3A9547
:1023C000E2F7282B25BB089525B381E090E002C0F9
:1023D000880F991F3A95E2F78095822385BB08956F
:1023E000613059F422B381E090E002C0880F991F58
:1023F0003A95E2F7282B22BB089522B381E090E0C2
:1024000002C0880F991F3A95E2F78095822382BB1C
:102410000895282F2770869586958695813051F0EE
:10242000813030F0823041F0833079F080E00895DF
:1024300089B303C086B301C083B390E002C0959511
:1024400087952A95E2F78170089580B390E002C0E5
:10245000959587952A95E2F781700895382F377002
:10246000869586958695813091F0813028F082306E
:10247000C9F0833061F521C02BB381E090E002C048
:10248000880F991F3A95E2F728272BBB089528B3A8
:1024900081E090E002C0880F991F3A95E2F7282763
:1024A00028BB089525B381E090E002C0880F991FF2
:1024B0003A95E2F7282725BB089522B381E090E002
:1024C00002C0880F991F3A95E2F7282722BB08958A
:1024D000813049F0813028F0823039F0833041F486
:1024E00006C06BBB089568BB089565BB089562BBC9
:1024F000089583E389B95998539A549A08955D9B36
:10250000FECF8CB908955F9BFECF8CB10895FC017E
:102510005F9902C080E008958CB1808381E00895C6
:102520008CB108958CB90895579A089557980895D5
:10253000569A08955698089590938B0180938A0136
:102540000895909389018093880108951F920F92B6
:102550000FB60F9211242F933F934F935F936F9376
:102560007F938F939F93AF93BF93EF93FF93E091EC
:102570008A01F0918B01309709F00995FF91EF9155
:10258000BF91AF919F918F917F916F915F914F918B
:102590003F912F910F900FBE0F901F9018951F9293
:1025A0000F920FB60F9211242F933F934F935F9387
:1025B0006F937F938F939F93AF93BF93EF93FF930B
:1025C000E0918801F0918901309709F00995FF9118
:1025D000EF91BF91AF919F918F917F916F915F919B
:1025E0004F913F912F910F900FBE0F901F90189514
:1025F000EF92FF921F93182F81E061E00E949611E5
:1026000081E160E00E949611612F6295617083E024
:102610000E949611612F62956695617084E00E9418
:102620009611612F629566956695617085E00E94AE
:102630009611612F661F6627661F86E00E9496111D
:1026400082E061E00E94961180EDE82E87E0F82E8E
:10265000C7010197F1F782E060E00E949611C7017F
:102660000197F1F7612F617083E00E949611612F4D
:102670006695617084E00E94961116951695612FFB
:10268000617085E00E9496111695117086E0612FA9
:102690000E94961182E061E00E949611C7010197A5
:1026A000F1F782E060E00E949611C7010197F1F70F
:1026B0001F91FF90EF900895EF92FF921F93CF9399
:1026C000DF9310E0C7E0D0E0E82EFF24C7010C2E16
:1026D00002C0959587950A94E2F780FF02C011E049
:1026E00004C0113011F010E004C08170805D0E94C0
:1026F000F81221978FEFCF3FD80741F7DF91CF91A5
:102700001F91FF90EF9008950F931F93CF93DF9346
:10271000C7E0D0E0082F10E0C8010C2E02C095954C
:1027200087950A94E2F78170805D0E94F8122197E4
:102730008FEFCF3FD80781F7DF91CF911F910F9196
:1027400008950E94F81208950F931F938C0160E181
:1027500077E20E94E32168EE73E00E94E321862F76
:10276000805D0E94F812C80168EE73E00E94E321C8
:1027700064E670E00E94E321862F805D0E94F812DB
:10278000C80164E670E00E94E3216AE070E00E9404
:10279000E321862F805D0E94F812C8016AE070E094
:1027A0000E94E321805D0E94F8121F910F9108950D
:1027B0002F923F924F925F926F927F928F929F9251
:1027C000AF92BF92CF92DF92EF92FF920F931F933F
:1027D000DF93CF93CDB7DEB763970FB6F894DEBF24
:1027E0000FBECDBF722E632E542E452E262E872E61
:1027F000982E392E822F832B842B852B862B872B8B
:102800008929892B21F480E30E94F812B3C097FF35
:1028100060C0219591E0121608F090E0362D3195B8
:1028200051E0131608F050E0F32EF91A91E03F152D
:1028300008F090E0592B452D419561E0141608F001
:1028400060E0042F051B91E0401708F090E0692B31
:10285000542D519571E0151608F070E0152F161BD8
:1028600091E0511708F090E0792B622D6195E1E03D
:10287000161608F0E0E0B62FB71B91E06B1708F0D2
:1028800090E0E92B782D7195F1E0171608F0F0E053
:10289000A72FAE1B91E07A1708F090E0F92B892D55
:1028A0008195E1E0181608F0E0E0982F9F1BF92FC2
:1028B00091E08F1708F090E0E92B3194722E6F2C85
:1028C000502E412E2B2E8A2E9F2E3E1A8DE20E94D4
:1028D000F812FE01319680E1DF011D928A95E9F739
:1028E000198AE1E0F0E0EC0FFD1F2989E20FF11DEC
:1028F000FB8BEA8B272D362D452D542D622D782DFF
:10290000892D932DEAE0AE2EBB24CC24DD24EE24C9
:10291000FF2400E010E00E947108205DAA89BB89B5
:102920002C93B989BF5FB98B272D362D452D542D9A
:10293000622D782D892D932D0E944900722E632ED1
:10294000542E452E262E872E982E392E822F8629FC
:1029500085298429822988298929832911F61989B9
:1029600007C0FE01E10FF11D80810E94F812115095
:102970001123B9F763960FB6F894DEBF0FBECDBF33
:10298000CF91DF911F910F91FF90EF90DF90CF904B
:10299000BF90AF909F908F907F906F905F904F907F
:1029A0003F902F9008951F93CF93DF93EC0110E099
:1029B00003C00E94F8121F5FFE01E10FF11D80812C
:1029C0008823B9F7DF91CF911F910895EF92FF927D
:1029D0001F93182F81E060E00E94961181E160E072
:1029E0000E949611612F6295617083E00E9496119A
:1029F000612F62956695617084E00E949611612F47
:102A0000629566956695617085E00E949611612FCA
:102A1000661F6627661F86E00E94961182E061E0CD
:102A20000E949611F0EDEF2EF7E0FF2EC7010197FF
:102A3000F1F782E060E00E949611C7010197F1F77B
:102A4000612F617083E00E949611612F669561701D
:102A500084E00E94961116951695612F617085E0AD
:102A60000E9496111695117086E0612F0E949611B2
:102A700082E061E00E949611C7010197F1F782E0C0
:102A800060E00E949611C7010197F1F71F91FF9036
:102A9000EF9008950F931F93CF93DF938C01862FB0
:102AA000880F880F880F805C0E94E614C0E0D0E099
:102AB000F801EC0FFD1F80810E94F8122196C830AA
:102AC000D105B1F7DF91CF911F910F9108950F9329
:102AD0001F93CF93DF938C01862F880F880F880F69
:102AE000805C0E94E614C0E0D0E0F801EC0FFD1F0E
:102AF00080810E94F8122196C830D105B1F7DF918C
:102B0000CF911F910F910895882329F4862F805823
:102B10000E94E6140895813021F4862F80540E948B
:102B2000E6140895AF92BF92CF92DF92EF92FF9298
:102B30000F931F93D22EC32EB42EA52E0E94841560
:102B40009701A8016D2D7C2D8B2D9A2D0E94D813F5
:102B50001F910F91FF90EF90DF90CF90BF90AF90BB
:102B6000089581E00E94E61408950F931F9384EF67
:102B700091E028EC30E0F9013197F1F70197D9F7AE
:102B800082E00E94E61400ED17E0C8010197F1F71A
:102B900088E20E94E614C8010197F1F78CE00E94D8
:102BA000E614C8010197F1F781E00E94E61480EA7B
:102BB0009FE00197F1F786E00E94E614C8010197B3
:102BC000F1F71F910F910895EF92FF920F931F93CA
:102BD000FC010580F681E02DE680F7808701045F27
:102BE0001F4FC8010E944B188DEB91E0B8010E9465
:102BF000ED1720E0E0918C01F0918D01D701569600
:102C00009C918689981708F021E0822F1F910F91DF
:102C1000FF90EF900895FF920F931F93CF93DF9350
:102C200099E0F92E21C0F894E091C201F091C3011E
:102C300006811781C8010C960E944B187894E80110
:102C40002296CE010E944B18F801968980918E0140
:102C5000891710F490938E019F9DC00111248B560B
:102C60009E4FBE010E94ED178091BD018823D9F6C9
:102C70000E949B1C20918F0130919001821B930B2D
:102C8000909392018093910189E0F82E53C00196B0
:102C9000909394018093930121503040309392019E
:102CA00020939101892B09F03EC02091B901309108
:102CB000BA018091BB019091BC019093BA018093BD
:102CC000B9013093BC012093BB012DC00580F68172
:102CD000E02DC681D78120919301309194018A81A2
:102CE0009B812817390730F1F8948E010E5F1F4F32
:102CF000C8010E944B188C899D89892B21F0CE0137
:102D00000C960E944B1878949E8980918E018917A9
:102D100010F490938E019F9DC00111248B569E4FFD
:102D2000B8010E94ED17E091B901F091BA018081DC
:102D3000882361F620919101309192018091930155
:102D4000909194012115310509F0A1CF9093900144
:102D500080938F0190918E0129E006C0992319F488
:102D600010928E0132C09150929FD0011124AB5627
:102D7000BE4F8C91882391F390938E011196ED9123
:102D8000FC9112970280F381E02D1296FC93EE9352
:102D90001197CD010396E817F90731F482819381E9
:102DA00012969C938E9311971196ED91FC91129728
:102DB0000680F781E02DF0938D01E0938C01208156
:102DC0003181CF016789F9010995DF91CF911F9179
:102DD0000F91FF9008950F931F93CF93DF93EB0113
:102DE0000091930110919401080F191F80918C019B
:102DF00090918D0102960E944B18E0918C01F09108
:102E00008D01138302838091930190919401BF01FE
:102E10006E5F7F4F0817190728F48091BB019091CE
:102E2000BC0104C08091B9019091BA010E941618AA
:102E3000209749F060918C0170918D01645F7F4F04
:102E4000CE010E941618DF91CF911F910F91089526
:102E5000AF92BF92CF92DF92EF92FF920F931F93A8
:102E6000CF93DF936C01B62EA42E8AE190E00E94EE
:102E7000B217EC01009711F48FEF59C080918C01CB
:102E800090918D01892B21F5D0938D01C0938C01F8
:102E900085E991E00E94D9178EE991E00E94D91747
:102EA00027EAE22E21E0F22EC7010E94D91700EB9B
:102EB00011E0C8010E94D9178DEB91E00E94D9174B
:102EC000F092BA01E092B9011093BC010093BB01EA
:102ED000EB2CBB2011F0EE24E394198E188EEE8AB1
:102EE000AF8AFE01C192D1928F01CF010E94E917F2
:102EF000CE010C960E94E917D987C887DB8BCA8B55
:102F000085E090E08E1991099D878C879E8980913C
:102F10008E01891710F490938E0189E0989FC0016B
:102F200011248B569E4FB8010E94ED1781E0DF916E
:102F3000CF911F910F91FF90EF90DF90CF90BF90B6
:102F4000AF90089508951092C7011092C601089598
:102F500024E833E08091C6019091C701281B390B0A
:102F6000C90108950F931F93CF93DF938C010E94A3
:102F7000951C8091C6019091C7019801280F391FB7
:102F800043E02438340758F48217930740F4EC01E7
:102F9000C853DE4F3093C7012093C60102C0C0E082
:102FA000D0E00E94711ECE01DF91CF911F910F9151
:102FB0000895FC019C012D5F3F4F328321838FEFE9
:102FC0009FEF948383833683258330872783108202
:102FD0000895FC01118610860895CF93DF93AC010C
:102FE000DB01EC0129813A81F901828193811396F9
:102FF0009C938E93129789819A8115969C938E93B8
:1030000014970280F381E02D75836483E9017B834B
:103010006A83FA017283618319965C934E931897C1
:1030200080818F5F8083DF91CF910895CF93DF936D
:103030009C01EB01488159818FEF4F3F580721F4E4
:10304000F901A781B08510C0D901139604C012966A
:103050000D90BC91A02D1296ED91FC91139780815B
:1030600091814817590798F71296ED91FC911397A3
:10307000FB83EA83D583C483BD83AC831396DC933F
:10308000CE93129739872887F90180818F5F8083DB
:10309000DF91CF910895CF93DF93DC011296ED91EC
:1030A000FC91139714968D919C9115979583848329
:1030B0001496CD91DC911597FB83EA831896ED91D8
:1030C000FC911997818192818A179B0711F4D28311
:1030D000C18319961C921E9218978081815080831B
:1030E000DF91CF910895FC0191E1908322E2229338
:1030F00083E3829362937293129280E88293129296
:1031000082E0829383E0829384E0829385E08293DD
:1031100086E0829387E0829388E0829389E08293BD
:1031200080E18293929382E1829383E1829384E1AE
:10313000829385E1829386E1829387E1829388E19D
:10314000829389E1829380E2829381E28293229347
:1031500083E282934293529386E2829387E2829340
:1031600088E2829389E2829380E3829381E382936F
:103170003197CF0108951BBC8CE78ABD8BE08EBDD3
:1031800089B7806189BFA0914C05B0914D05CD9163
:10319000CDBFDD91DEBFFF91EF91DF91CF91BF9168
:1031A000AF919F918F917F916F915F914F913F91DF
:1031B0002F911F910F91FF90EF90DF90CF90BF90D4
:1031C000AF909F908F907F906F905F904F903F90C7
:1031D0002F901F900F900FBE0F90089581E00895DB
:1031E00008950F920FB6F8940F921F9211242F9208
:1031F0003F924F925F926F927F928F929F92AF9287
:10320000BF92CF92DF92EF92FF920F931F932F9373
:103210003F934F935F936F937F938F939F93AF935E
:10322000BF93CF93DF93EF93FF93A0914C05B091A1
:103230004D050DB60D920EB60D920E94791D0E949D
:10324000AF1CA0914C05B0914D05CD91CDBFDD9146
:10325000DEBFFF91EF91DF91CF91BF91AF919F9131
:103260008F917F916F915F914F913F912F911F911E
:103270000F91FF90EF90DF90CF90BF90AF909F9015
:103280008F907F906F905F904F903F902F901F9006
:103290000F900FBE0F9008950E94F11818950F928D
:1032A0000FB6F8940F921F9211242F923F924F92D3
:1032B0005F926F927F928F929F92AF92BF92CF92C6
:1032C000DF92EF92FF920F931F932F933F934F93B1
:1032D0005F936F937F938F939F93AF93BF93CF939E
:1032E000DF93EF93FF93A0914C05B0914D050DB680
:1032F0000D920EB60D920E94AF1CA0914C05B0919C
:103300004D05CD91CDBFDD91DEBFFF91EF91DF91F6
:10331000CF91BF91AF919F918F917F916F915F916D
:103320004F913F912F911F910F91FF90EF90DF9060
:10333000CF90BF90AF909F908F907F906F905F9055
:103340004F903F902F901F900F900FBE0F900895B9
:10335000FC010FB6F8940F92828D0F900FBE089566
:10336000FC01828D0895FC01828D90E0882309F490
:1033700091E0892F0895FC01928D20E0838D9817AC
:1033800009F421E0822F08950F931F938C01FC0113
:10339000808191810E94A217C8010E94A2171F91EB
:1033A0000F9108950F931F93CF93DF93EC01FB01CF
:1033B0008A018A8D882381F14881598141155105FF
:1033C000A9F08C8D2E813F81280F311D3F832E83E4
:1033D0008A819B812817390710F05F834E834C8DBB
:1033E0006E817F81CF0150E00E946F228A8D8150D3
:1033F0008A8F8D8D8F3F69F48885882361F0CE0197
:1034000008960E943A1D882331F081E0F8018083FC
:1034100003C08F5F8D8F81E0DF91CF911F910F915E
:103420000895CF93DF93EC01842F4C8D4423A1F1B9
:103430008823B1F48C819D8150E00E946F228C8D95
:103440002C813D81280F311D3D832C838A819B81F6
:103450002817390708F1888199819D838C831CC0C6
:103460008E819F8150E00E946F228C8D90E04427D6
:103470005527481B590B8E819F81840F951F9F8371
:103480008E83288139818217930730F48A819B814A
:10349000840F951F9F838E838A8D8F5F8A8FDF9124
:1034A000CF9108950F931F93CF93DF93EC018A017F
:1034B0009A8D8B8D981710F080E017C0CE01422FA7
:1034C0000E94111A8E8D8F3F69F48989882361F0DB
:1034D000CE0141960E943A1D882331F081E0F80127
:1034E000808303C08F5F8E8F81E0DF91CF911F912A
:1034F0000F9108950F931F93CF93DF93EC010FB6B5
:10350000F8940F928C010F5E1F4F0DC0898988239C
:1035100069F0C8010E943A1D882311F00E94361DEF
:103520008E8D81508E8F8E8D181684F38FEF8E8F37
:103530000F900FBE0FB6F8940F928E01085F1F4FC9
:103540000DC08885882369F0C8010E943A1D882330
:1035500011F00E94361D8D8D81508D8F8D8D181626
:1035600084F38FEF8D8F0F900FBEDF91CF911F915E
:103570000F9108957F928F929F92AF92BF92CF92B8
:10358000DF92EF92FF920F931F93DF93CF9300D0C0
:1035900000D00F92CDB7DEB78C01962E872E5D83BB
:1035A0004C83722E91E1C92ED12CC00ED11E20E089
:1035B0007E010894E11CF11C84E0A82EB12CAC0E15
:1035C000BD1E01C021E00FB6F8940F92F801828D64
:1035D000882309F43EC0E680F7804081518141157F
:1035E0005105B1F0848D9701280F311D3783268353
:1035F000828193812817390710F057834683F80199
:10360000448D66817781892D982D50E00E946F222C
:10361000772071F4F801828D8150828F8085882314
:10362000A1F0C80108960E943A1D813071F40BC0C8
:10363000F801F782E6828189882339F0C6010E9469
:103640003A1D882311F00E944F190F900FBE81E0A0
:103650004AC08C819D81892B19F40F900FBE42C006
:10366000222319F4C7010E94F11C0F900FBE0E9483
:10367000951C0FB6F8940F92F801858D8F3F09F4D1
:10368000158EF801868D8F3F09F4168E0F900FBEB0
:10369000C701B5010E94FC1C8823F9F40FB6F89409
:1036A0000F92F801828D0F900FBE882381F46C81F8
:1036B0007D81C6010E94541EC8010E947A1A0E9490
:1036C000711E882309F07ECF0E944F197BCFC8015D
:1036D0000E947A1A0E94711E75CFC8010E947A1A40
:1036E0000E94711E80E00F900F900F900F900F902E
:1036F000CF91DF911F910F91FF90EF90DF90CF90CE
:10370000BF90AF909F908F907F9008957F928F92FF
:103710009F92AF92BF92CF92DF92EF92FF920F9360
:103720001F93DF93CF9300D000D00F92CDB7DEB7B9
:103730008C016B015D834C83722E48E0E42EF12CEA
:10374000E80EF91E20E05E010894A11CB11C34E0D3
:10375000832E912C8C0E9D1E01C021E00FB6F89493
:103760000F92F801928D838D9817A8F4C801B601C5
:10377000472D0E94111AF8018189882341F0C80160
:1037800041960E943A1D813011F40E944F190F900A
:103790000FBE81E04CC08C819D81892B19F40F9064
:1037A0000FBE44C0222319F4C5010E94F11C0F90E2
:1037B0000FBE0E94951C0FB6F8940F92F801858DEC
:1037C0008F3F09F4158EF801868D8F3F09F4168E10
:1037D0000F900FBEC501B4010E94FC1C882309F59F
:1037E0000FB6F8940F92F801928D0F900FBEF8016A
:1037F000838D981781F46C817D81C7010E94541ECE
:10380000C8010E947A1A0E94711E882309F0A5CF70
:103810000E944F19A2CFC8010E947A1A0E94711EFD
:103820009CCFC8010E947A1A0E94711E80E00F90FE
:103830000F900F900F900F90CF91DF911F910F91EC
:10384000FF90EF90DF90CF90BF90AF909F908F90C0
:103850007F900895AF92BF92CF92DF92EF92FF9246
:103860000F931F93CF93DF93B82EA62E882309F4CE
:1038700042C08FE190E00E94B217EC010097D9F1AD
:10388000EB2CFF24CA2CDD24CE9C8001CF9C100D94
:10389000DE9C100D1124C80101960E94B2179C01F4
:1038A00099838883009721F1080F191F1B830A83CE
:1038B0001A8E9D838C830894E108F108EC9CC0016A
:1038C000ED9C900DFC9C900D1124280F391F3F8317
:1038D0002E83BB8EAC8E8FEF8D8F8E8FCE01089690
:1038E0000E94D917CE0141960E94D9179E0105C0AA
:1038F000CE010E94A21720E030E0C901DF91CF91F4
:103900001F910F91FF90EF90DF90CF90BF90AF90FD
:1039100008951F93162F60E00E942A1CFC01009757
:1039200009F0128FCF011F910895809152058F5F8A
:103930008093520508950FB6F8940F922091500588
:10394000309151050F900FBEC90108952091500587
:1039500030915105C90108958091550508958091D0
:103960005205882351F081E080934E05089580919F
:10397000530581508093530501C099E0E0915305B0
:10398000E99FF0011124E65AFA4F8081882379F3E8
:103990009091530589E0989FD0011124A65ABA4FFF
:1039A0001196ED91FC9112970280F381E02D129611
:1039B000FC93EE931197CD010396E817F90731F4C4
:1039C0008281938112969C938E9311971196ED911B
:1039D000FC9112978681978190934D0580934C05B9
:1039E0000895FC0180914F0580838091500590914E
:1039F0005105928381830895FC01DB010FB6F89491
:103A00000F9290914F058081981749F020915005B1
:103A100030915105818192812817390718F58091DD
:103A2000500590915105218132814D915C91119702
:103A3000821B930B84179507A8F4809150059091F1
:103A40005105281B390B240F351F2D933C93809172
:103A50004F05808380915005909151059283818319
:103A600080E001C081E00F900FBE089581E0809357
:103A70004E0508950F931F93CF93DF93FC010580AC
:103A8000F681E02D06811781E8012C96CE010E9477
:103A90004B18809152058823A9F4E8012296CE01A3
:103AA0000E944B18D80156969C9180915305891716
:103AB00010F49093530589E0989FC0011124865A11
:103AC0009A4F02C08DE995E0BE010E94ED17E0918A
:103AD0004C05F0914D0520E0D80156969C918689C1
:103AE000981708F021E0822FDF91CF911F910F915D
:103AF0000895FF920F931F93CF93DF938091520508
:103B0000882309F08FC0809150059091510501964E
:103B100090935105809350058091500590915105E7
:103B2000892B79F52091990530919A0580919B0513
:103B300090919C0590939A058093990530939C05EC
:103B400020939B0580914F058F5F80934F05E091F7
:103B50009905F0919A058081882319F48FEF9FEFE2
:103B60000CC0E0919905F0919A050580F681E02D51
:103B70000680F781E02D8281938190936601809386
:103B8000650120915005309151058091650190911A
:103B900066012817390708F44AC089E0F82EE09139
:103BA0009905F0919A058081882339F48FEF9FEF72
:103BB00090936601809365013AC0E0919905F09178
:103BC0009A050580F681E02DC681D7812A813B8147
:103BD00080915005909151058217930728F43093F6
:103BE00066012093650123C08E010E5F1F4FC8013F
:103BF0000E944B188C899D89892B21F0CE010C964F
:103C00000E944B189E8980915305891710F4909358
:103C100053059F9DC0011124865A9A4FB8010E94F6
:103C2000ED17BDCF809154058F5F80935405DF91D0
:103C3000CF911F910F91FF900895CF93DF93EC01E7
:103C4000E0914C05F0914D0593838283809150055E
:103C500090915105C817D90768F480919B05909100
:103C60009C0560914C0570914D056E5F7F4F0E94E1
:103C7000161817C08091990590919A0560914C058E
:103C800070914D056E5F7F4F0E94161880916501FF
:103C900090916601C817D90720F4D0936601C093AC
:103CA0006501DF91CF9108950F931F938B01609170
:103CB0004C0570914D05645F7F4F0E9416188091EE
:103CC0004C0590914D0502960E944B18809150052D
:103CD00090915105800F911F0E941D1E1F910F9101
:103CE0000895CF92DF92FF920F931F93DF93CF93AC
:103CF0000F92CDB7DEB70FB6F8940F9280915205B0
:103D000081508093520580915205882309F058C054
:103D100080915505882309F453C0198299E0F92E42
:103D20002DC0E091A205F091A305C680D780C60101
:103D30000C960E944B1886010E5F1F4FC8010E940F
:103D40004B18D60156969C9180915305891710F413
:103D5000909353059F9DC0011124865A9A4FB80134
:103D60000E94ED17E0914C05F0914D05D601569655
:103D70009C918689981710F0B1E0B98380919D05D8
:103D8000882379F680915405882341F40CC00E9461
:103D9000791D80915405815080935405809154057C
:103DA0008823A9F707C0E981E13021F080914E0511
:103DB000813031F410924E050E944F1981E001C00C
:103DC00080E00F900FBE0F90CF91DF911F910F9168
:103DD000FF90DF90CF9008950F931F93CF93DF93C1
:103DE000EC010097C9F0809152058F5F80935205D6
:103DF000009150051091510580914C0590914D0511
:103E000002960E944B18CE01800F911F0E941D1E2A
:103E10000E94711E882311F40E944F19DF91CF91E7
:103E20001F910F910895CF93DF93FC01EB018091D7
:103E300052058F5F8093520520813181C20FD31FBD
:103E400080915005909151058217930728F4C2176D
:103E5000D30728F020E00CC0C217D30740F08091B0
:103E600050059091510520E08C179D0708F421E042
:103E7000D183C083222351F080914C0590914D0550
:103E800002960E944B18CE010E941D1E0E94711EB8
:103E9000882311F40E944F19DF91CF910895EF927A
:103EA000FF920F931F93CF93DF938C010FB6F8947B
:103EB0000F9280914C0590914D050817190719F440
:103EC00000E010E003C00115110529F4C0914C0574
:103ED000D0914D0501C0E80122E0E22EF12CEC0E5C
:103EE000FD1EC7010E944B188C899D89892B21F0EA
:103EF000CE010C960E944B1886EA95E0B7010E940D
:103F0000ED17809157058F5F809357058091580575
:103F10008F5F809358050F900FBE809156058823C0
:103F200021F0012B11F40E944F19DF91CF911F91C5
:103F30000F91FF90EF900895F894109256050E940B
:103F4000F01808950F931F93809157058823E1F38C
:103F5000809152058F5F809352051091A6050E94B3
:103F6000711E112389F30FB6F8940F92E091AB05FF
:103F7000F091AC0506811781C80102960E944B188A
:103F8000809155058150809355058091570581504A
:103F9000809357050F900FBEF8018789908D0E947E
:103FA000A217C8010E94A217CFCF2F923F924F9223
:103FB0005F927F928F929F92AF92BF92CF92DF9249
:103FC000EF92FF920F931F93CF93DF931C014B014E
:103FD0005A012901702EE6018DE290E00E94B2178D
:103FE0006C01009771F0209721F4C5010E94B2176F
:103FF000EC01F601D08FC78B209729F4C6010E94EF
:10400000A2178FEFBFC0CE0165EA70E0A5010E9444
:1040100078220894A108B108F601C789D08DCA0D8D
:10402000DB1DC6014996B40144E150E00E947F22A5
:10403000F60114A6072DF4E0F71508F404E0F601E4
:10404000068B42E0A42EB12CAC0CBD1CC5010E9415
:10405000E917C6010C960E94E917F601D186C086C1
:1040600085E090E0801B910995878487D38AC28A76
:10407000CE01B101A2010E947318F60191838083E1
:10408000E114F10419F0F701D182C0820FB6F8945F
:104090000F92809155058F5F8093550580914C0557
:1040A00090914D05892B79F5D0924D05C0924C0524
:1040B000809155058130B1F5CAE5D5E0CE010E9469
:1040C000D9172996F5E0C738DF07C1F737E8E32E9F
:1040D00035E0F32EC7010E94D91700E915E0C801A9
:1040E0000E94D9178DE995E00E94D91786EA95E0DC
:1040F0000E94D917F0929A05E092990510939C05B9
:1041000000939B050FC080915605882359F4E091D8
:104110004C05F0914D058689781620F0D0924D051A
:10412000C0924C05F601968980915905891710F4C3
:1041300090935905809158058F5F80935805F6013B
:10414000968980915305891710F490935305F601D1
:10415000868929E0829FC0011124865A9A4FB501B1
:104160000E94ED170F900FBE80915605882349F0ED
:10417000E0914C05F0914D058689871510F40E9459
:104180004F1981E0DF91CF911F910F91FF90EF9038
:10419000DF90CF90BF90AF909F908F907F905F9077
:1041A0004F903F902F900895AF92BF92CF92DF92A1
:1041B000EF92FF920F9382EA9FE160E670E044E69F
:1041C00050E020E030E000E0EE24FF24CC24DD24A9
:1041D000AA24BB240E94D51F813049F4F89480930F
:1041E000560510925105109250050E94BB180F9170
:1041F000FF90EF90DF90CF90BF90AF90089586E74B
:1042000091E20E94A1120E949412809116068823C6
:10421000E1F38091AF059091B00560E070E040E07F
:1042200050E020E00E94861BF0CFCF93DF93C8ECD4
:10423000D0E080E00E9409128823E1F48091AF056C
:104240009091B00560E070E040E050E020E00E9416
:10425000861B88EE93E0FE013197F1F70197D9F7BD
:1042600088E00E942E1288EE93E0FE013197F1F76C
:104270000197D9F788EC90E00E94EC1EDACFFF920C
:104280000F931F938DE4F82E01E419E48091AF059C
:104290009091B00560E070E04FEF5FEF20E00E948A
:1042A000BA1A8823F1F08091B105813661F48091CA
:1042B000B205883641F4F092B1050093B20510932F
:1042C000B3051092B40581EB95E00E94D3141092CF
:1042D0001606109215068FE60E947F128BE60E944A
:1042E0007F1280ED97E00E94EC1ED0CFCF93DF933A
:1042F00080911606C82FD0E00E949012CF54DA4F5A
:104300008883809115068F5F80931506809116062D
:104310008F5F80931606DF91CF91089578940E9465
:104320007F1188E060E00E94AE108AE060E00E94A9
:10433000AE1080E061E00E94AE1088E060E00E9474
:10434000961188E060E00E9496110E94B5150E94C7
:1043500079120895AF92BF92CF92DF92EF92FF92BF
:104360000F930E948E218FE391E260E070E04AEFAC
:1043700050E020E030E003E0EE24FF24CC24DD24F4
:10438000AA24BB240E94D51F8FEF90E260E070E06A
:104390004AEF50E020E030E002E00E94D51F81E0CB
:1043A00060E00E942A1C9093B0058093AF050097AF
:1043B00039F060E070E040E050E020E00E94861BB1
:1043C0000E94D420FFCFAA1BBB1B51E107C0AA1F2C
:1043D000BB1FA617B70710F0A61BB70B881F991FA6
:1043E0005A95A9F780959095BC01CD010895629FDB
:1043F000D001739FF001829FE00DF11D649FE00DDD
:10440000F11D929FF00D839FF00D749FF00D659F3D
:10441000F00D9927729FB00DE11DF91F639FB00D3C
:10442000E11DF91FBD01CF0111240895A1E21A2E4B
:10443000AA1BBB1BFD010DC0AA1FBB1FEE1FFF1F48
:10444000A217B307E407F50720F0A21BB30BE40B98
:10445000F50B661F771F881F991F1A9469F76095DF
:104460007095809590959B01AC01BD01CF01089599
:104470002F923F924F925F926F927F928F929F9274
:10448000AF92BF92CF92DF92EF92FF920F931F9362
:10449000CF93DF93CDB7DEB7CA1BDB0B0FB6F89413
:1044A000DEBF0FBECDBF09942A88398848885F8453
:1044B0006E847D848C849B84AA84B984C884DF80C4
:1044C000EE80FD800C811B81AA81B981CE0FD11DA8
:1044D0000FB6F894DEBF0FBECDBFED010895FB010E
:1044E000DC0102C001900D9241505040D8F7089570
:1044F000DC0101C06D9341505040E0F70895FB018D
:10450000DC014150504048F001900D920020C9F765
:1045100001C01D9241505040E0F70895F894FFCF3C
:1045200049444C4500000102020303030304040450
:104530000404040404050505050505050505050530
:104540000505050505060606060606060606060610
:1045500006060606060606060606060606060606FB
:1045600006060606060707070707070707070707E0
:1045700007070707070707070707070707070707CB
:1045800007070707070707070707070707070707BB
:1045900007070707070707070707070707070707AB
:1045A0000707070707080808080808080808080890
:1045B000080808080808080808080808080808087B
:1045C000080808080808080808080808080808086B
:1045D000080808080808080808080808080808085B
:1045E000080808080808080808080808080808084B
:1045F000080808080808080808080808080808083B
:10460000080808080808080808080808080808082A
:10461000080808080808080808080808080808081A
:104620000808080808FFFF02000000000000000062
:104630000000000000000000000000000000000278
:0846400002020200000100006B
:00000001FF
