:100000000C942A000C94D9150C9403160C942D16FC
:100010000C9447000C9447000C941F180C94CD17B7
:100020000C94F6170C94A4170C9447000C94C41667
:100030000C9447000C9447000C9447000C94470024
:100040000C9447000C9447000C9447000C94470014
:100050000C94470011241FBECFE5D8E0DEBFCDBF12
:1000600011E0A0E6B0E0E6E8FCE302C005900D92E6
:10007000A23BB107D9F711E0A2EBB1E001C01D929C
:10008000A73EB107E1F70E94781D0C94411E0C9425
:100090000000A2E7B0E0EFE4F0E00C940A1E982E16
:1000A000892E712E88E0FE013196DF01682E1D92A7
:1000B0006A94E9F729833A834B835C836D837E835B
:1000C0009F829887FE013996DF011D928A95E9F794
:1000D000A986BA86CB86DC86ED86FE860F87188BCE
:1000E0008D819E81AF81B885B7FD07C0E1961CAEBA
:1000F0001DAE1EAE1FAEE19764C0219581E01216C1
:1001000008F080E0319591E0131608F090E0B32FED
:10011000B81B81E03B1708F080E0982B419531E057
:10012000141608F030E0A42FA91B81E04A1708F04C
:1001300080E0382B519591E0151608F090E0F52FEE
:10014000F31B81E05F1708F080E0982B619531E0A8
:10015000161608F030E0E62FE91B81E06E1708F074
:1001600080E0382B719541E0171608F040E0572FDA
:10017000531B81E0751708F080E0482B892D81958D
:1001800091E0181608F090E0682E641A462D31E0D0
:10019000861508F030E0932B882D8195891B2983E3
:1001A000BA83AB83FC83ED835E834F8388872FEF15
:1001B0003FEF4FEF5FEFE1962CAF3DAF4EAF5FAF3C
:1001C000E1978D859E85AF85B889B7FF6AC0E196B6
:1001D0004CAD5DAD6EAD7FADE197409550956095AE
:1001E0007095E1964CAF5DAF6EAF7FAFE197A19494
:1001F00081E01A1408F080E0B19491E01B1408F03B
:1002000090E06B2D681B81E0B61608F080E0982B1B
:10021000C19421E01C1408F020E05C2D591B81E002
:10022000C51608F080E0282BD19491E01D1408F049
:1002300090E04D2D421B81E0D41608F080E0982B11
:10024000E19421E01E1408F020E03E2D391B81E0EE
:10025000E31608F080E0282BF19491E01F1408F0D9
:1002600090E07F2D721B272F81E0F71608F080E0C9
:10027000982B019511E0101608F010E0802F891BD3
:10028000982F81E0091708F080E0182B872D8195C1
:10029000811BA9866A875B874C873D872E879F874E
:1002A000888B99812A813B814C815D816E817F8120
:1002B000A885B9851A850B85FC84ED84DE84CF84FE
:1002C000B88888E0E1E18E2E912C8C0E9D1EF40101
:1002D000682E11926A94E9F7998B2A8B3B8B4C8B91
:1002E0005D8B6E8B7F8BA88F9E01275E3F4FF90140
:1002F00011928A95E9F7B98F1A8F0B8FFC8EED8ECC
:10030000DE8ECF8EB8A2298C3A8C4B8C5C8CED8C17
:10031000FE8C0F8D18A169887A888B889C8821961D
:100320006CAE7DAE8EAE9FAE21976D887E888F8835
:10033000988CE114F1040105110509F0D9C3621488
:1003400073048404950408F057C100E0201600E00F
:10035000300601E0400600E0500688F41FEF211649
:1003600031044104510439F030F048E0E42EF12C1E
:10037000012D112D18C0EE24FF24870114C020E0A8
:10038000221620E0320620E0420621E0520630F03C
:1003900038E1E32EF12C012D112D05C020E1E22ED4
:1003A000F12C012D112DD201C1010E2C04C0B695E6
:1003B000A795979587950A94D2F786599F4FDC01A8
:1003C0002C9180E290E0A0E0B0E08E199F09A00B94
:1003D000B10B7C018D01E21AF10801091109E11448
:1003E000F10401051105D1F10E2C04C0220C331CBF
:1003F000441C551C0A94D2F7A40193010E2C04C08E
:10040000220F331F441F551F0A94D2F780E290E059
:100410008E199F0921966CAC7DAC8EAC9FAC219758
:1004200004C096948794779467948A95D2F7622A49
:10043000732A842A952A2196ACACBDACCEACDFAC35
:10044000219704C0AA0CBB1CCC1CDD1CEA94D2F77B
:100450002196ACAEBDAECEAEDFAE21976201EE24EA
:10046000FF242996CCAEDDAEEEAEFFAE2997920109
:100470008101207030702D960CAF1DAF2EAF3FAFB5
:100480002D97C401B301A70196010E94E81D7B01CD
:100490008C01C401B30129962CAD3DAD4EAD5FADCD
:1004A00029970E94E81DC901DA013C014D01C401F0
:1004B000B3012D962CAD3DAD4EAD5FAD2D970E9495
:1004C000A91D9B01AC018701FF24EE242196ACAC51
:1004D000BDACCEACDFAC2197C601AA27BB27570124
:1004E0006801A82AB92ACA2ADB2AA216B306C406BA
:1004F000D506E0F408946108710881089108A20CFF
:10050000B31CC41CD51CA214B304C404D50470F0DD
:10051000A216B306C406D50648F40894610871080B
:1005200081089108A20CB31CC41CD51CA21AB30AE2
:10053000C40AD50AC601B50129962CAD3DAD4EAD14
:100540005FAD29970E94E81D7B018C01C601B501B2
:1005500029962CAD3DAD4EAD5FAD29970E94E81DAB
:10056000C901DA015C016D01C601B5012D962CAD02
:100570003DAD4EAD5FAD2D970E94A91D9B01AC0115
:100580008701FF24EE2421968CAD9DADAEADBFADAD
:100590002197A070B070E82AF92A0A2B1B2BE216CB
:1005A000F30604071507C0F40894A108B108C108B0
:1005B000D108E20CF31C041D151DE214F30404051C
:1005C000150550F0E216F3060407150728F4089401
:1005D000A108B108C108D108D3019927882786014D
:1005E0007501E82AF92A0A2B1B2B2596ECAEFDAEE5
:1005F0000EAF1FAF2597EBC4211431044104510401
:1006000071F461E070E080E090E020E030E040E0F4
:1006100050E00E94E81DC901DA011C012D0100E033
:10062000201600E0300601E0400600E0500688F4A5
:100630001FEF211631044104510431F028F048E045
:1006400050E060E070E017C040E050E060E070E033
:1006500012C020E0221620E0320620E0420621E00F
:10066000520628F048E150E060E070E004C040E14C
:1006700050E060E070E0D201C101042E04C0B695E4
:10068000A795979587950A94D2F786599F4FDC01D5
:100690002C91E0E2EE2EF12C012D112DD801C70195
:1006A000841B950BA60BB70B821B9109A109B109FD
:1006B0000097A105B10561F464015301A218B308C4
:1006C000C408D50831E0632E712C812C912C24C1F3
:1006D000E3968FAFE397082E04C0220C331C441C12
:1006E000551C0A94D2F7EE2DE81B640153010E2E1F
:1006F00004C0D694C794B794A7940A94D2F7A401DF
:100700009301E3960FACE39704C0220F331F441FFD
:10071000551F0A94D2F721966CAC7DAC8EAC9FAC81
:1007200021970E2E04C096948794779467940A9428
:10073000D2F784017301E22AF32A042B152BE9AEC8
:10074000FAAE0BAF1CAF32018824992492018101CB
:100750002070307061960CAF1DAF2EAF3FAF619728
:10076000C601B501A40193010E94E81D7B018C0123
:10077000C601B501A40193010E94E81DC901DA0177
:1007800065968CAF9DAFAEAFBFAF6597BC01CD0195
:1007900061962CAD3DAD4EAD5FAD61970E94A91D38
:1007A0009B01AC018701FF24EE24A9ACBAACCBAC11
:1007B000DCACC601AA27BB275C016D01AE28BF28AF
:1007C000C02AD12AA216B306C406D50660F56596DE
:1007D0006CAD7DAD8EAD9FAD659761507040804032
:1007E000904065966CAF7DAF8EAF9FAF6597A20CC2
:1007F000B31CC41CD51CA214B304C404D50498F0C3
:10080000A216B306C406D50670F46150704080404D
:10081000904065966CAF7DAF8EAF9FAF6597A20C91
:10082000B31CC41CD51CA21AB30AC40AD50AC6013B
:10083000B501A40193010E94E81D7B018C01C60152
:10084000B501A40193010E94E81DC901DA013C0130
:100850004D01C401B30161962CAD3DAD4EAD5FAD10
:1008600061970E94A91D9B01AC018701FF24EE2422
:1008700089AD9AADABADBCADA070B0705701680149
:10088000A82AB92ACA2ADB2AA216B306C406D506A4
:10089000E0F408946108710881089108A20CB31C67
:1008A000C41CD51CA214B304C404D50470F0A21651
:1008B000B306C406D50648F4089461087108810897
:1008C0009108A20CB31CC41CD51C21968CAD9DAD07
:1008D000AEADBFAD2197E3960FACE39704C0880F90
:1008E000991FAA1FBB1F0A94D2F721968CAF9DAF08
:1008F000AEAFBFAF2197A21AB30AC40AD50A659654
:10090000ECACFDAC0EAD1FAD6597D70199278827DC
:10091000682A792A8A2A9B2A820122273327699604
:100920000CAF1DAF2EAF3FAF6997A2019101407090
:1009300050706D962CAF3DAF4EAF5FAF6D97C60157
:10094000B50169962CAD3DAD4EAD5FAD69970E9486
:10095000E81D7B018C01C601B50169962CAD3DAD4A
:100960004EAD5FAD69970E94E81DC901DA01A196FD
:100970008CAF9DAFAEAFBFAFA197BC01CD016D965F
:100980002CAD3DAD4EAD5FAD6D970E94A91D9B0195
:10099000AC018701FF24EE242196ACACBDACCEACFB
:1009A000DFAC2197C601AA27BB2757016801A82AF7
:1009B000B92ACA2ADB2AA216B306C406D50660F5F0
:1009C000A1966CAD7DAD8EAD9FADA197615070408D
:1009D00080409040A1966CAF7DAF8EAF9FAFA19746
:1009E000A20CB31CC41CD51CA214B304C404D504AB
:1009F00098F0A216B306C406D50670F46150704094
:100A000080409040A1966CAF7DAF8EAF9FAFA19715
:100A1000A20CB31CC41CD51CA21AB30AC40AD50A62
:100A2000C601B50169962CAD3DAD4EAD5FAD699780
:100A30000E94E81D7B018C01C601B50169962CADB1
:100A40003DAD4EAD5FAD69970E94E81DC901DA0169
:100A50005C016D01C601B5016D962CAD3DAD4EAD8D
:100A60005FAD6D970E94A91D9B01AC018701FF241A
:100A7000EE2421968CAD9DADAEADBFAD2197A0709B
:100A8000B070E82AF92A0A2B1B2BE216F30604079A
:100A90001507C0F40894A108B108C108D108E20CF8
:100AA000F31C041D151DE214F3040405150550F094
:100AB000E216F3060407150728F40894A108B10804
:100AC000C108D108A196ECACFDAC0EAD1FADA1974D
:100AD000D7019927882796018501082B192B2A2BE6
:100AE0003B2B25960CAF1DAF2EAF3FAF259772C2A3
:100AF0006E147F048006910608F45FC220E0E216BF
:100B000020E0F20621E0020720E0120788F43FEF20
:100B1000E316F1040105110531F028F048E050E03A
:100B200060E070E017C040E050E060E070E012C0AC
:100B300040E0E41640E0F40640E0040741E014071A
:100B400028F048E150E060E070E004C040E150E08F
:100B500060E070E0D801C701042E04C0B695A795E7
:100B6000979587950A94D2F786599F4FDC012C916F
:100B700030E2A32EB12CC12CD12CD601C501841B8F
:100B8000950BA60BB70B821B9109A109B109009720
:100B9000A105B10599F4E614F7040805190508F450
:100BA000FEC121966CAC7DAC8EAC9FAC21976214DB
:100BB00073048404950408F0F2C1FFC1E2968FAF7C
:100BC000E297082E04C0EE0CFF1C001F111F0A94B0
:100BD000D2F76A2D681BD201C101062E04C0B6955A
:100BE000A795979587950A94D2F75C016D01AE2879
:100BF000BF28C02AD12AADAABEAACFAAD8AE7201F8
:100C00006101E2960FACE29704C0CC0CDD1CEE1C37
:100C1000FF1C0A94D2F7C9AADAAAEBAAFCAA6401BB
:100C20005301062E04C0D694C794B794A7940A948F
:100C3000D2F7D401C301E2960FACE29704C0880F4B
:100C4000991FAA1FBB1F0A94D2F72196ECACFDACEA
:100C50000EAD1FAD219704C016950795F794E79444
:100C60006A95D2F737014801682A792A8A2A9B2A8D
:100C70006DA67EA68FA698AAEDA8FEA80FA918AD0E
:100C80003801882499249801870120703070A59636
:100C90000CAF1DAF2EAF3FAFA597C601B501A401A4
:100CA00093010E94E81D7B018C01C601B501A401DE
:100CB00093010E94E81DC901DA011C012D01C20146
:100CC000B101A5962CAD3DAD4EAD5FADA5970E948F
:100CD000A91D9B01AC018701FF24EE24ADA4BEA495
:100CE000CFA4D8A8C601AA27BB2757016801A82A04
:100CF000B92ACA2ADB2AA216B306C406D50600F50D
:100D000008942108310841085108EDA8FEA80FA950
:100D100018ADAE0CBF1CC01ED11EAE14BF04C00661
:100D2000D10670F0A216B306C406D50648F408949E
:100D30002108310841085108AE0CBF1CC01ED11E4D
:100D4000A21AB30AC40AD50AC601B501A4019301C7
:100D50000E94E81D7B018C01C601B501A40193012D
:100D60000E94E81DC901DA013C014D01C401B30133
:100D7000A5962CAD3DAD4EAD5FADA5970E94A91DCA
:100D80009B01AC018701FF24EE248DA59EA5AFA594
:100D9000B8A9A070B07057016801A82AB92ACA2A58
:100DA000DB2AA216B306C406D50600F5089461082E
:100DB0007108810891086DA97EA98FA998ADA60E2A
:100DC000B71EC81ED91EA616B706C806D90670F0EB
:100DD000A216B306C406D50648F408946108710843
:100DE00081089108A60EB71EC81ED91ED601C501DE
:100DF000821B930BA40BB50B89A79AA7ABA7BCA723
:100E0000D1019927882764015301A82AB92ACA2A3F
:100E1000DB2A2596ACAEBDAECEAEDFAE2597860101
:100E200075012FEF3FEF40E050E0E222F322042370
:100E30001523A60166277727AD964CAF5DAF6EAF41
:100E40007FAFAD97A9A8BAA8CBA8DCA86FEF7FEFBA
:100E500080E090E0A622B722C822D92289A99AA9C7
:100E6000ABA9BCA91D0144245524C801B701A601A2
:100E700095010E94A91DA9966CAF7DAF8EAF9FAF63
:100E8000A997C801B701A20191010E94A91D3B01C8
:100E90004C01AD966CAD7DAD8EAD9FADAD97A6010D
:100EA00095010E94A91D7B018C01AD966CAD7DADB5
:100EB0008EAD9FADAD97A20191010E94A91D5B016E
:100EC0006C01A8019701260D371D481D591DA996D3
:100ED0006CAC7DAC8EAC9FACA997C401AA27BB2794
:100EE000280F391F4A1F5B1F2E153F05400751076A
:100EF00048F4E12CF12C61E0062F112DAE0CBF1C43
:100F0000C01ED11ECA01AA27BB27BC01CD016A0D94
:100F10007B1D8C1D9D1D69A47AA48BA49CA46616C0
:100F200077068806990650F16615770588059905B4
:100F300009F04DC0D90199278827A9962CAD3DAD60
:100F40004EAD5FADA99740705070820F931FA41FE4
:100F5000B51F21962CAD3DAD4EAD5FAD2197E2960C
:100F60000FACE29704C0220F331F441F551F0A9491
:100F7000D2F7281739074A075B0748F525960CADC5
:100F80001DAD2EAD3FAD25970150104020403040A3
:100F900025960CAF1DAF2EAF3FAF259718C0662426
:100FA0007724430121E030E040E050E025962CAF6B
:100FB0003DAF4EAF5FAF25970DC066247724430148
:100FC00025961CAE1DAE1EAE1FAE259703C066242F
:100FD00077244301FE01B19688E0DF011D928A95D6
:100FE000E9F72596ACACBDACCEACDFAC2597A9A299
:100FF000BAA2CBA2DCA26DA27EA28FA298A6229654
:101000002FAD22973AA14BA15CA1662D7EA1DFA056
:1010100098A5E196ECACFDAC0EAD1FADE197E114E7
:10102000F1040105110509F456C0219581E012165D
:1010300008F080E03195E1E0131608F0E0E0932E2F
:10104000981A81E0391508F080E0E82B4195F1E02D
:10105000141608F0F0E0A42EAE1A81E04A1508F04C
:1010600080E0F82B5195E1E0151608F0E0E0B52E90
:10107000BF1A81E05B1508F080E0E82B6195F1E094
:10108000161608F0F0E0A62FAE1B81E06A1708F0F4
:1010900080E0F82B7195E1E0171608F0E0E0C72E2C
:1010A000CF1A81E07C1508F080E0E82B8D2D81952A
:1010B000F1E0181608F0F0E0D82EDE1AE1E08D1508
:1010C00008F0E0E0FE2B892F8195392DA5016A2FCC
:1010D0007C2D982F9F1B8D2DCE58DF4FE2E10C9475
:1010E000261EA7E7B0E0E7E7F8E00C940A1E982E6A
:1010F000892E712E88E0FE013196DF01682E1D9247
:101100006A94E9F729833A834B835C836D837E83FA
:101110009F829887FE013996DF011D928A95E9F733
:10112000A986BA86CB86DC86ED86FE860F87188B6D
:101130008D819E81AF81B885B7FD07C0E1961CAE59
:101140001DAE1EAE1FAEE19764C0219581E0121660
:1011500008F080E0319591E0131608F090E0B32F8D
:10116000B81B81E03B1708F080E0982B419531E0F7
:10117000141608F030E0A42FA91B81E04A1708F0EC
:1011800080E0382B519591E0151608F090E0F52F8E
:10119000F31B81E05F1708F080E0982B619531E048
:1011A000161608F030E0E62FE91B81E06E1708F014
:1011B00080E0382B719541E0171608F040E0572F7A
:1011C000531B81E0751708F080E0482B892D81952D
:1011D00091E0181608F090E0682E641A462D31E070
:1011E000861508F030E0932B882D8195891B298383
:1011F000BA83AB83FC83ED835E834F8388872FEFB5
:101200003FEF4FEF5FEFE1962CAF3DAF4EAF5FAFDB
:10121000E1978D859E85AF85B889B7FF5AC0A194A7
:1012200081E01A1408F080E0B19491E01B1408F0FA
:1012300090E06B2D681B81E0B61608F080E0982BDB
:10124000C19421E01C1408F020E05C2D591B81E0C2
:10125000C51608F080E0282BD19491E01D1408F009
:1012600090E04D2D421B81E0D41608F080E0982BD1
:10127000E19421E01E1408F020E03E2D391B81E0AE
:10128000E31608F080E0282BF19491E01F1408F099
:1012900090E07F2D721B272F81E0F71608F080E089
:1012A000982B019511E0101608F010E0802F891B93
:1012B000982F81E0091708F080E0182B872D819581
:1012C000811BA9866A875B874C873D872E879F870E
:1012D000888B99812A813B814C815D816E817F81E0
:1012E000A885B9851A850B85FC84ED84DE84CF84BE
:1012F000B88888E0E9E18E2E912C8C0E9D1EF401B9
:10130000682E11926A94E9F7998F2A8F3B8F4C8F40
:101310005D8F6E8F7F8FA8A39E012F5D3F4FF901D8
:1013200011928A95E9F7B9A31AA30BA3FCA2EDA227
:10133000DEA2CFA2B8A629A03AA04BA05CA0ADA087
:10134000BEA0CFA0D8A4498D5A8D6B8D7C8DE5961B
:101350004FAFE597E6965FAFE697E7966FAFE797F3
:10136000E8967FAFE897E8966CAC7DAC8EAC9FAC0E
:10137000E8972D966CAE7DAE8EAE9FAE2D978D8D7F
:101380009E8D2F8D38A13C01490161966CAE7DAEDA
:101390008EAE9FAE6197A114B104C104D10409F0CF
:1013A00028C3621473048404950408F00EC100E09D
:1013B000201600E0300601E0400600E0500688F408
:1013C0001FEF211631044104510439F030F088E058
:1013D000E82EF12C012D112D18C0EE24FF248701D9
:1013E00014C020E0221620E0320620E0420621E070
:1013F000520630F0B8E1EB2EF12C012D112D05C075
:10140000A0E1EA2EF12C012D112DD201C1010E2CEB
:1014100004C0B695A795979587950A94D2F78659F3
:101420009F4FDC012C9180E290E0A0E0B0E08E19AB
:101430009F09A00BB10B5C016D01A21AB108C10894
:10144000D1086596ACAEBDAECEAEDFAE6597A11449
:10145000B104C104D10409F445C062966FAD62972E
:10146000062E04C0220C331C441C551C0A94D2F7CF
:10147000A4019301062E04C0220F331F441F551FE1
:101480000A94D2F780E290E08A199B09E896CCACE6
:10149000DDACEEACFFACE89704C0F694E794D794CB
:1014A000C7948A95D2F787017601E22AF32A042BA2
:1014B000152B6196ECAEFDAE0EAF1FAF6197E896AF
:1014C0000CAD1DAD2EAD3FADE89704C0000F111F50
:1014D000221F331F6A95D2F72D960CAF1DAF2EAF8A
:1014E0003FAF2D97320188249924A20191014070C9
:1014F000507069962CAF3DAF4EAF5FAF6997619664
:101500006CAD7DAD8EAD9FAD6197A40193010E943E
:10151000E81D7B018C0161966CAD7DAD8EAD9FADFC
:101520006197A40193010E94E81DCA01B90169965F
:101530002CAD3DAD4EAD5FAD69970E94A91D9B01DD
:10154000AC018701FF24EE242D96ACACBDACCEAC33
:10155000DFAC2D97C601AA27BB2757016801A82A2F
:10156000B92ACA2ADB2AA216B306C406D50690F405
:10157000A20CB31CC41CD51CA214B304C404D5040F
:1015800048F0A216B306C406D50620F4A20CB31C7C
:10159000C41CD51CA21AB30AC40AD50AC601B501D7
:1015A000A40193010E94E81D7B018C01C601B501D5
:1015B000A40193010E94E81DCA01B90169962CADEE
:1015C0003DAD4EAD5FAD6997C8C1211431044104F2
:1015D000510471F461E070E080E090E020E030E0E0
:1015E00040E050E00E94E81DC901DA011C012D0114
:1015F00000E0201600E0300601E0400600E0500662
:1016000088F41FEF211631044104510439F030F001
:1016100068E0E62EF12C012D112D18C0EE24FF24D8
:10162000870114C020E0221620E0320620E04206A6
:1016300021E0520630F058E1E52EF12C012D112D5C
:1016400005C040E1E42EF12C012D112DD201C10184
:101650000E2C04C0B695A795979587950A94D2F756
:1016600086599F4FDC012C9130E2A32EB12CC12C66
:10167000D12CD601C5018E199F09A00BB10B7C019D
:101680008D01E21AF108010911096596ECAEFDAE73
:101690000EAF1FAF6597E114F1040105110539F490
:1016A00064015301A218B308C408D508ECC06296BF
:1016B000FFAC6297E496FFAEE4970F2C04C0220CB7
:1016C000331C441C551C0A94D2F78A2D8F196401CF
:1016D0005301082E04C0D694C794B794A7940A94D3
:1016E000D2F7A401930104C0220F331F441F551FDA
:1016F000FA94D2F7E8966CAC7DAC8EAC9FACE897D0
:1017000004C096948794779467948A95D2F784015D
:101710007301E22AF32A042B152B2996ECAEFDAEB9
:101720000EAF1FAF299732018824992492018101BD
:10173000207030706D960CAF1DAF2EAF3FAF6D9720
:10174000C601B501A40193010E94E81D7B018C0133
:10175000C601B501A40193010E94E81DCA01B901A7
:101760006D962CAD3DAD4EAD5FAD6D970E94A91D40
:101770009B01AC018701FF24EE242996ACACBDACE3
:10178000CEACDFAC2997C601AA27BB275C016D014F
:10179000AE28BF28C02AD12AA216B306C406D50691
:1017A00090F4A20CB31CC41CD51CA214B304C40432
:1017B000D50448F0A216B306C406D50620F4A20C40
:1017C000B31CC41CD51CA21AB30AC40AD50AC6018C
:1017D000B501A40193010E94E81D7B018C01C601A3
:1017E000B501A40193010E94E81DCA01B9016D96DB
:1017F0002CAD3DAD4EAD5FAD6D970E94A91D9B0117
:10180000AC018701FF24EE2429968CAD9DADAEADD1
:10181000BFAD2997A070B07057016801A82AB92AF6
:10182000CA2ADB2AA216B306C406D50690F4A20C77
:10183000B31CC41CD51CA214B304C404D50448F0C2
:10184000A216B306C406D50620F4A20CB31CC41C11
:10185000D51CE896ECACFDAC0EAD1FADE897E49658
:101860000FACE49704C0EE0CFF1C001F111F0A947C
:10187000D2F72D96ECAEFDAE0EAF1FAF2D97A21A8C
:10188000B30AC40AD50A320188249924920181013D
:1018900020703070A1960CAF1DAF2EAF3FAFA19757
:1018A000C601B501A40193010E94E81D7B018C01D2
:1018B000C601B501A40193010E94E81DCA01B90146
:1018C000A1962CAD3DAD4EAD5FADA1970E94A91D77
:1018D0009B01AC018701FF24EE242D96ACACBDAC7E
:1018E000CEACDFAC2D97C601AA27BB2757016801F4
:1018F000A82AB92ACA2ADB2AA216B306C406D50624
:1019000090F4A20CB31CC41CD51CA214B304C404D0
:10191000D50448F0A216B306C406D50620F4A20CDE
:10192000B31CC41CD51CA21AB30AC40AD50AC6012A
:10193000B501A40193010E94E81D7B018C01C60141
:10194000B501A40193010E94E81DCA01B901A19645
:101950002CAD3DAD4EAD5FADA1970E94A91D9B0181
:10196000AC018701FF24EE242D968CAD9DADAEAD6C
:10197000BFAD2D97A070B070E82AF92A0A2B1B2B57
:10198000E216F3060407150790F4E20CF31C041D9D
:10199000151DE214F3040405150548F0E216F306DC
:1019A0000407150720F4E20CF31C041D151DE21AB0
:1019B000F30A040B150BD801C70162960FAC6297AE
:1019C00004C0B695A795979587950A94D2F789A7ED
:1019D0009AA7ABA7BCA71DA61EA61FA618AA898BEF
:1019E0008AA58A8B8BA58B8B8CA58C8B8DA58D8BDB
:1019F0002FC36A147B048C049D0448F4498B5A8BD2
:101A00006B8B7C8B8D8B9E8B2F8B388F27C300E04D
:101A1000A01600E0B00601E0C00600E0D00688F4A1
:101A20001FEFA116B104C104D10439F030F028E051
:101A3000E22EF12C012D112D18C0EE24FF24870178
:101A400014C020E0A21620E0B20620E0C20621E089
:101A5000D20630F098E1E92EF12C012D112D05C0B0
:101A600080E1E82EF12C012D112DD601C5010E2C9F
:101A700004C0B695A795979587950A94D2F786598D
:101A80009F4FDC012C9180E290E0A0E0B0E08E1945
:101A90009F09A00BB10B821B9109A109B109009705
:101AA000A105B10509F059C0A614B704C804D904AA
:101AB00070F0E896ECACFDAC0EAD1FADE897E2140B
:101AC000F3040405150518F4D801C7012FC0E896E2
:101AD0008CAD9DADAEADBFADE89782199309A40959
:101AE000B509A40193012A193B094C095D09AA24EF
:101AF000BB246501E8966CAC7DAC8EAC9FACE897DE
:101B0000681679068A069B0628F411E0A12EB12CEE
:101B1000C12CD12C79018A01EA18FB080C091D0996
:101B20006196ECAEFDAE0EAF1FAF619789A79AA785
:101B3000ABA7BCA761960CAD1DAD2EAD3FAD6197B7
:101B40000DA71EA72FA738AB898B8AA58A8B8BA5DB
:101B50008B8B8CA58C8B0D8B7BC2E3968FAFE39721
:101B6000A6019501082E04C0220F331F441F551FE4
:101B70000A94D2F710E2181BE2961FAFE297D20147
:101B8000C101012E04C0B695A795979587950A9433
:101B9000D2F75C016D01A22AB32AC42AD52A259660
:101BA000ACAEBDAECEAEDFAE259772016101E3965D
:101BB0000FACE39704C0CC0CDD1CEE1CFF1C0A9498
:101BC000D2F72196CCAEDDAEEEAEFFAE219764012A
:101BD0005301012E04C0D694C794B794A7940A94D5
:101BE000D2F7A4019301E3960FACE39704C0220F50
:101BF000331F441F551F0A94D2F7E8968CAD9DAD54
:101C0000AEADBFADE89704C0B695A79597958795FB
:101C10001A95D2F77C018D01E22AF32A042B152BA9
:101C2000E9AEFAAE0BAF1CAFE8960CAD1DAD2EAD14
:101C30003FADE897E3960FACE39704C0000F111F88
:101C4000221F331F0A94D2F70DAB1EAB2FAB38AF58
:101C500025962CAD3DAD4EAD5FAD25973A0188245C
:101C6000992440705070A5962CAF3DAF4EAF5FAF3A
:101C7000A597C601B501A40193010E94E81D7B014F
:101C80008C01C601B501A40193010E94E81DC901A0
:101C9000DA011C012D01C201B101A5962CAD3DADAB
:101CA0004EAD5FADA5970E94A91D9B01AC018701B8
:101CB000FF24EE24A9ACBAACCBACDCACC601AA279D
:101CC000BB2757016801A82AB92ACA2ADB2AA2160B
:101CD000B306C406D50610F508942108310841085A
:101CE00051082596ECACFDAC0EAD1FAD2597AE0CA2
:101CF000BF1CC01ED11EAE14BF04C006D10670F0BA
:101D0000A216B306C406D50648F408942108310883
:101D100041085108AE0CBF1CC01ED11EA21AB30A46
:101D2000C40AD50AC601B501A40193010E94E81DA9
:101D30007B018C01C601B501A40193010E94E81D3D
:101D4000C901DA013C014D01C401B301A5962CADD6
:101D50003DAD4EAD5FADA5970E94A91D9B01AC01A5
:101D60008701FF24EE2489AD9AADABADBCADA07068
:101D7000B07057016801A82AB92ACA2ADB2AA2161C
:101D8000B306C406D50610F50894610871088108E9
:101D9000910825966CAD7DAD8EAD9FAD2597A60EB5
:101DA000B71EC81ED91EA616B706C806D90670F0FB
:101DB000A216B306C406D50648F408946108710853
:101DC00081089108A60EB71EC81ED91ED601C501EE
:101DD000821B930BA40BB50B89AB9AABABABBCAB23
:101DE000D1019927882784017301E82AF92A0A2B4F
:101DF0001B2B8FEFA82E8FEFB82EC12CD12CAE202D
:101E0000BF20C022D12278010027112721966CAC77
:101E10007DAC8EAC9FAC21972FEF3FEF40E050E0C0
:101E2000622273228422952221966CAD7DAD8EAD07
:101E30009FAD2197AC0166277727AD964CAF5DAF7C
:101E40006EAF7FAFAD97C601B501A40193010E94AB
:101E5000A91DA9966CAF7DAF8EAF9FAFA997C601A4
:101E6000B501AD962CAD3DAD4EAD5FADAD970E94C9
:101E7000A91D1B012C01C801B701A40193010E94F7
:101E8000A91D5B016C01C801B701AD962CAD3DAD3C
:101E90004EAD5FADAD970E94A91D7B018C01A601DF
:101EA0009501220D331D441D551DA9966CAC7DACCA
:101EB0008EAC9FACA997C401AA27BB27280F391F56
:101EC0004A1F5B1F2A153B054C055D0548F4812C14
:101ED000912CE1E0AE2EB12CE80CF91C0A1D1B1D63
:101EE000CA01AA27BB2757016801A80EB91ECA1E3E
:101EF000DB1EA90133272227A9968CAD9DADAEAD7F
:101F0000BFADA997A070B070280F391F4A1F5B1F83
:101F1000E9A8FAA80BA91CA9EA14FB040C051D05E5
:101F200070F0AE14BF04C006D10689F56DA97EA974
:101F30008FA998AD621773078407950740F5DA01FA
:101F4000C90121966CAC7DAC8EAC9FAC21978619F3
:101F50009709A809B9092596ECACFDAC0EAD1FADEB
:101F60002597AE18BF08C00AD10AEE24FF248701C6
:101F7000281739074A075B0728F421E0E22EF12CE5
:101F8000012D112DAE18BF08C00AD10A02C0DA0116
:101F9000C9016DA87EA88FA898AC681A790A8A0A28
:101FA0009B0A09A91AA92BA93CA90A191B092C09E2
:101FB0003D09580169012224332421012DA93EA99C
:101FC0004FA958AD261537054805590528F481E075
:101FD000282E312C412C512C86017501E218F30872
:101FE00004091509A8019701E2960FACE29704C015
:101FF000220F331F441F551F0A94D2F7D401C30187
:10200000E3960FACE39704C0B695A795979587958F
:102010000A94D2F7282B392B4A2B5B2B29A73AA7F6
:102020004BA75CA7E3960FACE39704C01695079502
:10203000F794E7940A94D2F7EDA6FEA60FA718AB83
:10204000298B8AA58A8B8BA58B8B8CA58C8BED8A93
:102050008EA58E8B8FA58F8B88A9888FE1964CAD2E
:102060005DAD6EAD7FADE19741155105610571051F
:1020700009F467C089892A893B894C895D89AE89C1
:10208000BF89188DF82FF19591E01F1608F090E0A8
:10209000822F819521E0181608F020E0E82FE91B37
:1020A00091E08E1708F090E0292B832F819531E085
:1020B000181608F030E0782F721B91E0871708F0AF
:1020C00090E0392B842F819521E0181608F020E04C
:1020D000682F631B91E0861708F090E0292B852F6D
:1020E000819531E0181608F030E0582F521B91E02E
:1020F000851708F090E0392B8A2F819521E018167A
:1021000008F020E0482F431B91E0841708F090E08E
:10211000292B8B2F819591E0181608F090E0382F2D
:10212000321B21E0831708F020E0922B812F81954C
:10213000891BF98BEA8B7B8B6C8B5D8B4E8B3F8B7A
:10214000888F29893A894B895C896D897E898F8935
:10215000988DC958DF4FE2E10C94261EDC010097F0
:1021600011F483E008952091B201233010F082E051
:102170000895673010F081E00895822F90E0FC010F
:10218000EE0FFF1FEE0FFF1FE80FF91FED54FE4F7C
:10219000B183A0836383428381E084832F5F209394
:1021A000B20180E008959091B201E5EBF1E085E0A5
:1021B000989F900111242E0F3F1F52E041E00DC067
:1021C0008081882349F092818181981718F050838B
:1021D000428302C09F5F92833596E217F30781F72F
:1021E00008950F931F93CF93DF9310E001E013C086
:1021F000812F90E0EC01CC0FDD1FCC0FDD1FC80F4D
:10220000D91FCD54DE4F8A81823021F4E881F981D3
:1022100009950A831F5F8091B201181748F3DF9177
:10222000CF911F910F91089541E050E020E030E000
:1022300068EC70E048BB440F551F88EE93E0FB014B
:102240003197F1F70197D9F72F5F3F4F28303105CC
:1022500089F7089540E850E020E030E068EC70E055
:1022600048BB5595479588EE93E0FB013197F1F710
:102270000197D9F72F5F3F4F2830310589F708952F
:102280001F9380916A016AE00E94C81D192F87E19F
:1022900060E00E94701486E161E00E947014EDE637
:1022A000F1E0E10FF11D8081880F8BBB80ED97E09D
:1022B0000197F1F780916A018F5F80936A011F9106
:1022C00008958AE00E940815089588E00E94081584
:1022D000089580E06AE00E942E1B40916B015091AE
:1022E0006C019A0140E050E060E070E080E090E036
:1022F0000E94821980916B0190916C0101969093DC
:102300006C0180936B010895CF92DF92EF92FF9260
:102310000F931F93CF93DF936C01EB011DBC1CBC8B
:1023200080EE91E10E949F1780E00E9464170E9456
:1023300070171092C3011092C2018091C201909156
:10234000C3010397D0F36091E3017091E401209100
:10235000E5013091E601E090E101F090E201409169
:10236000E3015091E401621B730B80E090E0E41AFA
:10237000F50A00E010E0E60EF71E081F191F24E61C
:1023800030E040E050E00E94A91DA80197010E94A2
:10239000E81D288360E472E48FE090E0A8019701D3
:1023A0000E94E81DF6012083318342835383DF912D
:1023B000CF911F910F91FF90EF90DF90CF900895F4
:1023C0008091C2019091C301892B61F486B597B5C4
:1023D0009093E6018093E50181E00E94641781E01B
:1023E00090E011C08091C2019091C301019781F4E6
:1023F00086B597B59093E4018093E30180E00E9455
:10240000641782E090E09093C3018093C201089525
:102410008091C2019091C301029771F486B597B57E
:102420009093E2018093E1010E94741783E090E0B1
:102430009093C3018093C2010895DF92EF92FF92BF
:102440000F931F93CF93DF93182F092F0E945118DA
:10245000D82E212F302FC9017C0110E0C0E0D0E040
:1024600008C00E945118F70181937F01C80FD11D48
:102470001F5F1D15B0F30E945118082F0E945118BC
:1024800090E0382F20E010E0202B312BC217D3072B
:1024900009F491E0892FDF91CF911F910F91FF9067
:1024A000EF90DF9008951F93CF93DF93EC010E948C
:1024B0005118888310E007C01F5F0E945118FE0169
:1024C000E10FF11D8083FE01E10FF11D8081833258
:1024D00099F71082DF91CF911F9108956F927F92AB
:1024E0008F929F92AF92BF92CF92DF92EF92FF9224
:1024F0000F931F930E945118682E0E945118E82EC6
:102500000E945118A82E0E945118FF2400E010E0EC
:10251000102F0F2DFE2CEE24BB24CC24DD246501CE
:10252000BB24AA24EA28FB280C291D297724882407
:102530009924E628F7280829192990E0A0E0B0E0BE
:10254000B82FAA2799278827E82AF92A0A2B1B2BB4
:10255000B701C8011F910F91FF90EF90DF90CF90CE
:10256000BF90AF909F908F907F906F900895EF9263
:10257000FF921F93CF93DF937C0180E0C0E0D0E017
:1025800003C0CE0FD11D8F5FF701E80FF11DE08171
:10259000EE23B9F70E944D1810E003C00E944D18B9
:1025A0001F5FF701E10FF11D80818823B9F78C2FA0
:1025B0000E944D188D2F0E944D18DF91CF911F91D1
:1025C000FF90EF9008951F93CF93DF93EC0110E0FD
:1025D00003C00E944D181F5FFE01E10FF11D8081B5
:1025E0008823B9F783E20E944D18DF91CF911F91A4
:1025F0000895EF92FF920F931F937B018C01862F1A
:102600000E944D18BB27A12F902F8F2D0E944D188F
:10261000C801AA27BB270E944D18E12EFF240027DE
:1026200011278E2D0E944D181F910F91FF90EF9052
:102630000895813039F0813018F0823041F405C0BE
:102640003E9A01C03E983F9802C03E9A3F9A86B19A
:10265000887F86B986B16770862B86B93D98379A90
:102660000895982F8091C401882351F487B1807E0A
:1026700087B987B1892B87B9369A81E08093C401E5
:1026800008953699FECF1092C40124B135B1C90125
:102690000895FC0186B1829586958695837080FFAA
:1026A00002C080E0089584B195B191838083109237
:1026B000C40181E00895AF92BF92CF92DF92EF9272
:1026C000FF920F931F9397B1907E97B997B1982B74
:1026D00097B9369A12BE3699FECFA2B681E060E075
:1026E0000E942E1B2A2D30E040E050E060E070E0B8
:1026F00080E090E00E94821924B135B1C9011F9198
:102700000F91FF90EF90DF90CF90BF90AF90089522
:10271000982F969596959695482F4770613009F4B5
:1027200082C0613020F0623009F0C2C036C0913002
:1027300099F0913030F09230D1F0933009F0B8C078
:1027400021C02AB381E090E002C0880F991F4A950A
:10275000E2F7282B2ABB089527B381E090E002C05E
:10276000880F991F4A95E2F7282B27BB089524B3B9
:1027700081E090E002C0880F991F4A95E2F7282B6C
:1027800024BB089521B381E090E002C0880F991F17
:102790004A95E2F7282B21BB08959130B9F091308A
:1027A00030F0923011F1933009F082C02DC03AB36D
:1027B00081E090E001C0880F4A95EAF7282F209524
:1027C00023232ABB2BB3822B8BBB089537B381E025
:1027D00090E001C0880F4A95EAF7282F209523231F
:1027E00027BB28B3822B88BB089534B381E090E0E7
:1027F00001C0880F4A95EAF7282F2095232324BB90
:1028000025B3822B85BB089531B381E090E001C0F0
:10281000880F4A95EAF7282F2095232321BB22B35E
:10282000822B82BB08959130B9F0913030F0923014
:1028300011F1933009F03CC02DC08AB321E030E0A3
:1028400002C0220F331F4A95E2F7209582238ABBEC
:102850008BB328232BBB089587B321E030E002C05F
:10286000220F331F4A95E2F72095822387BB88B356
:10287000282328BB089584B321E030E002C0220F52
:10288000331F4A95E2F72095822384BB85B3282322
:1028900025BB089581B321E030E002C0220F331F31
:1028A0004A95E2F72095822381BB82B3282322BB7D
:1028B00008951F93CF93DF9310E0C0E0D0E0E12FA5
:1028C000F0E0E958FE4F812F60810E9488131F5F5E
:1028D0002196C032D10599F7DF91CF911F910895CC
:1028E000382F3770869586958695813009F181302D
:1028F00030F08230B1F1833009F064C04BC06130F8
:1029000059F42BB381E090E002C0880F991F3A95EB
:10291000E2F7282B2BBB08952BB381E090E002C097
:10292000880F991F3A95E2F7809582238BBB089513
:10293000613059F428B381E090E002C0880F991FFC
:102940003A95E2F7282B28BB089528B381E090E060
:1029500002C0880F991F3A95E2F78095822388BBC1
:102960000895613059F425B381E090E002C0880FEA
:10297000991F3A95E2F7282B25BB089525B381E0EE
:1029800090E002C0880F991F3A95E2F78095822364
:1029900085BB0895613059F422B381E090E002C014
:1029A000880F991F3A95E2F7282B22BB089522B38E
:1029B00081E090E002C0880F991F3A95E2F7809578
:1029C000822382BB0895282F277086958695869549
:1029D000813051F0813030F0823041F0833079F035
:1029E00080E0089589B303C086B301C083B390E04B
:1029F00002C0959587952A95E2F78170089580B376
:102A000090E002C0959587952A95E2F78170089528
:102A1000382F3770869586958695813091F0813074
:102A200028F08230C9F0833061F521C02BB381E0FA
:102A300090E002C0880F991F3A95E2F728272BBB38
:102A4000089528B381E090E002C0880F991F3A955D
:102A5000E2F7282728BB089525B381E090E002C063
:102A6000880F991F3A95E2F7282725BB089522B3CE
:102A700081E090E002C0880F991F3A95E2F728277D
:102A800022BB0895813049F0813028F0823039F03E
:102A9000833041F406C06BBB089568BB089565BBE5
:102AA000089562BB0895813041F0813018F0823082
:102AB00059F407C08BB7806402C08BB780688BBFA6
:102AC00008958BB780628BBF0895813041F08130CB
:102AD00018F0823059F407C08BB78F7B02C08BB7D8
:102AE0008F778BBF08958BB78F7D8BBF0895813013
:102AF00009F1813020F0823009F044C037C06130E4
:102B000051F0613028F0623061F06330D9F50CC0CB
:102B100085B78E7F02C085B7816085BF85B78D7F01
:102B200023C085B78E7F02C085B7816085BF85B71A
:102B300082601AC0613051F0613028F0623061F07B
:102B4000633001F50CC085B78B7F02C085B7846008
:102B500085BF85B7877F08C085B78B7F02C085B7E3
:102B6000846085BF85B7886085BF0895623019F09D
:102B7000633041F404C084B78F7B84BF089584B769
:102B8000806484BF0895813051F0813018F0823024
:102B900079F40AC07093CA016093C90108957093D3
:102BA000C8016093C70108957093C6016093C50181
:102BB00008951F920F920FB60F9211242F933F93F7
:102BC0004F935F936F937F938F939F93AF93BF9335
:102BD000EF93FF937894E091C901F091CA01309787
:102BE00009F00995FF91EF91BF91AF919F918F915E
:102BF0007F916F915F914F913F912F910F900FBEF9
:102C00000F901F90189578941F920F920FB60F9205
:102C100011242F933F934F935F936F937F938F93E1
:102C20009F93AF93BF93EF93FF93E091C701F09110
:102C3000C801309709F00995FF91EF91BF91AF91CD
:102C40009F918F917F916F915F914F913F912F91C4
:102C50000F900FBE0F901F9018951F920F920FB6F6
:102C60000F9211242F933F934F935F936F937F9312
:102C70008F939F93AF93BF93EF93FF93E091C50121
:102C8000F091C601309709F00995FF91EF91BF913E
:102C9000AF919F918F917F916F915F914F913F91F4
:102CA0002F910F900FBE0F901F9018956C9A6E9AEF
:102CB00008956C986E9A08958FB9779BFECF8FB167
:102CC00008958FB908958FB10895FC01779902C0D6
:102CD00080E008958FB1808381E00895813051F0C4
:102CE000813028F0823061F0833099F40CC083B7D2
:102CF0008F7B02C083B7806483BF83B7877F08C0A0
:102D000083B78F7B02C083B7806483BF83B788603B
:102D100083BF83B7887F83BF83B7862B83BF413050
:102D200051F0413028F0423061F04330B9F410C026
:102D300083B78F7E02C083B7806183BF83B78F7DE7
:102D400005C083B78F7E83BF83B7806283BF08953A
:102D500083B7806183BF83B7806283BF089589B7DB
:102D6000816089BF089589B78E7F89BF089589B72B
:102D7000826089BF089589B78D7F89BF0895909338
:102D8000D4018093D30108951F920F920FB60F9232
:102D900011242F933F934F935F936F937F938F9360
:102DA0009F93AF93BF93EF93FF938CE982BFE09122
:102DB000D301F091D401309709F00995FF91EF917B
:102DC000BF91AF919F918F917F916F915F914F9143
:102DD0003F912F910F900FBE0F901F90189582304A
:102DE000D9F0833028F4882341F0813081F50EC07A
:102DF0008330F1F0843059F51EC08FB58E7F8FBDC2
:102E00008FB58D7F8FBD8EB5877F0EC08FB58E7FBE
:102E10008FBD8FB58D7F14C08FB58E7F8FBD8FB561
:102E20008D7F8FBD8EB588608EBD8EB58F7E0EC0B6
:102E30008FB58E7F02C08FB581608FBD8FB58260E8
:102E40008FBD8EB588608EBD8EB580618EBD4130E0
:102E500051F0413028F0423061F0433099F40CC019
:102E60008FB58F7B02C08FB580648FBD8FB58F7794
:102E700008C08FB58F7B02C08FB580648FBD8FB5C2
:102E800080688FBD213051F0213028F0223061F070
:102E9000233099F40CC08FB58F7E02C08FB580614E
:102EA0008FBD8FB58F7D08C08FB58F7E02C08FB567
:102EB00080618FBD8FB580628FBD8EB5887F8EBDDE
:102EC0008EB5862B8EBD0895882321F48EB580643F
:102ED0008EBD0895813019F48EB58F7B8EBD089517
:102EE00089B7806289BF089589B78F7D89BF0895AA
:102EF00089B7846089BF089589B78B7F89BF08959A
:102F000089B7806189BF089589B78F7E89BF089589
:102F100089B7886089BF089589B7877F89BF089579
:102F20009093D2018093D10108959093D001809322
:102F3000CF0108959093CE018093CD010895909391
:102F4000CC018093CB0108951F920F920FB60F9280
:102F500011242F933F934F935F936F937F938F939E
:102F60009F93AF93BF93EF93FF93E091D101F091C3
:102F7000D201309709F00995FF91EF91BF91AF9180
:102F80009F918F917F916F915F914F913F912F9181
:102F90000F900FBE0F901F9018951F920F920FB6B3
:102FA0000F9211242F933F934F935F936F937F93CF
:102FB0008F939F93AF93BF93EF93FF93E091CF01D4
:102FC000F091D001309709F00995FF91EF91BF91F1
:102FD000AF919F918F917F916F915F914F913F91B1
:102FE0002F910F900FBE0F901F9018951F920F9268
:102FF0000FB60F9211242F933F934F935F936F93CC
:103000007F938F939F93AF93BF93EF93FF93E09141
:10301000CD01F091CE01309709F00995FF91EF9124
:10302000BF91AF919F918F917F916F915F914F91E0
:103030003F912F910F900FBE0F901F9018951F92E8
:103040000F920FB60F9211242F933F934F935F93DC
:103050006F937F938F939F93AF93BF93EF93FF9360
:10306000E091CB01F091CC01309709F00995FF91E7
:10307000EF91BF91AF919F918F917F916F915F91F0
:103080004F913F912F910F900FBE0F901F90189569
:1030900083E389B9539A549A08955D9BFECF8CB906
:1030A00008955F9BFECF8CB10895DF92EF92FF925F
:1030B0000F931F93CF93DF938CE061E00E94701415
:1030C0008DE061E00E9470148EE061E00E94701457
:1030D0008FE061E00E9470143EE2D32E00E010E029
:1030E0002CE0E22EE00E8E2D60E00E947014E801CC
:1030F000CC0FDD1FCC0FDD1FC956DE4F88E1F82E47
:103100008F2D0E94E314882331F4D8808F2D0E94E4
:10311000E3148823D9F3F39421968CE1F81681F710
:103120008E2D61E00E9470140F5F1F4F0430110557
:10313000B9F68D2DDF91CF911F910F91FF90EF90F8
:10314000DF900895EF92FF921F93182F81E061E0C6
:103150000E94701481E160E00E947014612F6295FA
:10316000617083E00E947014612F629566956170B2
:1031700084E00E947014612F629566956695617077
:1031800085E00E947014612F661F6627661F86E027
:103190000E94701482E061E00E94701480EDE82EBD
:1031A00087E0F82EC7010197F1F782E060E00E9406
:1031B0007014C7010197F1F7612F617083E00E94DD
:1031C0007014612F6695617084E00E9470141695EA
:1031D0001695612F617085E00E947014169511702C
:1031E00086E0612F0E94701482E061E00E947014FA
:1031F000C7010197F1F782E060E00E947014C701F7
:103200000197F1F71F91FF90EF900895EF92FF92D1
:103210001F93CF93DF9310E0C7E0D0E0E82EFF24A8
:10322000C7010C2E02C0959587950A94E2F780FF9E
:1032300002C011E004C0113011F010E004C0817030
:10324000805D0E94A21821978FEFCF3FD80741F7EA
:10325000DF91CF911F91FF90EF9008950F931F93EF
:10326000CF93DF93C7E0D0E0082F10E0C8010C2E09
:1032700002C0959587950A94E2F78170805D0E945F
:10328000A21821978FEFCF3FD80781F7DF91CF9119
:103290001F910F9108950E94A21808950F931F93F4
:1032A0008C0160E177E20E94D41D68EE73E00E9419
:1032B000D41D862F805D0E94A218C80168EE73E0BD
:1032C0000E94D41D64E670E00E94D41D862F805DAC
:1032D0000E94A218C80164E670E00E94D41D6AE052
:1032E00070E00E94D41D862F805D0E94A218C80144
:1032F0006AE070E00E94D41D805D0E94A2181F91B8
:103300000F9108952F923F924F925F926F927F920A
:103310008F929F92AF92BF92CF92DF92EF92FF92E5
:103320000F931F93DF93CF93CDB7DEB763970FB69D
:10333000F894DEBF0FBECDBF722E632E542E452EE5
:10334000262E872E982E392E822F832B842B852B89
:10335000862B872B8929892B21F480E30E94A218D0
:10336000B3C097FF60C0219591E0121608F090E07D
:10337000362D319551E0131608F050E0F32EF91A6E
:1033800091E03F1508F090E0592B452D419561E003
:10339000141608F060E0042F051B91E0401708F0B8
:1033A00090E0692B542D519571E0151608F070E0EE
:1033B000152F161B91E0511708F090E0792B622D24
:1033C0006195E1E0161608F0E0E0B62FB71B91E03A
:1033D0006B1708F090E0E92B782D7195F1E0171646
:1033E00008F0F0E0A72FAE1B91E07A1708F090E00C
:1033F000F92B892D8195E1E0181608F0E0E0982F6F
:103400009F1BF92F91E08F1708F090E0E92B319482
:10341000722E6F2C502E412E2B2E8A2E9F2E3E1A4E
:103420008DE20E94A218FE01319680E1DF011D921B
:103430008A95E9F7198AE1E0F0E0EC0FFD1F298990
:10344000E20FF11DFB8BEA8B272D362D452D542DD8
:10345000622D782D892D932DEAE0AE2EBB24CC244D
:10346000DD24EE24FF2400E010E00E947108205DBE
:10347000AA89BB892C93B989BF5FB98B272D362DBB
:10348000452D542D622D782D892D932D0E944900B4
:10349000722E632E542E452E262E872E982E392ED0
:1034A000822F8629852984298229882989298329A7
:1034B00011F6198907C0FE01E10FF11D80810E94FC
:1034C000A21811501123B9F763960FB6F894DEBF16
:1034D0000FBECDBFCF91DF911F910F91FF90EF9065
:1034E000DF90CF90BF90AF909F908F907F906F9024
:1034F0005F904F903F902F9008951F93CF93DF934D
:10350000EC0110E003C00E94A2181F5FFE01E10F52
:10351000F11D80818823B9F7DF91CF911F91089524
:10352000EF92FF921F93182F81E060E00E947014C9
:1035300081E160E00E947014612F6295617083E008
:103540000E947014612F62956695617084E00E94FC
:103550007014612F629566956695617085E00E9492
:103560007014612F661F6627661F86E00E94701424
:1035700082E061E00E947014F0EDEF2EF7E0FF2E84
:10358000C7010197F1F782E060E00E947014C70163
:103590000197F1F7612F617083E00E947014612F31
:1035A0006695617084E00E94701416951695612FDF
:1035B000617085E00E9470141695117086E0612F8D
:1035C0000E94701482E061E00E947014C7010197AC
:1035D000F1F782E060E00E947014C7010197F1F7F3
:1035E0001F91FF90EF9008950F931F93CF93DF9358
:1035F0008C01862F880F880F880F805C0E94901A9C
:10360000C0E0D0E0F801EC0FFD1F80810E94A218FD
:103610002196C830D105B1F7DF91CF911F910F915D
:1036200008950F931F93CF93DF938C01862F880FFC
:10363000880F880F805C0E94901AC0E0D0E0F801EB
:10364000EC0FFD1F80810E94A2182196C830D10581
:10365000B1F7DF91CF911F910F910895882329F43D
:10366000862F80580E94901A0895813021F4862F69
:1036700080540E94901A0895AF92BF92CF92DF9229
:10368000EF92FF920F931F93D22EC32EB42EA52E2E
:103690000E942E1B9701A8016D2D7C2D8B2D9A2D3C
:1036A0000E9482191F910F91FF90EF90DF90CF90B1
:1036B000BF90AF90089581E00E94901A08950F93F3
:1036C0001F9384EF91E028EC30E0F9013197F1F796
:1036D0000197D9F782E00E94901A00ED17E0C80127
:1036E0000197F1F788E20E94901AC8010197F1F75B
:1036F0008CE00E94901AC8010197F1F781E00E94C6
:10370000901A80EA9FE00197F1F786E00E94901AF4
:10371000C8010197F1F71F910F910895DF92EF9281
:10372000FF920F931F93D82E87E160E00E947014E0
:1037300086E161E00E9470148D2D6AE00E94C81D30
:1037400007EA11E0F801E90FF11D8081880F8BBBBA
:1037500080EDE82E87E0F82EC7010197F1F787E1A9
:1037600061E00E94701486E160E00E9470148D2D6B
:103770006AE00E94C81D080F111DF8018081880FA2
:103780008BBBC7010197F1F71F910F91FF90EF904D
:10379000DF90089581E00E945B13A0E0B0E0BC01DF
:1037A000CD0128E833E140E050E00E94A91D9B01D3
:1037B000AC018AE056954795379527958A95D1F7BC
:1037C000C901089580E00E945B13A0E0B0E0BC0155
:1037D000CD0128E833E140E050E00E94A91D9B01A3
:1037E000AC019AE056954795379527959A95D1F76C
:1037F000C90108958FE19EE497BD86BD87E592E0FB
:103800009BBD8ABD089590E0A0E0B0E0BC01CD0171
:1038100020ED37E040E050E00E94A91D24EB30E0AD
:1038200040E050E00E94E81D295A3D4F3BBD2ABDB3
:1038300008958091D5019091D60101969093D6017B
:103840008093D50108951F93182F61E00E94701492
:103850008AE18A95F1F7812F60E00E9470148EE171
:103860000E94E3148823D9F31DBC1CBC12E00CC0D9
:10387000812F8A95F1F78091D5019091D60101961B
:103880009093D6018093D5018EE10E94E3148823A2
:1038900079F78CB59DB58091D5019091D6016AE3F9
:1038A00070E00E94D41D862F1F9108950F931F93DF
:1038B000CF93DF93EC018091D7019091D8010297CB
:1038C00011F080E025C00091DB011091DC01209116
:1038D000D9013091DA016091D5017091D601021BB6
:1038E000130B80E090E02FEF3FEF40E050E00E94AC
:1038F000A91D060F171FC8016AE370E00E94D41DBE
:1039000068830E9478171092D8011092D70181E045
:10391000DF91CF911F910F9108951F93182F8091E0
:10392000D7019091D801892B91F4812F61E00E94F9
:1039300070148AE18A95F1F7812F60E00E9470147B
:1039400080E00E9464170E9470170E9478171F91F0
:103950000895CF92DF92EF92FF920F931F93182F4B
:103960001092D6011092D5011092D8011092D70171
:1039700061E00E9470148AE18A95F1F7812F60E07E
:103980000E94701480E00E9464170E94701780915A
:10399000D7019091D8010297D0F3C090DB01D0906D
:1039A000DC01E090D901F090DA010091D50110918D
:1039B000D6010E94741780E29EE49C01029FC00120
:1039C000039F900D129F900D11248E199F098C0D4D
:1039D0009D1D6AE370E00E94D41D862F1F910F91F8
:1039E000FF90EF90DF90CF90089589E19CE10E94D5
:1039F00090178EEF9CE10E949F1708958091D70148
:103A00009091D801892BA1F41092D6011092D50182
:103A100086B597B59093DA018093D90181E090E063
:103A20009093D8018093D70181E00E946417089594
:103A30008091D7019091D801019799F486B597B5F7
:103A40009093DC018093DB0182E090E09093D801B9
:103A50008093D70180E00E9464170E947C170E9427
:103A60007417089580E491E161E041E00E94AE1096
:103A70000895DF93CF93CDB7DEB72A970FB6F894AA
:103A8000DEBF0FBECDBFDE011196E0E6F0E08AE0BA
:103A900001900D928150E1F762E040E00E946E16C5
:103AA0000E94AF1683E89DE10E94BF1678940E94A1
:103AB000591488E060E00E9488138AE060E00E9468
:103AC000881388E060E00E9470148AE060E00E9441
:103AD00070140E945F1BCE0101960E947D1A2A96E7
:103AE0000FB6F894DEBF0FBECDBFCF91DF91089522
:103AF0000E94391D80E491E161E041E00E94AE1036
:103B00000E94F110FDCF8091DF019091E0010196BC
:103B10009093E0018093DF010A9768F01092E00132
:103B20001092DF018091DD019091DE01019690936A
:103B3000DE018093DD018091DD019091DE01885EE0
:103B4000934030F00E94D3101092DE011092DD01FC
:103B50000895629FD001739FF001829FE00DF11DD7
:103B6000649FE00DF11D929FF00D839FF00D749FF7
:103B7000F00D659FF00D9927729FB00DE11DF91FA3
:103B8000639FB00DE11DF91FBD01CF011124089500
:103B9000991B79E004C0991F961708F0961B881F9F
:103BA0007A95C9F780950895AA1BBB1B51E107C000
:103BB000AA1FBB1FA617B70710F0A61BB70B881FBD
:103BC000991F5A95A9F780959095BC01CD0108954C
:103BD000A1E21A2EAA1BBB1BFD010DC0AA1FBB1F11
:103BE000EE1FFF1FA217B307E407F50720F0A21B83
:103BF000B30BE40BF50B661F771F881F991F1A94F0
:103C000069F760957095809590959B01AC01BD0119
:103C1000CF0108952F923F924F925F926F927F92C1
:103C20008F929F92AF92BF92CF92DF92EF92FF92CC
:103C30000F931F93CF93DF93CDB7DEB7CA1BDB0B78
:103C40000FB6F894DEBF0FBECDBF09942A8839881D
:103C500048885F846E847D848C849B84AA84B98424
:103C6000C884DF80EE80FD800C811B81AA81B98130
:103C7000CE0FD11D0FB6F894DEBF0FBECDBFED0144
:063C80000895F894FFCF47
:103C86005365636F6E64733A2000000102020303FA
:103C960003030404040404040404050505050505DA
:103CA60005050505050505050505060606060606B8
:103CB600060606060606060606060606060606069E
:103CC6000606060606060606060607070707070788
:103CD600070707070707070707070707070707076E
:103CE600070707070707070707070707070707075E
:103CF600070707070707070707070707070707074E
:103D06000707070707070707070708080808080837
:103D1600080808080808080808080808080808081D
:103D2600080808080808080808080808080808080D
:103D360008080808080808080808080808080808FD
:103D460008080808080808080808080808080808ED
:103D560008080808080808080808080808080808DD
:103D660008080808080808080808080808080808CD
:103D760008080808080808080808080808080808BD
:103D8600080808080808080808080101003F065B3B
:103D96004F666D7D077F6F01000000000000000088
:103DA600000000000000000000000000000000020B
:103DB600020202000001003738392F3435362A3125
:103DC60032332D63303D2B3F065B4F666D7D077F9B
:023DD6006F007C
:00000001FF
