:1000000029C00000E7C300000EC4000036C4000091
:100010003CC000003AC00000DEC400008AC40000FA
:10002000B1C400005DC4000030C000002EC000005C
:100030004DC4000028C5000028C00000FBC400001B
:1000400024C000004BC5000020C000001EC00000FE
:100050001CC0000011241FBECFE5D8E0DEBFCDBF1D
:1000600010E0A0E6B0E0E8EFFBE002C005900D92E2
:10007000A638B107D9F720E0A6E8B0E001C01D928C
:10008000AD39B207E1F781D1B5C5BACFCF93C0E1A1
:1000900061E08C2FE1D2CF5FC431D1F7CF910895C9
:1000A000CF93C82F60E081E0D7D26C2F661F662700
:1000B000661F86E0D1D2C6FB662760F985E0CCD208
:1000C000C5FB662760F984E0C7D2C4FB662760F9E8
:1000D00083E0C2D261E082E0BFD28FEC97E001976B
:1000E000F1F700C0000060E082E0B6D28FEC97E04C
:1000F0000197F1F700C00000C3FB662760F986E0B6
:10010000ABD2C2FB662760F985E0A6D2C1FB6627A9
:1001100060F984E0A1D26C2F617083E09DD261E030
:1001200082E09AD28FEC97E00197F1F700C00000CF
:1001300060E082E091D28FEC97E00197F1F700C088
:100140000000CF910895CF93C82F61E081E084D261
:100150006C2F661F6627661F86E07ED2C6FB662769
:1001600060F985E079D2C5FB662760F984E074D236
:10017000C4FB662760F983E06FD261E082E06CD255
:100180008FEC97E00197F1F700C0000060E082E09B
:1001900063D28FEC97E00197F1F700C00000C3FB3A
:1001A000662760F986E058D2C2FB662760F985E0D1
:1001B00053D2C1FB662760F984E04ED26C2F617088
:1001C00083E04AD261E082E047D28FEC97E001976A
:1001D000F1F700C0000060E082E03ED28FEC97E0D3
:1001E0000197F1F700C00000CF9108952FE788E351
:1001F00091E0215080409040E1F700C0000082E093
:100200004FDF88E24DDF8CE04BDF81E049DF8FEC90
:1002100097E00197F1F700C0000086E041CF81111F
:1002200002C080E803C0813019F480EC860F38CF1B
:100230000895CF93DF93FC012081222311F0EC017C
:1002400004C080E3DF91CF917ECF8991882359F05C
:100250007ADFFFEF20E782E0F15020408040E1F7B5
:1002600000C00000F2CFDF91CF9108954F925F92CE
:100270006F927F92AF92BF92CF92DF92EF92FF92F6
:100280000F931F93CF93DF93CDB7DEB764970FB66D
:10029000F894DEBF0FBECDBF6B017C016115710507
:1002A00081059105B1F480E364960FB6F894DEBF42
:1002B0000FBECDBFDF91CF911F910F91FF90EF90B7
:1002C000DF90CF90BF90AF907F906F905F904F90F6
:1002D0003ACF97FF0AC08DE236DFF094E094D094D5
:1002E000C094C11CD11CE11CF11C10E09AE0492E05
:1002F000512C612C712C01E0010FAA24A394B12C84
:10030000AC0EBD1EA10EB11C17FDBA94C701B601FB
:10031000A301920144D4605DF501608369017A0113
:10032000C114D104E104F10411F0102FE4CFE1E095
:10033000F0E0EC0FFD1FE00FF11D07FDFA951082B4
:1003400017FD0CC0E1E0F0E0EC0FFD1FE10FF11D27
:1003500017FDFA958081F7DE1150F2CF64960FB643
:10036000F894DEBF0FBECDBFDF91CF911F910F91EB
:10037000FF90EF90DF90CF90BF90AF907F906F9005
:100380005F904F90089587E06FC0CF93DF9300D0C8
:10039000CDB7DEB775D02ADF79DE46D3789466E034
:1003A00081E043D060E080E157D160E081E154D149
:1003B00060E082E151D11A82198210E0CC24CA9403
:1003C00083E0D82EE12CF12C60E080E028DFDBDF39
:1003D0009A83898369817A8180E090E047DF60E0D9
:1003E00080E01DDF87E036D09A83898329813A81B6
:1003F000A8E8B3E1F0D3A7019601AFD33A832983EC
:1004000069817A8180E090E031DF80E890E011DF5F
:1004100001E0010F612F70E080E090E027DF0A30FB
:1004200011F0102FD1CF00E0FCCF813041F028F047
:10043000823039F43E9A3F9A04C03E9801C03E9AF9
:100440003F9886B1887F86B986B16770682B66B998
:10045000379A089597B1907E97B997B1892B87B94C
:10046000369A84B195B10895F5DF9C01A8E8B3E10F
:10047000B2D32FEF33E040E050E06FD3C9010895CD
:10048000EF92FF921F93CF93DF93C0E6D0E048EF47
:100490005FEF60EF7FEFA8EEBFEFE0E0F0E081E01C
:1004A00090E02991E830B0F5213019F198F0223030
:1004B00009F0C2C01AB37C010E2E02C0EE0CFF1C64
:1004C0000A94E2F797013E2D309531233ABB3BB3B6
:1004D000232B1EC01AB37C010E2E02C0EE0CFF1C93
:1004E0000A94E2F79701312F322B3ABB3BB32095A8
:1004F0000EC01AB37C010E2E02C0EE0CFF1C0A9433
:10050000E2F797012095312F32233ABB3BB32323E7
:100510002BBB92C0483080F52130F9F088F02230B2
:1005200009F08AC017B39C01042E01C0220F0A945F
:10053000EAF7322F3095312337BB38B3232B1AC05B
:1005400017B39C01042E01C0220F0A94EAF7312F41
:10055000322B37BB38B320950CC017B39C01042E47
:1005600001C0220F0A94EAF72095312F322337BBBE
:1005700038B3232328BB60C0683080F52130F9F000
:1005800088F0223009F058C014B39C01062E01C037
:10059000220F0A94EAF7322F3095312334BB35B35A
:1005A000232B1AC014B39C01062E01C0220F0A94FB
:1005B000EAF7312F322B34BB35B320950CC014B37E
:1005C0009C01062E01C0220F0A94EAF72095312FD4
:1005D000322334BB35B3232325BB2EC02130F1F0A9
:1005E00080F0223049F511B39C010A2E01C0220F80
:1005F0000A94EAF7322F3095312331BB32B3232BE3
:100600001AC011B39C010A2E01C0220F0A94EAF706
:10061000312F322B31BB32B320950CC011B39C016A
:100620000A2E01C0220F0A94EAF72095312F3223B7
:1006300031BB32B3232322BB319611966F5F7F4FBC
:100640004F5F5F4FE032F10509F02BCFDF91CF9183
:100650001F91FF90EF900895982F9770869586953B
:1006600086956130C1F5813091F028F08230D9F063
:10067000833029F108954BB321E030E0B90102C085
:10068000660F771F9A95E2F7CB01842B38C048B3E9
:1006900021E030E0B90102C0660F771F9A95E2F7BA
:1006A000CB01842B3AC045B321E030E0B90102C050
:1006B000660F771F9A95E2F7CB01842B3CC042B3BB
:1006C00021E030E0B90102C0660F771F9A95E2F78A
:1006D000CB01842B3EC08130A1F028F08230F9F0AC
:1006E000833059F108954BB321E030E0B90102C0E5
:1006F000660F771F9A95E2F7CB01809584238BBB19
:10070000089548B321E030E0B90102C0660F771FB9
:100710009A95E2F7CB018095842388BB089545B371
:1007200021E030E0B90102C0660F771F9A95E2F729
:10073000CB018095842385BB089542B321E030E04E
:10074000B90102C0660F771F9A95E2F7CB01809539
:10075000842382BB0895282F2770883050F43BB340
:1007600081E090E001C0880F2A95EAF783278BBBD0
:10077000089598EF980F983050F438B381E090E0E6
:1007800001C0880F2A95EAF7832788BB089590EF68
:10079000980F983050F435B381E090E001C0880F95
:1007A0002A95EAF7832785BB08958851883048F455
:1007B00032B381E090E001C0880F2A95EAF78327E1
:1007C00082BB0895E199FECF9FBB8EBB6DBBE29AC1
:1007D000E19A08951F920F920FB60F9211242F9352
:1007E0003F934F935F936F937F938F939F93AF93B9
:1007F000BF93EF93FF93E0918C00F0918D003097C1
:1008000009F00995FF91EF91BF91AF919F918F9161
:100810007F916F915F914F913F912F910F900FBEFC
:100820000F901F90189578941F920F920FB60F9209
:1008300011242F933F934F935F936F937F938F93E5
:100840009F93AF93BF93EF93FF93E0918A00F09152
:100850008B00309709F00995FF91EF91BF91AF910F
:100860009F918F917F916F915F914F913F912F91C8
:100870000F900FBE0F901F9018951F920F920FB6FA
:100880000F9211242F933F934F935F936F937F9316
:100890008F939F93AF93BF93EF93FF93E091880063
:1008A000F0918900309709F00995FF91EF91BF9180
:1008B000AF919F918F917F916F915F914F913F91F8
:1008C0002F910F900FBE0F901F9018951F920F92AF
:1008D0000FB60F9211240F900FBE0F901F90189516
:1008E0001F920F920FB60F9211242F933F934F93A5
:1008F0005F936F937F938F939F93AF93BF93EF9388
:10090000FF93E0919400F0919500309709F00995DC
:10091000FF91EF91BF91AF919F918F917F916F91D7
:100920005F914F913F912F910F900FBE0F901F90AD
:1009300018951F920F920FB60F9211242F933F9389
:100940004F935F936F937F938F939F93AF93BF93D7
:10095000EF93FF93E0919200F0919300309709F0AC
:100960000995FF91EF91BF91AF919F918F917F91E9
:100970006F915F914F913F912F910F900FBE0F900C
:100980001F9018951F920F920FB60F9211242F935C
:100990003F934F935F936F937F938F939F93AF9307
:1009A000BF93EF93FF93E0919000F0919100309707
:1009B00009F00995FF91EF91BF91AF919F918F91B0
:1009C0007F916F915F914F913F912F910F900FBE4B
:1009D0000F901F9018951F920F920FB60F9211242F
:1009E0002F933F934F935F936F937F938F939F9337
:1009F000AF93BF93EF93FF93E0918E00F0918F0040
:100A0000309709F00995FF91EF91BF91AF919F91B8
:100A10008F917F916F915F914F913F912F910F90A7
:100A20000FBE0F901F90189583E389B95998539A78
:100A3000549A08951F920F920FB60F9211242F937C
:100A40003F934F935F936F937F938F939F93AF9356
:100A5000BF93EF93FF93E0919800F0919900309746
:100A600009F00995FF91EF91BF91AF919F918F91FF
:100A70007F916F915F914F913F912F910F900FBE9A
:100A80000F901F9018951F920F920FB60F9211247E
:100A90002F933F934F935F936F937F938F939F9386
:100AA000AF93BF93EF93FF9380E155DEE091960003
:100AB000F0919700309709F00995FF91EF91BF9160
:100AC000AF919F918F917F916F915F914F913F91E6
:100AD0002F910F900FBE0F901F9018951F920F929D
:100AE0000FB60F9211242F933F934F935F936F9301
:100AF0007F938F939F93AF93BF93EF93FF938091D7
:100B00009A00E0919B00F0919C00E80FF11D90810C
:100B1000933211F4E39810C08F5F80939A00608144
:100B200080918600909187009C012F5F3F4F30930A
:100B300087002093860046DEFF91EF91BF91AF9131
:100B40009F918F917F916F915F914F913F912F91E5
:100B50000F900FBE0F901F901895A1E21A2EAA1B9E
:100B6000BB1BFD010DC0AA1FBB1FEE1FFF1FA2175D
:100B7000B307E407F50720F0A21BB30BE40BF50B5A
:100B8000661F771F881F991F1A9469F760957095E3
:100B9000809590959B01AC01BD01CF010895052E74
:100BA00097FB16F400940FD057FD05D0D6DF07FC55
:100BB00002D046F408C050954095309521953F4F9E
:100BC0004F4F5F4F089590958095709561957F4F39
:100BD0008F4F9F4F0895A29FB001B39FC001A39F65
:100BE000700D811D1124911DB29F700D811D112466
:080BF000911D0895F894FFCF58
:100BF80001000000000000010000000000000000EB
:100C080000000000020202020100020200000200CD
:060C180020202020000056
:00000001FF
