:100000000C942A000C9447000C9447000C94470071
:100010000C9447000C9447000C9447000C94470044
:100020000C9447000C9447000C9447000C94470034
:100030000C9447000C9447000C9447000C94470024
:100040000C9447000C9447000C9447000C94470014
:100050000C94470011241FBECFE5D8E0DEBFCDBF12
:1000600010E0A0E6B0E0E2EDFCE002C005900D92E9
:10007000A23DB107D9F720E0A2EDB0E001C01D928A
:10008000A23DB207E1F70E948E030C9467060C9420
:100090000000CF93C0E161E08C2F0E946805CF5F24
:1000A000C431C9F7CF910895DF92EF92FF920F9379
:1000B0001F93CF93DF9390E8E92E90E0F92EC0E1F3
:1000C000D4E560E08C2F0E94680500E010E088E134
:1000D000D82ED00E8D2D0E94E70581110FC0F7019B
:1000E000E00FF11FD0818FE19EE40197F1F700C08E
:1000F00000008D2D0E94E7058823D9F30F5F1F4F65
:100100000430110521F761E08C2F0E946805CF5F54
:1001100094E0E90EF11CC431A1F68D2FDF91CF914F
:100120001F910F91FF90EF90DF900895CF93C82F0C
:1001300060E081E00E9468056C2F661F6627661FDD
:1001400086E00E946805C6FB662760F985E00E948C
:100150006805C5FB662760F984E00E946805C4FB5A
:10016000662760F983E00E94680561E082E00E94F2
:1001700068058FEC97E00197F1F700C0000060E0A0
:1001800082E00E9468058FEC97E00197F1F700C0CC
:100190000000C3FB662760F986E00E946805C2FB89
:1001A000662760F985E00E946805C1FB662760F953
:1001B00084E00E9468056C2F617083E00E946805EE
:1001C00061E082E00E9468058FEC97E00197F1F70B
:1001D00000C0000060E082E00E9468058FEC97E0BC
:1001E0000197F1F700C00000CF910895CF93C82F79
:1001F00061E081E00E9468056C2F661F6627661F1C
:1002000086E00E946805C6FB662760F985E00E94CB
:100210006805C5FB662760F984E00E946805C4FB99
:10022000662760F983E00E94680561E082E00E9431
:1002300068058FEC97E00197F1F700C0000060E0DF
:1002400082E00E9468058FEC97E00197F1F700C00B
:100250000000C3FB662760F986E00E946805C2FBC8
:10026000662760F985E00E946805C1FB662760F992
:1002700084E00E9468056C2F617083E00E9468052D
:1002800061E082E00E9468058FEC97E00197F1F74A
:1002900000C0000060E082E00E9468058FEC97E0FB
:1002A0000197F1F700C00000CF9108952FE788E390
:1002B00091E0215080409040E1F700C0000082E0D2
:1002C0000E94960088E20E9496008CE00E949600B0
:1002D00081E00E9496008FEC97E00197F1F700C053
:1002E000000086E00C9496000C94F600811102C088
:1002F00080E803C0813021F480EC860F0C949600D6
:100300000895CF93DF93FC012081222311F0EC01AB
:1003100005C080E3DF91CF910C94F600899188238A
:1003200061F00E94F600FFEF20E782E0F1502040EC
:100330008040E1F700C00000F1CFDF91CF91089538
:100340004F925F926F927F92AF92BF92CF92DF9265
:10035000EF92FF920F931F93CF93DF93CDB7DEB74A
:1003600064970FB6F894DEBF0FBECDBF6B017C0162
:100370006115710581059105B9F480E364960FB6A6
:10038000F894DEBF0FBECDBFDF91CF911F910F91CB
:10039000FF90EF90DF90CF90BF90AF907F906F90E5
:1003A0005F904F900C94F60097FF0BC08DE20E9477
:1003B000F600F094E094D094C094C11CD11CE11CD0
:1003C000F11C10E09AE0492E512C612C712C01E0B7
:1003D000010FAA24A394B12CAC0EBD1EA10EB11C1A
:1003E00017FDBA94C701B601A30192010E94040649
:1003F000605DF501608369017A01C114D104E104F3
:10040000F10411F0102FE3CFE1E0F0E0EC0FFD1F5D
:10041000E00FF11D07FDFA95108217FD0DC0E1E018
:10042000F0E0EC0FFD1FE10FF11D17FDFA95808143
:100430000E94F6001150F1CF64960FB6F894DEBF1B
:100440000FBECDBFDF91CF911F910F91FF90EF9025
:10045000DF90CF90BF90AF907F906F905F904F9064
:1004600008950F931F93CF93DF93C7E0D0E0082F39
:1004700010E0C8010C2E02C0959587950A94E2F70A
:1004800080FD02C080E301C081E30E94F600219755
:1004900080F7DF91CF911F910F910895FF920F93F5
:1004A0001F93CF93DF93CDB7DEB764970FB6F89461
:1004B000DEBF0FBECDBFF82E8E010F5F1F4F84E150
:1004C000F80111928A95E9F780E30E94F60088E727
:1004D0000E94F60031E08FEF830FFF2089F02F2D6F
:1004E0002F7090E0F801E80FF91F2A3010F4205D1A
:1004F00001C0295A2083F2948FE0F8223F5FEBCFAE
:1005000032508695F801D801A30FB11D9E2F901B84
:10051000981728F490812C9121939C93F7CFC801D0
:100520000E94810164960FB6F894DEBF0FBECDBF66
:10053000DF91CF911F910F91FF90089581E00E946C
:1005400096008FEC97E00197F1F700C00000089546
:10055000FC0141E050E020E030E08AE091919923F5
:1005600089F09D3261F0829FB001839F700D11244C
:10057000292F30E020533109260F371FEFCF40E0FD
:1005800050E0ECCF4130510529F088279927821B94
:10059000930B0895C90108958F929F92AF92BF92D5
:1005A000CF92DF92EF92FF92CF93DF93EC01E0E0E6
:1005B000DE01AE0FB11D8C91882311F0EF5FF8CFF3
:1005C000E150812C912C54018394C12CD12C7601C3
:1005D000E7FD16C0DE01AE0FB11DE7FDBA95AC9187
:1005E000B0E0D097A50194010E942E06C60ED71E3A
:1005F000E81EF91E880C991CAA1CBB1CE150E8CF10
:10060000C701B601DF91CF91FF90EF90DF90CF90BF
:10061000BF90AF909F908F900895AC0120E0FA01B9
:10062000E20FF11D9081291740F48FEB890F8A3179
:1006300010F4905E90832F5FF2CF08958F929F9277
:10064000AF92BF92CF92DF92EF92FF92CF93DF9360
:10065000EC010E940D03E0E0DE01AE0FB11D8C91B4
:10066000882311F0EF5FF8CFE150812C912C5401D9
:100670008394C12CD12C7601E7FD43C0DE01AE0F7F
:10068000B11DE7FDBA95AC9180ED8A0F8A3038F440
:10069000B0E0D097A50194010E942E0625C08FE9F5
:1006A0008A0F863028F5A43699F028F4A23651F046
:1006B000A33659F004C0A53671F0A63679F0AAE049
:1006C000B0E00EC0ABE0B0E00BC0ACE0B0E008C002
:1006D000ADE0B0E005C0AEE0B0E002C0AFE0B0E039
:1006E000A50194010E942306C60ED71EE81EF91E1E
:1006F000E15084E0880C991CAA1CBB1C8A95D1F798
:10070000BBCFC701B601DF91CF91FF90EF90DF9093
:10071000CF90BF90AF909F908F900895CF93DF932D
:10072000CDB7DEB764970FB6F894DEBF0FBECDBF6E
:100730000E947C040E9456010E94490065E080E00E
:100740000E94760180E990E00E94810160E081E0F2
:100750000E94760186E990E00E9481010E949E023B
:10076000CE0101967C0184E1F70111928A95E9F7A7
:10077000912C00E0A12CB12C13E46E01F5E1CF0E19
:10078000D11C1334B9F40E949E02F7011192EC15AA
:10079000FD05E1F789EA90E00E94810160E081E0D7
:1007A0000E94760186EB90E00E948101912C00E08E
:1007B000A12CB12C0E945400182F8FEC810F833094
:1007C00008F048C001111CC00E949E0283EC90E01A
:1007D0000E948101123321F0133321F084E403C01D
:1007E00082E401C088E40E94740160E081E00E941C
:1007F000760186EB90E00E948101B12E01E0C1CF2D
:10080000013041F50E949E0282E3B81641F093E365
:10081000B91639F0E1E3BE1207C084E403C082E4F4
:1008200001C088E40E94740160E081E00E947601CA
:10083000123321F0133321F084E403C082E401C0B9
:1008400088E40E94740161E080E00E947601A12E9C
:1008500002E097CF0230C9F480ED810F8A3020F09A
:100860008FE9810F863048F4812F0E947401F701CF
:10087000E90DF11D1083939484CF1D3309F081CFCE
:10088000F701E90DF11D108203C0033009F079CFA3
:1008900061E081E00E947601F2E3BF1651F083E34C
:1008A000B81659F091E3B9120DC0C7010E94A80211
:1008B0000AC0C7010E94CC0203C0C7010E941E03E8
:1008C000862F01C080E0E2E3AE1679F0F3E3AF16C5
:1008D00079F091E3A91611F003E053CF682F70E08F
:1008E00080E090E00E94A00105C00E94310202C099
:1008F0000E944E0200E045CFEF92FF921F93CF93EC
:10090000DF93C0E6D0E048EF5FEF60EF7FEFA8EE47
:10091000BFEFE0E0F0E081E090E02991E830B0F551
:10092000213019F198F0223009F0C2C01AB37C01CD
:100930000E2E02C0EE0CFF1C0A94E2F797013E2D2A
:10094000309531233ABB3BB3232B1EC01AB37C0135
:100950000E2E02C0EE0CFF1C0A94E2F79701312F15
:10096000322B3ABB3BB320950EC01AB37C010E2E3E
:1009700002C0EE0CFF1C0A94E2F797012095312F7C
:1009800032233ABB3BB323232BBB92C0483080F5C4
:100990002130F9F088F0223009F08AC017B39C01A9
:1009A000042E01C0220F0A94EAF7322F309531232A
:1009B00037BB38B3232B1AC017B39C01042E01C0D8
:1009C000220F0A94EAF7312F322B37BB38B3209528
:1009D0000CC017B39C01042E01C0220F0A94EAF741
:1009E0002095312F322337BB38B3232328BB60C077
:1009F000683080F52130F9F088F0223009F058C0D5
:100A000014B39C01062E01C0220F0A94EAF7322F7C
:100A10003095312334BB35B3232B1AC014B39C015A
:100A2000062E01C0220F0A94EAF7312F322B34BB75
:100A300035B320950CC014B39C01062E01C0220FC3
:100A40000A94EAF72095312F322334BB35B32323A0
:100A500025BB2EC02130F1F080F0223049F511B3D2
:100A60009C010A2E01C0220F0A94EAF7322F30951A
:100A7000312331BB32B3232B1AC011B39C010A2E90
:100A800001C0220F0A94EAF7312F322B31BB32B367
:100A900020950CC011B39C010A2E01C0220F0A94AC
:100AA000EAF72095312F322331BB32B3232322BB07
:100AB000319611966F5F7F4F4F5F5F4FE032F105C8
:100AC00009F02BCFDF91CF911F91FF90EF90089508
:100AD000982F97708695869586956130C1F58130FF
:100AE00091F028F08230D9F0833029F108954BB38A
:100AF00021E030E0B90102C0660F771F9A95E2F756
:100B0000CB01842B38C048B321E030E0B90102C0EA
:100B1000660F771F9A95E2F7CB01842B3AC045B355
:100B200021E030E0B90102C0660F771F9A95E2F725
:100B3000CB01842B3CC042B321E030E0B90102C0BC
:100B4000660F771F9A95E2F7CB01842B3EC0813068
:100B5000A1F028F08230F9F0833059F108954BB3B9
:100B600021E030E0B90102C0660F771F9A95E2F7E5
:100B7000CB01809584238BBB089548B321E030E0FE
:100B8000B90102C0660F771F9A95E2F7CB018095F5
:100B9000842388BB089545B321E030E0B90102C049
:100BA000660F771F9A95E2F7CB018095842385BB6A
:100BB000089542B321E030E0B90102C0660F771F0B
:100BC0009A95E2F7CB018095842382BB0895282F64
:100BD0002770869586958695813049F030F0823071
:100BE00041F0833079F480B305C089B303C086B384
:100BF00001C083B390E002C0959587952A95E2F7EE
:100C00008170089580E00895052E97FB1EF40094EE
:100C10000E941B0657FD07D00E94360607FC03D032
:100C20004EF40C941B0650954095309521953F4FFE
:100C30004F4F5F4F089590958095709561957F4FC8
:100C40008F4F9F4F08950E945806A59F900DB49F07
:100C5000900DA49F800D911D11240895B7FF0C9451
:100C600023060E942306821B930B0895A1E21A2EED
:100C7000AA1BBB1BFD010DC0AA1FBB1FEE1FFF1F40
:100C8000A217B307E407F50720F0A21BB30BE40B90
:100C9000F50B661F771F881F991F1A9469F76095D7
:100CA0007095809590959B01AC01BD01CF01089591
:100CB000A29FB001B39FC001A39F700D811D11249D
:100CC000911DB29F700D811D1124911D0895F894FE
:020CD000FFCF54
:100CD2000000000000000000000000000000000012
:100CE20000000000000000000202020202000002F6
:100CF20037383961343536623132336343303D64DB
:100D020048656C6C6F00636F6E76657274206672F4
:100D12006F6D2041686D656400636F6E76657274F5
:100D22002066726F6D00312D4409322D420909335C
:100D32002D4800436F6E76657274656420546F208F
:020D42000000AF
:00000001FF
