:1000000029C000009BC30000C2C30000EAC3000077
:100010003CC000003AC0000013C50000BFC400008F
:10002000E6C4000092C4000067C400003CC40000A5
:1000300008C4000057C5000028C000002AC5000001
:1000400024C0000078C5000020C000001EC00000D1
:100050001CC0000011241FBECFE5D8E0DEBFCDBF1D
:1000600010E0A0E6B0E0EAE7FCE002C005900D92E7
:10007000AE38B107D9F720E0AEE8B0E001C01D927C
:10008000AD3AB207E1F77CD1F6C5BACFCF93C82F0E
:1000900060E081E0CCD26C2F661F6627661F86E089
:1000A000C6D2C6FB662760F985E0C1D2C5FB6627CC
:1000B00060F984E0BCD2C4FB662760F983E0B7D264
:1000C00061E082E0B4D28FEC97E00197F1F700C0D5
:1000D000000060E082E0ABD28FEC97E00197F1F78F
:1000E00000C00000C3FB662760F986E0A0D2C2FB17
:1000F000662760F985E09BD2C1FB662760F984E042
:1001000096D26C2F617083E092D261E082E08FD250
:100110008FEC97E00197F1F700C0000060E082E00B
:1001200086D28FEC97E00197F1F700C00000CF91E5
:100130000895CF93C82F61E081E079D26C2F661FBC
:100140006627661F86E073D2C6FB662760F985E0E6
:100150006ED2C5FB662760F984E069D2C4FB6627CE
:1001600060F983E064D261E082E061D28FEC97E0D5
:100170000197F1F700C0000060E082E058D28FECF8
:1001800097E00197F1F700C00000C3FB662760F914
:1001900086E04DD2C2FB662760F985E048D2C1FBFC
:1001A000662760F984E043D26C2F617083E03FD210
:1001B00061E082E03CD28FEC97E00197F1F700C05C
:1001C000000060E082E033D28FEC97E00197F1F716
:1001D00000C00000CF9108952FE788E391E02150FF
:1001E00080409040E1F700C0000082E04FDF88E2ED
:1001F0004DDF8CE04BDF81E049DF8FEC97E001972A
:10020000F1F700C0000086E041CF93CF811102C01A
:1002100080E803C0813019F480EC860F37CF089551
:10022000CF93DF93FC012081222311F0EC0104C065
:1002300080E3DF91CF917DCF8991882359F079DFD9
:10024000FFEF20E782E0F15020408040E1F700C05E
:100250000000F2CFDF91CF9108954F925F926F929D
:100260007F92AF92BF92CF92DF92EF92FF920F9365
:100270001F93CF93DF93CDB7DEB764970FB6F89493
:10028000DEBF0FBECDBF6B017C016115710581051D
:100290009105B1F480E364960FB6F894DEBF0FBE0B
:1002A000CDBFDF91CF911F910F91FF90EF90DF9025
:1002B000CF90BF90AF907F906F905F904F9039CF6D
:1002C00097FF0AC08DE235DFF094E094D094C0949B
:1002D000C11CD11CE11CF11C10E09AE0492E512CEC
:1002E000612C712C01E0010FAA24A394B12CAC0E57
:1002F000BD1EA10EB11C17FDBA94C701B601A30122
:1003000092018ED4605DF501608369017A01C114A8
:10031000D104E104F10411F0102FE4CFE1E0F0E0AA
:10032000EC0FFD1FE00FF11D07FDFA95108217FD80
:100330000CC0E1E0F0E0EC0FFD1FE10FF11D17FD37
:10034000FA958081F6DE1150F2CF64960FB6F894DC
:10035000DEBF0FBECDBFDF91CF911F910F91FF90F8
:10036000EF90DF90CF90BF90AF907F906F905F90B5
:100370004F90089587E063C062D280938F00089504
:100380006AD02ADF57D266E081E038D080E890E07A
:1003900047DF8AE890E044DF8CEB91E07BD281D2AA
:1003A00078940AE010E060E081E030DFE3DFB8013C
:1003B00001D4EB0180E090E050DF86E890E030DF90
:1003C00088E890E02DDF8C2FC0938E0036D267E056
:1003D00081E01CDF80918F0018DF80918E008333D5
:1003E00010F361E08BE023D18FEC97E00197F1F7F8
:1003F00000C0000060E08BE01AD1D5CF813041F021
:1004000028F0823039F43E9A3F9A04C03E9801C0E9
:100410003E9A3F9886B1887F86B986B16770682B0F
:1004200066B9379A089597B1907E97B997B1892B9D
:1004300087B9369A3699FECF84B195B10895F3DF26
:100440009C01A8E8B3E108D42FEF33E040E050E08E
:10045000C5D3C9010895EF92FF921F93CF93DF9305
:10046000C0E6D0E048EF5FEF60EF7FEFA8EEBFEFB0
:10047000E0E0F0E081E090E02991E830B0F5213053
:1004800019F198F0223009F0C2C01AB37C010E2E87
:1004900002C0EE0CFF1C0A94E2F797013E2D309546
:1004A00031233ABB3BB3232B1EC01AB37C010E2E63
:1004B00002C0EE0CFF1C0A94E2F79701312F322B99
:1004C0003ABB3BB320950EC01AB37C010E2E02C07E
:1004D000EE0CFF1C0A94E2F797012095312F32238E
:1004E0003ABB3BB323232BBB92C0483080F521306D
:1004F000F9F088F0223009F08AC017B39C01042E6D
:1005000001C0220F0A94EAF7322F3095312337BB0E
:1005100038B3232B1AC017B39C01042E01C0220F3D
:100520000A94EAF7312F322B37BB38B320950CC031
:1005300017B39C01042E01C0220F0A94EAF72095FC
:10054000312F322337BB38B3232328BB60C0683038
:1005500080F52130F9F088F0223009F058C014B34A
:100560009C01062E01C0220F0A94EAF7322F309523
:10057000312334BB35B3232B1AC014B39C01062E90
:1005800001C0220F0A94EAF7312F322B34BB35B366
:1005900020950CC014B39C01062E01C0220F0A94B2
:1005A000EAF72095312F322334BB35B3232325BB03
:1005B0002EC02130F1F080F0223049F511B39C01BA
:1005C0000A2E01C0220F0A94EAF7322F3095312308
:1005D00031BB32B3232B1AC011B39C010A2E01C0C8
:1005E000220F0A94EAF7312F322B31BB32B3209518
:1005F0000CC011B39C010A2E01C0220F0A94EAF725
:100600002095312F322331BB32B3232322BB3196C5
:1006100011966F5F7F4F4F5F5F4FE032F10509F03A
:100620002BCFDF91CF911F91FF90EF900895982FDE
:1006300097708695869586956130C1F5813091F0E9
:1006400028F08230D9F0833029F108954BB321E0AE
:1006500030E0B90102C0660F771F9A95E2F7CB012F
:10066000842B38C048B321E030E0B90102C0660FE6
:10067000771F9A95E2F7CB01842B3AC045B321E06E
:1006800030E0B90102C0660F771F9A95E2F7CB01FF
:10069000842B3CC042B321E030E0B90102C0660FB8
:1006A000771F9A95E2F7CB01842B3EC08130A1F0F1
:1006B00028F08230F9F0833059F108954BB321E0EE
:1006C00030E0B90102C0660F771F9A95E2F7CB01BF
:1006D000809584238BBB089548B321E030E0B901B5
:1006E00002C0660F771F9A95E2F7CB0180958423AD
:1006F00088BB089545B321E030E0B90102C0660F20
:10070000771F9A95E2F7CB018095842385BB0895E6
:1007100042B321E030E0B90102C0660F771F9A951D
:10072000E2F7CB018095842382BB0895E199FECF47
:100730009FBB8EBB6DBBE29AE19A08951F920F9208
:100740000FB60F9211242F933F934F935F936F93A4
:100750007F938F939F93AF93BF93EF93FF93E0911A
:100760009600F0919700309709F00995FF91EF916D
:10077000BF91AF919F918F917F916F915F914F91B9
:100780003F912F910F900FBE0F901F901895789466
:100790001F920F920FB60F9211242F933F934F93F6
:1007A0005F936F937F938F939F93AF93BF93EF93D9
:1007B000FF93E0919400F0919500309709F009952E
:1007C000FF91EF91BF91AF919F918F917F916F9129
:1007D0005F914F913F912F910F900FBE0F901F90FF
:1007E00018951F920F920FB60F9211242F933F93DB
:1007F0004F935F936F937F938F939F93AF93BF9329
:10080000EF93FF93E0919200F0919300309709F0FD
:100810000995FF91EF91BF91AF919F918F917F913A
:100820006F915F914F913F912F910F900FBE0F905D
:100830001F9018956C986E9A08958FB908958FB18E
:1008400008951F920F920FB60F9211242F933F938A
:100850004F935F936F937F938F939F93AF93BF93C8
:10086000EF93FF93E0919800F0919900309709F091
:100870000995FF91EF91BF91AF919F918F917F91DA
:100880006F915F914F913F912F910F900FBE0F90FD
:100890001F901895009721F09093990080939800ED
:1008A00008956F9A08951F920F920FB60F92112418
:1008B0002F933F934F935F936F937F938F939F9368
:1008C000AF93BF93EF93FF93E091A400F091A50045
:1008D000309709F00995FF91EF91BF91AF919F91EA
:1008E0008F917F916F915F914F913F912F910F90D9
:1008F0000FBE0F901F9018951F920F920FB60F9278
:1009000011242F933F934F935F936F937F938F9314
:100910009F93AF93BF93EF93FF93E091A200F09169
:10092000A300309709F00995FF91EF91BF91AF9126
:100930009F918F917F916F915F914F913F912F91F7
:100940000F900FBE0F901F9018951F920F920FB629
:100950000F9211242F933F934F935F936F937F9345
:100960008F939F93AF93BF93EF93FF93E091A0007A
:10097000F091A100309709F00995FF91EF91BF9197
:10098000AF919F918F917F916F915F914F913F9127
:100990002F910F900FBE0F901F9018951F920F92DE
:1009A0000FB60F9211242F933F934F935F936F9342
:1009B0007F938F939F93AF93BF93EF93FF93E091B8
:1009C0009E00F0919F00309709F00995FF91EF91FB
:1009D000BF91AF919F918F917F916F915F914F9157
:1009E0003F912F910F900FBE0F901F9018951F925F
:1009F0000F920FB60F9211242F933F934F935F9353
:100A00006F937F938F939F93AF93BF93EF93FF93D6
:100A1000E0919C00F0919D00309709F00995FF91BD
:100A2000EF91BF91AF919F918F917F916F915F9166
:100A30004F913F912F910F900FBE0F901F901895DF
:100A40001F920F920FB60F9211242F933F934F9343
:100A50005F936F937F938F939F93AF93BF93EF9326
:100A6000FF93E0919A00F0919B00309709F009956F
:100A7000FF91EF91BF91AF919F918F917F916F9176
:100A80005F914F913F912F910F900FBE0F901F904C
:100A900018951F920F920FB60F9211242F933F9328
:100AA0004F935F936F937F938F939F93AF93BF9376
:100AB000EF93FF93E091A800F091A900309709F01F
:100AC0000995FF91EF91BF91AF919F918F917F9188
:100AD0006F915F914F913F912F910F900FBE0F90AB
:100AE0001F9018951F920F920FB60F9211242F93FB
:100AF0003F934F935F936F937F938F939F93AF93A6
:100B0000BF93EF93FF93E091A600F091A700309779
:100B100009F00995FF91EF91BF91AF919F918F914E
:100B20007F916F915F914F913F912F910F900FBEE9
:100B30000F901F9018951F920F920FB60F921124CD
:100B40002F933F934F935F936F937F938F939F93D5
:100B5000AF93BF93EF93FF938091AA00E091AB0016
:100B6000F091AC00E80FF11D9081933211F4E398FD
:100B700010C08F5F8093AA00608180919000909157
:100B800091009C012F5F3F4F309391002093900084
:100B9000CDDDFF91EF91BF91AF919F918F917F91AB
:100BA0006F915F914F913F912F910F900FBE0F90DA
:100BB0001F901895AA1BBB1B51E107C0AA1FBB1FA2
:100BC000A617B70710F0A61BB70B881F991F5A95D9
:100BD000A9F780959095BC01CD010895A1E21A2E48
:100BE000AA1BBB1BFD010DC0AA1FBB1FEE1FFF1FD1
:100BF000A217B307E407F50720F0A21BB30BE40B21
:100C0000F50B661F771F881F991F1A9469F7609567
:100C10007095809590959B01AC01BD01CF01089521
:100C2000052E97FB16F400940FD057FD05D0D6DFA4
:100C300007FC02D046F408C05095409530952195A8
:100C40003F4F4F4F5F4F08959095809570956195F8
:100C50007F4F8F4F9F4F0895A29FB001B39FC00158
:100C6000A39F700D811D1124911DB29F700D811DD8
:0A0C70001124911D0895F894FFCFA0
:100C7A000100000000000001020000000101000064
:100C8A000000000002020202020202020000020048
:0E0C9A00536C6176650043002020202020006E
:00000001FF
